8=FIX.4.2|9=84|35=A|34=1|49=OPS_CANDIDATE_7_7595|52=20250206-20:21:28.000|56=DTL|98=0|108=30|141=Y|10=158|8=FIX.4.2|9=154|35=D|34=2|49=OPS_CANDIDATE_7_7595|52=20250206-20:21:28.000|56=DTL|11=55156|18=0|21=1|38=32|40=2|44=130.364804506632|54=1|55=BAC|59=0|60=20250206-20:21:28|10=185|8=FIX.4.2|9=113|35=3|34=3|49=OPS_CANDIDATE_7_7595|52=20250206-20:21:28.000|56=DTL|45=2|58=Required tag missing|371=6|372=8|373=1|10=221|8=FIX.4.2|9=155|35=D|34=4|49=OPS_CANDIDATE_7_7595|52=20250206-20:21:28.000|56=DTL|11=74656|18=0|21=1|38=28|40=2|44=143.328248737804|54=5|55=AAPL|59=0|60=20250206-20:21:28|10=048|8=FIX.4.2|9=113|35=3|34=5|49=OPS_CANDIDATE_7_7595|52=20250206-20:21:28.000|56=DTL|45=3|58=Required tag missing|371=6|372=8|373=1|10=224|8=FIX.4.2|9=155|35=D|34=6|49=OPS_CANDIDATE_7_7595|52=20250206-20:21:28.000|56=DTL|11=83548|18=0|21=1|38=17|40=2|44=133.007922776421|54=2|55=AAPL|59=0|60=20250206-20:21:28|10=035|8=FIX.4.2|9=113|35=3|34=7|49=OPS_CANDIDATE_7_7595|52=20250206-20:21:28.000|56=DTL|45=4|58=Required tag missing|371=6|372=8|373=1|10=227|8=FIX.4.2|9=135|35=D|34=8|49=OPS_CANDIDATE_7_7595|52=20250206-20:21:28.000|56=DTL|11=48939|18=0|21=1|38=49|40=1|54=1|55=AAPL|59=0|60=20250206-20:21:28|10=081|8=FIX.4.2|9=113|35=3|34=9|49=OPS_CANDIDATE_7_7595|52=20250206-20:21:28.000|56=DTL|45=5|58=Required tag missing|371=6|372=8|373=1|10=230|8=FIX.4.2|9=157|35=D|34=10|49=OPS_CANDIDATE_7_7595|52=20250206-20:21:29.000|56=DTL|11=80419|18=0|21=1|38=100|40=2|44=103.755736315973|54=1|55=MSFT|59=0|60=20250206-20:21:29|10=155|8=FIX.4.2|9=118|35=F|34=11|49=OPS_CANDIDATE_7_7595|52=20250206-20:21:29.000|56=DTL|11=67523|41=74656|54=2|55=BAC|60=20250206-20:21:29|10=096|8=FIX.4.2|9=114|35=3|34=12|49=OPS_CANDIDATE_7_7595|52=20250206-20:21:29.000|56=DTL|45=6|58=Required tag missing|371=6|372=8|373=1|10=019|8=FIX.4.2|9=114|35=3|34=13|49=OPS_CANDIDATE_7_7595|52=20250206-20:21:29.000|56=DTL|45=7|58=Required tag missing|371=6|372=8|373=1|10=021|8=FIX.4.2|9=136|35=D|34=14|49=OPS_CANDIDATE_7_7595|52=20250206-20:21:29.000|56=DTL|11=51586|18=0|21=1|38=78|40=1|54=2|55=MSFT|59=0|60=20250206-20:21:29|10=152|8=FIX.4.2|9=114|35=3|34=15|49=OPS_CANDIDATE_7_7595|52=20250206-20:21:29.000|56=DTL|45=8|58=Required tag missing|371=6|372=8|373=1|10=024|8=FIX.4.2|9=136|35=D|34=16|49=OPS_CANDIDATE_7_7595|52=20250206-20:21:29.000|56=DTL|11=95249|18=0|21=1|38=36|40=1|54=5|55=MSFT|59=0|60=20250206-20:21:29|10=155|8=FIX.4.2|9=114|35=3|34=17|49=OPS_CANDIDATE_7_7595|52=20250206-20:21:29.000|56=DTL|45=9|58=Required tag missing|371=6|372=8|373=1|10=027|8=FIX.4.2|9=115|35=3|34=18|49=OPS_CANDIDATE_7_7595|52=20250206-20:21:29.000|56=DTL|45=10|58=Required tag missing|371=6|372=8|373=1|10=069|8=FIX.4.2|9=115|35=3|34=19|49=OPS_CANDIDATE_7_7595|52=20250206-20:21:29.000|56=DTL|45=11|58=Required tag missing|371=6|372=8|373=1|10=071|8=FIX.4.2|9=115|35=3|34=20|49=OPS_CANDIDATE_7_7595|52=20250206-20:21:29.000|56=DTL|45=12|58=Required tag missing|371=6|372=8|373=1|10=064|8=FIX.4.2|9=115|35=3|34=21|49=OPS_CANDIDATE_7_7595|52=20250206-20:21:29.000|56=DTL|45=13|58=Required tag missing|371=6|372=8|373=1|10=066|8=FIX.4.2|9=115|35=3|34=22|49=OPS_CANDIDATE_7_7595|52=20250206-20:21:29.000|56=DTL|45=14|58=Required tag missing|371=6|372=8|373=1|10=068|8=FIX.4.2|9=115|35=3|34=23|49=OPS_CANDIDATE_7_7595|52=20250206-20:21:29.000|56=DTL|45=15|58=Required tag missing|371=6|372=8|373=1|10=070|8=FIX.4.2|9=135|35=D|34=24|49=OPS_CANDIDATE_7_7595|52=20250206-20:21:29.000|56=DTL|11=45088|18=0|21=1|38=57|40=1|54=2|55=BAC|59=0|60=20250206-20:21:29|10=033|8=FIX.4.2|9=115|35=3|34=25|49=OPS_CANDIDATE_7_7595|52=20250206-20:21:29.000|56=DTL|45=16|58=Required tag missing|371=6|372=8|373=1|10=073|8=FIX.4.2|9=156|35=D|34=26|49=OPS_CANDIDATE_7_7595|52=20250206-20:21:29.000|56=DTL|11=44375|18=0|21=1|38=77|40=2|44=113.460335750769|54=2|55=AAPL|59=0|60=20250206-20:21:29|10=095|8=FIX.4.2|9=115|35=3|34=27|49=OPS_CANDIDATE_7_7595|52=20250206-20:21:29.000|56=DTL|45=17|58=Required tag missing|371=6|372=8|373=1|10=076|8=FIX.4.2|9=156|35=D|34=28|49=OPS_CANDIDATE_7_7595|52=20250206-20:21:29.000|56=DTL|11=68015|18=0|21=1|38=81|40=2|44=184.949504606284|54=2|55=AAPL|59=0|60=20250206-20:21:29|10=099|8=FIX.4.2|9=118|35=F|34=29|49=OPS_CANDIDATE_7_7595|52=20250206-20:21:29.000|56=DTL|11=86179|41=45088|54=1|55=BAC|60=20250206-20:21:29|10=109|8=FIX.4.2|9=115|35=3|34=30|49=OPS_CANDIDATE_7_7595|52=20250206-20:21:29.000|56=DTL|45=18|58=Required tag missing|371=6|372=8|373=1|10=071|8=FIX.4.2|9=115|35=3|34=31|49=OPS_CANDIDATE_7_7595|52=20250206-20:21:29.000|56=DTL|45=19|58=Required tag missing|371=6|372=8|373=1|10=073|8=FIX.4.2|9=155|35=D|34=32|49=OPS_CANDIDATE_7_7595|52=20250206-20:21:29.000|56=DTL|11=47374|18=0|21=1|38=85|40=2|44=176.250483447813|54=1|55=BAC|59=0|60=20250206-20:21:29|10=006|8=FIX.4.2|9=115|35=3|34=33|49=OPS_CANDIDATE_7_7595|52=20250206-20:21:29.000|56=DTL|45=20|58=Required tag missing|371=6|372=8|373=1|10=067|8=FIX.4.2|9=155|35=D|34=34|49=OPS_CANDIDATE_7_7595|52=20250206-20:21:29.000|56=DTL|11=2276|18=0|21=1|38=90|40=2|44=168.794982659998|54=2|55=MSFT|59=0|60=20250206-20:21:29|10=102|8=FIX.4.2|9=115|35=3|34=35|49=OPS_CANDIDATE_7_7595|52=20250206-20:21:29.000|56=DTL|45=21|58=Required tag missing|371=6|372=8|373=1|10=070|8=FIX.4.2|9=135|35=D|34=36|49=OPS_CANDIDATE_7_7595|52=20250206-20:21:29.000|56=DTL|11=91192|18=0|21=1|38=63|40=1|54=5|55=BAC|59=0|60=20250206-20:21:29|10=033|8=FIX.4.2|9=115|35=3|34=37|49=OPS_CANDIDATE_7_7595|52=20250206-20:21:29.000|56=DTL|45=22|58=Required tag missing|371=6|372=8|373=1|10=073|8=FIX.4.2|9=155|35=D|34=38|49=OPS_CANDIDATE_7_7595|52=20250206-20:21:30.000|56=DTL|11=75405|18=0|21=1|38=8|40=2|44=176.521199375278|54=1|55=AAPL|59=0|60=20250206-20:21:30|10=037|8=FIX.4.2|9=115|35=3|34=39|49=OPS_CANDIDATE_7_7595|52=20250206-20:21:30.000|56=DTL|45=23|58=Required tag missing|371=6|372=8|373=1|10=068|8=FIX.4.2|9=154|35=D|34=40|49=OPS_CANDIDATE_7_7595|52=20250206-20:21:30.000|56=DTL|11=3521|18=0|21=1|38=27|40=2|44=150.774423095574|54=1|55=BAC|59=0|60=20250206-20:21:30|10=178|8=FIX.4.2|9=115|35=3|34=41|49=OPS_CANDIDATE_7_7595|52=20250206-20:21:30.000|56=DTL|45=24|58=Required tag missing|371=6|372=8|373=1|10=062|8=FIX.4.2|9=136|35=D|34=42|49=OPS_CANDIDATE_7_7595|52=20250206-20:21:30.000|56=DTL|11=68659|18=0|21=1|38=14|40=1|54=1|55=AAPL|59=0|60=20250206-20:21:30|10=107|8=FIX.4.2|9=115|35=3|34=43|49=OPS_CANDIDATE_7_7595|52=20250206-20:21:30.000|56=DTL|45=25|58=Required tag missing|371=6|372=8|373=1|10=065|8=FIX.4.2|9=155|35=D|34=44|49=OPS_CANDIDATE_7_7595|52=20250206-20:21:30.000|56=DTL|11=21304|18=0|21=1|38=28|40=2|44=167.397485223984|54=1|55=BAC|59=0|60=20250206-20:21:30|10=246|8=FIX.4.2|9=115|35=3|34=45|49=OPS_CANDIDATE_7_7595|52=20250206-20:21:30.000|56=DTL|45=26|58=Required tag missing|371=6|372=8|373=1|10=068|8=FIX.4.2|9=115|35=3|34=46|49=OPS_CANDIDATE_7_7595|52=20250206-20:21:30.000|56=DTL|45=27|58=Required tag missing|371=6|372=8|373=1|10=070|8=FIX.4.2|9=115|35=3|34=47|49=OPS_CANDIDATE_7_7595|52=20250206-20:21:30.000|56=DTL|45=28|58=Required tag missing|371=6|372=8|373=1|10=072|8=FIX.4.2|9=115|35=3|34=48|49=OPS_CANDIDATE_7_7595|52=20250206-20:21:30.000|56=DTL|45=29|58=Required tag missing|371=6|372=8|373=1|10=074|8=FIX.4.2|9=115|35=3|34=49|49=OPS_CANDIDATE_7_7595|52=20250206-20:21:30.000|56=DTL|45=30|58=Required tag missing|371=6|372=8|373=1|10=067|8=FIX.4.2|9=115|35=3|34=50|49=OPS_CANDIDATE_7_7595|52=20250206-20:21:30.000|56=DTL|45=31|58=Required tag missing|371=6|372=8|373=1|10=060|8=FIX.4.2|9=115|35=3|34=51|49=OPS_CANDIDATE_7_7595|52=20250206-20:21:30.000|56=DTL|45=32|58=Required tag missing|371=6|372=8|373=1|10=062|8=FIX.4.2|9=115|35=3|34=52|49=OPS_CANDIDATE_7_7595|52=20250206-20:21:30.000|56=DTL|45=33|58=Required tag missing|371=6|372=8|373=1|10=064|8=FIX.4.2|9=115|35=3|34=53|49=OPS_CANDIDATE_7_7595|52=20250206-20:21:30.000|56=DTL|45=34|58=Required tag missing|371=6|372=8|373=1|10=066|8=FIX.4.2|9=115|35=3|34=54|49=OPS_CANDIDATE_7_7595|52=20250206-20:21:30.000|56=DTL|45=35|58=Required tag missing|371=6|372=8|373=1|10=068|8=FIX.4.2|9=115|35=3|34=55|49=OPS_CANDIDATE_7_7595|52=20250206-20:21:30.000|56=DTL|45=36|58=Required tag missing|371=6|372=8|373=1|10=070|8=FIX.4.2|9=135|35=D|34=56|49=OPS_CANDIDATE_7_7595|52=20250206-20:21:30.000|56=DTL|11=59532|18=0|21=1|38=30|40=1|54=1|55=BAC|59=0|60=20250206-20:21:30|10=011|8=FIX.4.2|9=115|35=3|34=57|49=OPS_CANDIDATE_7_7595|52=20250206-20:21:30.000|56=DTL|45=37|58=Required tag missing|371=6|372=8|373=1|10=073|8=FIX.4.2|9=136|35=D|34=58|49=OPS_CANDIDATE_7_7595|52=20250206-20:21:30.000|56=DTL|11=88955|18=0|21=1|38=43|40=1|54=1|55=AAPL|59=0|60=20250206-20:21:30|10=117|8=FIX.4.2|9=115|35=3|34=59|49=OPS_CANDIDATE_7_7595|52=20250206-20:21:30.000|56=DTL|45=38|58=Required tag missing|371=6|372=8|373=1|10=076|8=FIX.4.2|9=156|35=D|34=60|49=OPS_CANDIDATE_7_7595|52=20250206-20:21:30.000|56=DTL|11=85111|18=0|21=1|38=55|40=2|44=114.958474122381|54=5|55=AAPL|59=0|60=20250206-20:21:30|10=069|8=FIX.4.2|9=115|35=3|34=61|49=OPS_CANDIDATE_7_7595|52=20250206-20:21:30.000|56=DTL|45=39|58=Required tag missing|371=6|372=8|373=1|10=070|8=FIX.4.2|9=156|35=D|34=62|49=OPS_CANDIDATE_7_7595|52=20250206-20:21:30.000|56=DTL|11=65740|18=0|21=1|38=50|40=2|44=111.020677566708|54=1|55=MSFT|59=0|60=20250206-20:21:30|10=093|8=FIX.4.2|9=115|35=3|34=63|49=OPS_CANDIDATE_7_7595|52=20250206-20:21:30.000|56=DTL|45=40|58=Required tag missing|371=6|372=8|373=1|10=064|8=FIX.4.2|9=134|35=D|34=64|49=OPS_CANDIDATE_7_7595|52=20250206-20:21:30.000|56=DTL|11=4469|18=0|21=1|38=36|40=1|54=5|55=BAC|59=0|60=20250206-20:21:30|10=226|8=FIX.4.2|9=115|35=3|34=65|49=OPS_CANDIDATE_7_7595|52=20250206-20:21:30.000|56=DTL|45=41|58=Required tag missing|371=6|372=8|373=1|10=067|8=FIX.4.2|9=154|35=D|34=66|49=OPS_CANDIDATE_7_7595|52=20250206-20:21:30.000|56=DTL|11=86781|18=0|21=1|38=99|40=2|44=193.88345836202|54=1|55=BAC|59=0|60=20250206-20:21:30|10=213|8=FIX.4.2|9=115|35=3|34=67|49=OPS_CANDIDATE_7_7595|52=20250206-20:21:31.000|56=DTL|45=42|58=Required tag missing|371=6|372=8|373=1|10=071|8=FIX.4.2|9=156|35=D|34=68|49=OPS_CANDIDATE_7_7595|52=20250206-20:21:31.000|56=DTL|11=10007|18=0|21=1|38=84|40=2|44=182.536834755932|54=2|55=AAPL|59=0|60=20250206-20:21:31|10=081|8=FIX.4.2|9=115|35=3|34=69|49=OPS_CANDIDATE_7_7595|52=20250206-20:21:31.000|56=DTL|45=43|58=Required tag missing|371=6|372=8|373=1|10=074|8=FIX.4.2|9=136|35=D|34=70|49=OPS_CANDIDATE_7_7595|52=20250206-20:21:31.000|56=DTL|11=80663|18=0|21=1|38=79|40=1|54=5|55=MSFT|59=0|60=20250206-20:21:31|10=142|8=FIX.4.2|9=115|35=3|34=71|49=OPS_CANDIDATE_7_7595|52=20250206-20:21:31.000|56=DTL|45=44|58=Required tag missing|371=6|372=8|373=1|10=068|8=FIX.4.2|9=156|35=D|34=72|49=OPS_CANDIDATE_7_7595|52=20250206-20:21:31.000|56=DTL|11=46351|18=0|21=1|38=42|40=2|44=182.154910347483|54=2|55=AAPL|59=0|60=20250206-20:21:31|10=070|8=FIX.4.2|9=115|35=3|34=73|49=OPS_CANDIDATE_7_7595|52=20250206-20:21:31.000|56=DTL|45=45|58=Required tag missing|371=6|372=8|373=1|10=071|8=FIX.4.2|9=115|35=3|34=74|49=OPS_CANDIDATE_7_7595|52=20250206-20:21:31.000|56=DTL|45=46|58=Required tag missing|371=6|372=8|373=1|10=073|8=FIX.4.2|9=115|35=3|34=75|49=OPS_CANDIDATE_7_7595|52=20250206-20:21:31.000|56=DTL|45=47|58=Required tag missing|371=6|372=8|373=1|10=075|8=FIX.4.2|9=115|35=3|34=76|49=OPS_CANDIDATE_7_7595|52=20250206-20:21:31.000|56=DTL|45=48|58=Required tag missing|371=6|372=8|373=1|10=077|8=FIX.4.2|9=115|35=3|34=77|49=OPS_CANDIDATE_7_7595|52=20250206-20:21:31.000|56=DTL|45=49|58=Required tag missing|371=6|372=8|373=1|10=079|8=FIX.4.2|9=115|35=3|34=78|49=OPS_CANDIDATE_7_7595|52=20250206-20:21:31.000|56=DTL|45=50|58=Required tag missing|371=6|372=8|373=1|10=072|8=FIX.4.2|9=115|35=3|34=79|49=OPS_CANDIDATE_7_7595|52=20250206-20:21:31.000|56=DTL|45=51|58=Required tag missing|371=6|372=8|373=1|10=074|8=FIX.4.2|9=115|35=3|34=80|49=OPS_CANDIDATE_7_7595|52=20250206-20:21:31.000|56=DTL|45=52|58=Required tag missing|371=6|372=8|373=1|10=067|8=FIX.4.2|9=115|35=3|34=81|49=OPS_CANDIDATE_7_7595|52=20250206-20:21:31.000|56=DTL|45=53|58=Required tag missing|371=6|372=8|373=1|10=069|8=FIX.4.2|9=115|35=3|34=82|49=OPS_CANDIDATE_7_7595|52=20250206-20:21:31.000|56=DTL|45=54|58=Required tag missing|371=6|372=8|373=1|10=071|8=FIX.4.2|9=115|35=3|34=83|49=OPS_CANDIDATE_7_7595|52=20250206-20:21:31.000|56=DTL|45=55|58=Required tag missing|371=6|372=8|373=1|10=073|8=FIX.4.2|9=115|35=3|34=84|49=OPS_CANDIDATE_7_7595|52=20250206-20:21:31.000|56=DTL|45=56|58=Required tag missing|371=6|372=8|373=1|10=075|8=FIX.4.2|9=115|35=3|34=85|49=OPS_CANDIDATE_7_7595|52=20250206-20:21:31.000|56=DTL|45=57|58=Required tag missing|371=6|372=8|373=1|10=077|8=FIX.4.2|9=115|35=3|34=86|49=OPS_CANDIDATE_7_7595|52=20250206-20:21:31.000|56=DTL|45=58|58=Required tag missing|371=6|372=8|373=1|10=079|8=FIX.4.2|9=115|35=3|34=87|49=OPS_CANDIDATE_7_7595|52=20250206-20:21:31.000|56=DTL|45=59|58=Required tag missing|371=6|372=8|373=1|10=081|8=FIX.4.2|9=135|35=D|34=88|49=OPS_CANDIDATE_7_7595|52=20250206-20:21:31.000|56=DTL|11=91609|18=0|21=1|38=11|40=1|54=5|55=BAC|59=0|60=20250206-20:21:31|10=022|8=FIX.4.2|9=115|35=3|34=89|49=OPS_CANDIDATE_7_7595|52=20250206-20:21:31.000|56=DTL|45=60|58=Required tag missing|371=6|372=8|373=1|10=075|8=FIX.4.2|9=155|35=D|34=90|49=OPS_CANDIDATE_7_7595|52=20250206-20:21:31.000|56=DTL|11=32679|18=0|21=1|38=24|40=2|44=116.403802482737|54=5|55=BAC|59=0|60=20250206-20:21:31|10=244|8=FIX.4.2|9=115|35=3|34=91|49=OPS_CANDIDATE_7_7595|52=20250206-20:21:31.000|56=DTL|45=61|58=Required tag missing|371=6|372=8|373=1|10=069|8=FIX.4.2|9=135|35=D|34=92|49=OPS_CANDIDATE_7_7595|52=20250206-20:21:31.000|56=DTL|11=83660|18=0|21=1|38=72|40=1|54=2|55=BAC|59=0|60=20250206-20:21:31|10=019|8=FIX.4.2|9=118|35=F|34=93|49=OPS_CANDIDATE_7_7595|52=20250206-20:21:31.000|56=DTL|11=24657|41=55156|54=5|55=BAC|60=20250206-20:21:31|10=090|8=FIX.4.2|9=115|35=3|34=94|49=OPS_CANDIDATE_7_7595|52=20250206-20:21:31.000|56=DTL|45=62|58=Required tag missing|371=6|372=8|373=1|10=073|8=FIX.4.2|9=117|35=3|34=95|49=OPS_CANDIDATE_7_7595|52=20250206-20:21:31.000|56=DTL|45=63|58=Required tag missing|371=434|372=9|373=1|10=179|8=FIX.4.2|9=155|35=D|34=96|49=OPS_CANDIDATE_7_7595|52=20250206-20:21:31.000|56=DTL|11=67987|18=0|21=1|38=52|40=2|44=109.398253478068|54=5|55=BAC|59=0|60=20250206-20:21:31|10=022|8=FIX.4.2|9=115|35=3|34=97|49=OPS_CANDIDATE_7_7595|52=20250206-20:21:31.000|56=DTL|45=64|58=Required tag missing|371=6|372=8|373=1|10=078|8=FIX.4.2|9=136|35=D|34=98|49=OPS_CANDIDATE_7_7595|52=20250206-20:21:31.000|56=DTL|11=26173|18=0|21=1|38=22|40=1|54=2|55=MSFT|59=0|60=20250206-20:21:31|10=133|8=FIX.4.2|9=115|35=3|34=99|49=OPS_CANDIDATE_7_7595|52=20250206-20:21:31.000|56=DTL|45=65|58=Required tag missing|371=6|372=8|373=1|10=081|8=FIX.4.2|9=157|35=D|34=100|49=OPS_CANDIDATE_7_7595|52=20250206-20:21:31.000|56=DTL|11=11032|18=0|21=1|38=66|40=2|44=123.651576932498|54=2|55=AAPL|59=0|60=20250206-20:21:31|10=116|8=FIX.4.2|9=116|35=3|34=101|49=OPS_CANDIDATE_7_7595|52=20250206-20:21:31.000|56=DTL|45=66|58=Required tag missing|371=6|372=8|373=1|10=115|8=FIX.4.2|9=156|35=D|34=102|49=OPS_CANDIDATE_7_7595|52=20250206-20:21:32.000|56=DTL|11=8691|18=0|21=1|38=36|40=2|44=165.317613536518|54=1|55=MSFT|59=0|60=20250206-20:21:32|10=102|8=FIX.4.2|9=116|35=3|34=103|49=OPS_CANDIDATE_7_7595|52=20250206-20:21:32.000|56=DTL|45=67|58=Required tag missing|371=6|372=8|373=1|10=119|8=FIX.4.2|9=137|35=D|34=104|49=OPS_CANDIDATE_7_7595|52=20250206-20:21:32.000|56=DTL|11=41705|18=0|21=1|38=34|40=1|54=5|55=MSFT|59=0|60=20250206-20:21:32|10=176|8=FIX.4.2|9=116|35=3|34=105|49=OPS_CANDIDATE_7_7595|52=20250206-20:21:32.000|56=DTL|45=68|58=Required tag missing|371=6|372=8|373=1|10=122|8=FIX.4.2|9=156|35=D|34=106|49=OPS_CANDIDATE_7_7595|52=20250206-20:21:32.000|56=DTL|11=33778|18=0|21=1|38=31|40=2|44=191.469536655683|54=2|55=BAC|59=0|60=20250206-20:21:32|10=054|8=FIX.4.2|9=116|35=3|34=107|49=OPS_CANDIDATE_7_7595|52=20250206-20:21:32.000|56=DTL|45=69|58=Required tag missing|371=6|372=8|373=1|10=125|8=FIX.4.2|9=116|35=3|34=108|49=OPS_CANDIDATE_7_7595|52=20250206-20:21:32.000|56=DTL|45=70|58=Required tag missing|371=6|372=8|373=1|10=118|8=FIX.4.2|9=136|35=D|34=109|49=OPS_CANDIDATE_7_7595|52=20250206-20:21:32.000|56=DTL|11=89305|18=0|21=1|38=85|40=1|54=5|55=BAC|59=0|60=20250206-20:21:32|10=078|8=FIX.4.2|9=116|35=3|34=110|49=OPS_CANDIDATE_7_7595|52=20250206-20:21:32.000|56=DTL|45=71|58=Required tag missing|371=6|372=8|373=1|10=112|8=FIX.4.2|9=116|35=3|34=111|49=OPS_CANDIDATE_7_7595|52=20250206-20:21:32.000|56=DTL|45=72|58=Required tag missing|371=6|372=8|373=1|10=114|8=FIX.4.2|9=116|35=3|34=112|49=OPS_CANDIDATE_7_7595|52=20250206-20:21:32.000|56=DTL|45=73|58=Required tag missing|371=6|372=8|373=1|10=116|8=FIX.4.2|9=116|35=3|34=113|49=OPS_CANDIDATE_7_7595|52=20250206-20:21:32.000|56=DTL|45=74|58=Required tag missing|371=6|372=8|373=1|10=118|8=FIX.4.2|9=116|35=3|34=114|49=OPS_CANDIDATE_7_7595|52=20250206-20:21:32.000|56=DTL|45=75|58=Required tag missing|371=6|372=8|373=1|10=120|8=FIX.4.2|9=116|35=3|34=115|49=OPS_CANDIDATE_7_7595|52=20250206-20:21:32.000|56=DTL|45=76|58=Required tag missing|371=6|372=8|373=1|10=122|8=FIX.4.2|9=116|35=3|34=116|49=OPS_CANDIDATE_7_7595|52=20250206-20:21:32.000|56=DTL|45=77|58=Required tag missing|371=6|372=8|373=1|10=124|8=FIX.4.2|9=116|35=3|34=117|49=OPS_CANDIDATE_7_7595|52=20250206-20:21:32.000|56=DTL|45=78|58=Required tag missing|371=6|372=8|373=1|10=126|8=FIX.4.2|9=116|35=3|34=118|49=OPS_CANDIDATE_7_7595|52=20250206-20:21:32.000|56=DTL|45=79|58=Required tag missing|371=6|372=8|373=1|10=128|8=FIX.4.2|9=116|35=3|34=119|49=OPS_CANDIDATE_7_7595|52=20250206-20:21:32.000|56=DTL|45=80|58=Required tag missing|371=6|372=8|373=1|10=121|8=FIX.4.2|9=116|35=3|34=120|49=OPS_CANDIDATE_7_7595|52=20250206-20:21:32.000|56=DTL|45=81|58=Required tag missing|371=6|372=8|373=1|10=114|8=FIX.4.2|9=116|35=3|34=121|49=OPS_CANDIDATE_7_7595|52=20250206-20:21:32.000|56=DTL|45=82|58=Required tag missing|371=6|372=8|373=1|10=116|8=FIX.4.2|9=157|35=D|34=122|49=OPS_CANDIDATE_7_7595|52=20250206-20:21:32.000|56=DTL|11=53170|18=0|21=1|38=36|40=2|44=113.961901857779|54=1|55=AAPL|59=0|60=20250206-20:21:32|10=130|8=FIX.4.2|9=116|35=3|34=123|49=OPS_CANDIDATE_7_7595|52=20250206-20:21:32.000|56=DTL|45=83|58=Required tag missing|371=6|372=8|373=1|10=119|8=FIX.4.2|9=157|35=D|34=124|49=OPS_CANDIDATE_7_7595|52=20250206-20:21:32.000|56=DTL|11=81538|18=0|21=1|38=12|40=2|44=155.715581526048|54=2|55=MSFT|59=0|60=20250206-20:21:32|10=153|8=FIX.4.2|9=116|35=3|34=125|49=OPS_CANDIDATE_7_7595|52=20250206-20:21:32.000|56=DTL|45=84|58=Required tag missing|371=6|372=8|373=1|10=122|8=FIX.4.2|9=137|35=D|34=126|49=OPS_CANDIDATE_7_7595|52=20250206-20:21:32.000|56=DTL|11=25037|18=0|21=1|38=45|40=1|54=5|55=AAPL|59=0|60=20250206-20:21:32|10=154|8=FIX.4.2|9=116|35=3|34=127|49=OPS_CANDIDATE_7_7595|52=20250206-20:21:32.000|56=DTL|45=85|58=Required tag missing|371=6|372=8|373=1|10=125|8=FIX.4.2|9=136|35=D|34=128|49=OPS_CANDIDATE_7_7595|52=20250206-20:21:32.000|56=DTL|11=53389|18=0|21=1|38=91|40=1|54=1|55=BAC|59=0|60=20250206-20:21:32|10=075|8=FIX.4.2|9=116|35=3|34=129|49=OPS_CANDIDATE_7_7595|52=20250206-20:21:32.000|56=DTL|45=86|58=Required tag missing|371=6|372=8|373=1|10=128|8=FIX.4.2|9=136|35=D|34=130|49=OPS_CANDIDATE_7_7595|52=20250206-20:21:32.000|56=DTL|11=43895|18=0|21=1|38=5|40=1|54=5|55=AAPL|59=0|60=20250206-20:21:32|10=108|8=FIX.4.2|9=116|35=3|34=131|49=OPS_CANDIDATE_7_7595|52=20250206-20:21:32.000|56=DTL|45=87|58=Required tag missing|371=6|372=8|373=1|10=122|8=FIX.4.2|9=154|35=D|34=132|49=OPS_CANDIDATE_7_7595|52=20250206-20:21:33.000|56=DTL|11=9334|18=0|21=1|38=3|40=2|44=135.794885449429|54=1|55=BAC|59=0|60=20250206-20:21:33|10=207|8=FIX.4.2|9=116|35=3|34=133|49=OPS_CANDIDATE_7_7595|52=20250206-20:21:33.000|56=DTL|45=88|58=Required tag missing|371=6|372=8|373=1|10=126|8=FIX.4.2|9=137|35=D|34=134|49=OPS_CANDIDATE_7_7595|52=20250206-20:21:33.000|56=DTL|11=28408|18=0|21=1|38=18|40=1|54=1|55=AAPL|59=0|60=20250206-20:21:33|10=156|8=FIX.4.2|9=116|35=3|34=135|49=OPS_CANDIDATE_7_7595|52=20250206-20:21:33.000|56=DTL|45=89|58=Required tag missing|371=6|372=8|373=1|10=129|8=FIX.4.2|9=157|35=D|34=136|49=OPS_CANDIDATE_7_7595|52=20250206-20:21:33.000|56=DTL|11=35291|18=0|21=1|38=53|40=2|44=120.878666533863|54=1|55=AAPL|59=0|60=20250206-20:21:33|10=138|8=FIX.4.2|9=116|35=3|34=137|49=OPS_CANDIDATE_7_7595|52=20250206-20:21:33.000|56=DTL|45=90|58=Required tag missing|371=6|372=8|373=1|10=123|