8=FIX.4.2|9=84|35=A|34=1|49=OPS_CANDIDATE_7_7595|52=20250207-12:06:08.000|56=DTL|98=0|108=30|141=Y|10=161|8=FIX.4.2|9=134|35=D|34=2|49=OPS_CANDIDATE_7_7595|52=20250207-12:06:08.000|56=DTL|11=28742|18=0|21=1|38=51|40=1|54=2|55=BAC|59=0|60=20250207-12:06:08|10=232|8=FIX.4.2|9=113|35=3|34=3|49=OPS_CANDIDATE_7_7595|52=20250207-12:06:08.000|56=DTL|45=2|58=Required tag missing|371=6|372=8|373=1|10=224|8=FIX.4.2|9=135|35=D|34=4|49=OPS_CANDIDATE_7_7595|52=20250207-12:06:08.000|56=DTL|11=26709|18=0|21=1|38=86|40=1|54=5|55=MSFT|59=0|60=20250207-12:06:08|10=107|8=FIX.4.2|9=113|35=3|34=5|49=OPS_CANDIDATE_7_7595|52=20250207-12:06:08.000|56=DTL|45=3|58=Required tag missing|371=6|372=8|373=1|10=227|8=FIX.4.2|9=154|35=D|34=6|49=OPS_CANDIDATE_7_7595|52=20250207-12:06:08.000|56=DTL|11=5174|18=0|21=1|38=43|40=2|44=159.136698953466|54=5|55=MSFT|59=0|60=20250207-12:06:08|10=038|8=FIX.4.2|9=113|35=3|34=7|49=OPS_CANDIDATE_7_7595|52=20250207-12:06:08.000|56=DTL|45=4|58=Required tag missing|371=6|372=8|373=1|10=230|8=FIX.4.2|9=155|35=D|34=8|49=OPS_CANDIDATE_7_7595|52=20250207-12:06:08.000|56=DTL|11=44430|18=0|21=1|38=52|40=2|44=186.483032479312|54=1|55=MSFT|59=0|60=20250207-12:06:08|10=063|8=FIX.4.2|9=117|35=F|34=9|49=OPS_CANDIDATE_7_7595|52=20250207-12:06:08.000|56=DTL|11=30056|41=44430|54=5|55=BAC|60=20250207-12:06:08|10=039|8=FIX.4.2|9=114|35=3|34=10|49=OPS_CANDIDATE_7_7595|52=20250207-12:06:08.000|56=DTL|45=5|58=Required tag missing|371=6|372=8|373=1|10=018|8=FIX.4.2|9=114|35=3|34=11|49=OPS_CANDIDATE_7_7595|52=20250207-12:06:08.000|56=DTL|45=6|58=Required tag missing|371=6|372=8|373=1|10=020|8=FIX.4.2|9=155|35=D|34=12|49=OPS_CANDIDATE_7_7595|52=20250207-12:06:08.000|56=DTL|11=35733|18=0|21=1|38=99|40=2|44=107.374090208386|54=5|55=BAC|59=0|60=20250207-12:06:08|10=008|8=FIX.4.2|9=114|35=3|34=13|49=OPS_CANDIDATE_7_7595|52=20250207-12:06:08.000|56=DTL|45=7|58=Required tag missing|371=6|372=8|373=1|10=023|8=FIX.4.2|9=114|35=3|34=14|49=OPS_CANDIDATE_7_7595|52=20250207-12:06:08.000|56=DTL|45=8|58=Required tag missing|371=6|372=8|373=1|10=025|8=FIX.4.2|9=114|35=3|34=15|49=OPS_CANDIDATE_7_7595|52=20250207-12:06:08.000|56=DTL|45=9|58=Required tag missing|371=6|372=8|373=1|10=027|8=FIX.4.2|9=115|35=3|34=16|49=OPS_CANDIDATE_7_7595|52=20250207-12:06:08.000|56=DTL|45=10|58=Required tag missing|371=6|372=8|373=1|10=069|8=FIX.4.2|9=115|35=3|34=17|49=OPS_CANDIDATE_7_7595|52=20250207-12:06:08.000|56=DTL|45=11|58=Required tag missing|371=6|372=8|373=1|10=071|8=FIX.4.2|9=135|35=D|34=18|49=OPS_CANDIDATE_7_7595|52=20250207-12:06:08.000|56=DTL|11=62645|18=0|21=1|38=46|40=1|54=5|55=BAC|59=0|60=20250207-12:06:08|10=039|8=FIX.4.2|9=115|35=3|34=19|49=OPS_CANDIDATE_7_7595|52=20250207-12:06:08.000|56=DTL|45=12|58=Required tag missing|371=6|372=8|373=1|10=074|8=FIX.4.2|9=135|35=D|34=20|49=OPS_CANDIDATE_7_7595|52=20250207-12:06:08.000|56=DTL|11=94906|18=0|21=1|38=15|40=1|54=2|55=BAC|59=0|60=20250207-12:06:08|10=030|8=FIX.4.2|9=115|35=3|34=21|49=OPS_CANDIDATE_7_7595|52=20250207-12:06:08.000|56=DTL|45=13|58=Required tag missing|371=6|372=8|373=1|10=068|8=FIX.4.2|9=135|35=D|34=22|49=OPS_CANDIDATE_7_7595|52=20250207-12:06:08.000|56=DTL|11=34195|18=0|21=1|38=46|40=1|54=2|55=BAC|59=0|60=20250207-12:06:08|10=030|8=FIX.4.2|9=115|35=3|34=23|49=OPS_CANDIDATE_7_7595|52=20250207-12:06:08.000|56=DTL|45=14|58=Required tag missing|371=6|372=8|373=1|10=071|8=FIX.4.2|9=137|35=D|34=24|49=OPS_CANDIDATE_7_7595|52=20250207-12:06:08.000|56=DTL|11=48384|18=0|21=1|38=100|40=1|54=1|55=AAPL|59=0|60=20250207-12:06:08|10=165|8=FIX.4.2|9=115|35=3|34=25|49=OPS_CANDIDATE_7_7595|52=20250207-12:06:08.000|56=DTL|45=15|58=Required tag missing|371=6|372=8|373=1|10=074|8=FIX.4.2|9=156|35=D|34=26|49=OPS_CANDIDATE_7_7595|52=20250207-12:06:09.000|56=DTL|11=10056|18=0|21=1|38=43|40=2|44=146.612153361338|54=1|55=MSFT|59=0|60=20250207-12:06:09|10=103|8=FIX.4.2|9=115|35=3|34=27|49=OPS_CANDIDATE_7_7595|52=20250207-12:06:09.000|56=DTL|45=16|58=Required tag missing|371=6|372=8|373=1|10=078|8=FIX.4.2|9=135|35=D|34=28|49=OPS_CANDIDATE_7_7595|52=20250207-12:06:09.000|56=DTL|11=91756|18=0|21=1|38=3|40=1|54=5|55=MSFT|59=0|60=20250207-12:06:09|10=108|8=FIX.4.2|9=115|35=3|34=29|49=OPS_CANDIDATE_7_7595|52=20250207-12:06:09.000|56=DTL|45=17|58=Required tag missing|371=6|372=8|373=1|10=081|8=FIX.4.2|9=155|35=D|34=30|49=OPS_CANDIDATE_7_7595|52=20250207-12:06:09.000|56=DTL|11=30343|18=0|21=1|38=46|40=2|44=142.451422379731|54=5|55=BAC|59=0|60=20250207-12:06:09|10=247|8=FIX.4.2|9=115|35=3|34=31|49=OPS_CANDIDATE_7_7595|52=20250207-12:06:09.000|56=DTL|45=18|58=Required tag missing|371=6|372=8|373=1|10=075|8=FIX.4.2|9=155|35=D|34=32|49=OPS_CANDIDATE_7_7595|52=20250207-12:06:09.000|56=DTL|11=75628|18=0|21=1|38=1|40=2|44=180.995995130465|54=2|55=MSFT|59=0|60=20250207-12:06:09|10=083|8=FIX.4.2|9=115|35=3|34=33|49=OPS_CANDIDATE_7_7595|52=20250207-12:06:09.000|56=DTL|45=19|58=Required tag missing|371=6|372=8|373=1|10=078|8=FIX.4.2|9=136|35=D|34=34|49=OPS_CANDIDATE_7_7595|52=20250207-12:06:09.000|56=DTL|11=52301|18=0|21=1|38=93|40=1|54=5|55=MSFT|59=0|60=20250207-12:06:09|10=146|8=FIX.4.2|9=115|35=3|34=35|49=OPS_CANDIDATE_7_7595|52=20250207-12:06:09.000|56=DTL|45=20|58=Required tag missing|371=6|372=8|373=1|10=072|8=FIX.4.2|9=115|35=3|34=36|49=OPS_CANDIDATE_7_7595|52=20250207-12:06:09.000|56=DTL|45=21|58=Required tag missing|371=6|372=8|373=1|10=074|8=FIX.4.2|9=115|35=3|34=37|49=OPS_CANDIDATE_7_7595|52=20250207-12:06:09.000|56=DTL|45=22|58=Required tag missing|371=6|372=8|373=1|10=076|8=FIX.4.2|9=115|35=3|34=38|49=OPS_CANDIDATE_7_7595|52=20250207-12:06:09.000|56=DTL|45=23|58=Required tag missing|371=6|372=8|373=1|10=078|8=FIX.4.2|9=115|35=3|34=39|49=OPS_CANDIDATE_7_7595|52=20250207-12:06:09.000|56=DTL|45=24|58=Required tag missing|371=6|372=8|373=1|10=080|8=FIX.4.2|9=115|35=3|34=40|49=OPS_CANDIDATE_7_7595|52=20250207-12:06:09.000|56=DTL|45=25|58=Required tag missing|371=6|372=8|373=1|10=073|8=FIX.4.2|9=115|35=3|34=41|49=OPS_CANDIDATE_7_7595|52=20250207-12:06:09.000|56=DTL|45=26|58=Required tag missing|371=6|372=8|373=1|10=075|8=FIX.4.2|9=115|35=3|34=42|49=OPS_CANDIDATE_7_7595|52=20250207-12:06:09.000|56=DTL|45=27|58=Required tag missing|371=6|372=8|373=1|10=077|8=FIX.4.2|9=115|35=3|34=43|49=OPS_CANDIDATE_7_7595|52=20250207-12:06:09.000|56=DTL|45=28|58=Required tag missing|371=6|372=8|373=1|10=079|8=FIX.4.2|9=115|35=3|34=44|49=OPS_CANDIDATE_7_7595|52=20250207-12:06:09.000|56=DTL|45=29|58=Required tag missing|371=6|372=8|373=1|10=081|8=FIX.4.2|9=115|35=3|34=45|49=OPS_CANDIDATE_7_7595|52=20250207-12:06:09.000|56=DTL|45=30|58=Required tag missing|371=6|372=8|373=1|10=074|8=FIX.4.2|9=115|35=3|34=46|49=OPS_CANDIDATE_7_7595|52=20250207-12:06:09.000|56=DTL|45=31|58=Required tag missing|371=6|372=8|373=1|10=076|8=FIX.4.2|9=155|35=D|34=47|49=OPS_CANDIDATE_7_7595|52=20250207-12:06:09.000|56=DTL|11=13232|18=0|21=1|38=49|40=2|44=147.017441709535|54=5|55=BAC|59=0|60=20250207-12:06:09|10=003|8=FIX.4.2|9=115|35=3|34=48|49=OPS_CANDIDATE_7_7595|52=20250207-12:06:09.000|56=DTL|45=32|58=Required tag missing|371=6|372=8|373=1|10=079|8=FIX.4.2|9=155|35=D|34=49|49=OPS_CANDIDATE_7_7595|52=20250207-12:06:09.000|56=DTL|11=23563|18=0|21=1|38=6|40=2|44=106.642850511041|54=1|55=MSFT|59=0|60=20250207-12:06:09|10=056|8=FIX.4.2|9=115|35=3|34=50|49=OPS_CANDIDATE_7_7595|52=20250207-12:06:09.000|56=DTL|45=33|58=Required tag missing|371=6|372=8|373=1|10=073|8=FIX.4.2|9=155|35=D|34=51|49=OPS_CANDIDATE_7_7595|52=20250207-12:06:09.000|56=DTL|11=79734|18=0|21=1|38=47|40=2|44=186.40385037366|54=5|55=MSFT|59=0|60=20250207-12:06:09|10=085|8=FIX.4.2|9=115|35=3|34=52|49=OPS_CANDIDATE_7_7595|52=20250207-12:06:09.000|56=DTL|45=34|58=Required tag missing|371=6|372=8|373=1|10=076|8=FIX.4.2|9=156|35=D|34=53|49=OPS_CANDIDATE_7_7595|52=20250207-12:06:09.000|56=DTL|11=17248|18=0|21=1|38=13|40=2|44=145.685282338038|54=2|55=AAPL|59=0|60=20250207-12:06:09|10=096|8=FIX.4.2|9=115|35=3|34=54|49=OPS_CANDIDATE_7_7595|52=20250207-12:06:09.000|56=DTL|45=35|58=Required tag missing|371=6|372=8|373=1|10=079|8=FIX.4.2|9=136|35=D|34=55|49=OPS_CANDIDATE_7_7595|52=20250207-12:06:10.000|56=DTL|11=57254|18=0|21=1|38=25|40=1|54=2|55=MSFT|59=0|60=20250207-12:06:10|10=137|8=FIX.4.2|9=115|35=3|34=56|49=OPS_CANDIDATE_7_7595|52=20250207-12:06:10.000|56=DTL|45=36|58=Required tag missing|371=6|372=8|373=1|10=074|8=FIX.4.2|9=156|35=D|34=57|49=OPS_CANDIDATE_7_7595|52=20250207-12:06:10.000|56=DTL|11=56204|18=0|21=1|38=39|40=2|44=178.858800749562|54=1|55=AAPL|59=0|60=20250207-12:06:10|10=098|8=FIX.4.2|9=115|35=3|34=58|49=OPS_CANDIDATE_7_7595|52=20250207-12:06:10.000|56=DTL|45=37|58=Required tag missing|371=6|372=8|373=1|10=077|8=FIX.4.2|9=134|35=D|34=59|49=OPS_CANDIDATE_7_7595|52=20250207-12:06:10.000|56=DTL|11=6086|18=0|21=1|38=3|40=1|54=5|55=AAPL|59=0|60=20250207-12:06:10|10=011|8=FIX.4.2|9=115|35=3|34=60|49=OPS_CANDIDATE_7_7595|52=20250207-12:06:10.000|56=DTL|45=38|58=Required tag missing|371=6|372=8|373=1|10=071|