8=FIX.4.2|9=108|35=D|34=1|49=CLIENT|52=20250206-16:42:11.000|56=SERVER|11=83532|38=108|40=2|44=169.196317851045|54=2|55=BAC|10=133|8=FIX.4.2|9=108|35=D|34=2|49=CLIENT|52=20250206-16:42:11.000|56=SERVER|11=48754|38=25|40=2|44=126.226499336173|54=5|55=MSFT|10=208|8=FIX.4.2|9=109|35=D|34=3|49=CLIENT|52=20250206-16:42:11.000|56=SERVER|11=29043|38=490|40=2|44=146.945086873639|54=1|55=MSFT|10=009|8=FIX.4.2|9=89|35=D|34=4|49=CLIENT|52=20250206-16:42:12.000|56=SERVER|11=86395|38=258|40=1|54=5|55=AAPL|10=229|8=FIX.4.2|9=88|35=D|34=5|49=CLIENT|52=20250206-16:42:12.000|56=SERVER|11=51722|38=44|40=1|54=5|55=MSFT|10=188|8=FIX.4.2|9=89|35=D|34=6|49=CLIENT|52=20250206-16:42:12.000|56=SERVER|11=92298|38=703|40=1|54=2|55=AAPL|10=222|8=FIX.4.2|9=89|35=D|34=7|49=CLIENT|52=20250206-16:42:12.000|56=SERVER|11=99844|38=868|40=1|54=2|55=AAPL|10=239|8=FIX.4.2|9=108|35=D|34=8|49=CLIENT|52=20250206-16:42:12.000|56=SERVER|11=37631|38=90|40=2|44=138.352858645741|54=5|55=MSFT|10=215|8=FIX.4.2|9=108|35=D|34=9|49=CLIENT|52=20250206-16:42:12.000|56=SERVER|11=1817|38=716|40=2|44=175.156931362685|54=2|55=MSFT|10=213|8=FIX.4.2|9=108|35=D|34=10|49=CLIENT|52=20250206-16:42:12.000|56=SERVER|11=15082|38=720|40=2|44=113.58356366282|54=1|55=BAC|10=121|8=FIX.4.2|9=109|35=D|34=11|49=CLIENT|52=20250206-16:42:12.000|56=SERVER|11=34436|38=72|40=2|44=119.799289942402|54=5|55=MSFT|10=008|8=FIX.4.2|9=90|35=D|34=12|49=CLIENT|52=20250206-16:42:12.000|56=SERVER|11=90330|38=873|40=1|54=5|55=MSFT|10=027|8=FIX.4.2|9=89|35=D|34=13|49=CLIENT|52=20250206-16:42:13.000|56=SERVER|11=3063|38=328|40=1|54=2|55=AAPL|10=206|8=FIX.4.2|9=110|35=D|34=14|49=CLIENT|52=20250206-16:42:13.000|56=SERVER|11=21568|38=289|40=2|44=174.449611984455|54=2|55=MSFT|10=057|8=FIX.4.2|9=109|35=D|34=15|49=CLIENT|52=20250206-16:42:13.000|56=SERVER|11=65750|38=86|40=2|44=181.385365674849|54=2|55=AAPL|10=248|8=FIX.4.2|9=108|35=D|34=16|49=CLIENT|52=20250206-16:42:13.000|56=SERVER|11=28896|38=6|40=2|44=106.718433838206|54=5|55=AAPL|10=187|8=FIX.4.2|9=88|35=D|34=17|49=CLIENT|52=20250206-16:42:13.000|56=SERVER|11=2078|38=596|40=1|54=1|55=BAC|10=132|8=FIX.4.2|9=89|35=D|34=18|49=CLIENT|52=20250206-16:42:13.000|56=SERVER|11=79665|38=265|40=1|54=1|55=BAC|10=191|8=FIX.4.2|9=89|35=D|34=19|49=CLIENT|52=20250206-16:42:13.000|56=SERVER|11=91896|38=263|40=1|54=5|55=BAC|10=194|8=FIX.4.2|9=90|35=D|34=20|49=CLIENT|52=20250206-16:42:13.000|56=SERVER|11=43589|38=577|40=1|54=1|55=AAPL|10=010|8=FIX.4.2|9=87|35=F|34=21|49=CLIENT|52=20250206-16:42:13.000|56=SERVER|11=86171|41=65750|54=1|55=AAPL|10=152|8=FIX.4.2|9=87|35=F|34=22|49=CLIENT|52=20250206-16:42:13.000|56=SERVER|11=86171|41=65750|54=1|55=AAPL|10=153|8=FIX.4.2|9=110|35=D|34=23|49=CLIENT|52=20250206-16:42:13.000|56=SERVER|11=78959|38=503|40=2|44=122.242108496907|54=5|55=MSFT|10=050|8=FIX.4.2|9=89|35=D|34=24|49=CLIENT|52=20250206-16:42:14.000|56=SERVER|11=96037|38=381|40=1|54=2|55=BAC|10=181|8=FIX.4.2|9=110|35=D|34=25|49=CLIENT|52=20250206-16:42:14.000|56=SERVER|11=67047|38=776|40=2|44=114.114570219119|54=2|55=AAPL|10=010|8=FIX.4.2|9=110|35=D|34=26|49=CLIENT|52=20250206-16:42:14.000|56=SERVER|11=14800|38=615|40=2|44=148.519361236643|54=5|55=MSFT|10=038|8=FIX.4.2|9=90|35=D|34=27|49=CLIENT|52=20250206-16:42:14.000|56=SERVER|11=13956|38=612|40=1|54=5|55=MSFT|10=035|8=FIX.4.2|9=86|35=F|34=28|49=CLIENT|52=20250206-16:42:14.000|56=SERVER|11=64791|41=28896|54=1|55=BAC|10=085|8=FIX.4.2|9=86|35=F|34=29|49=CLIENT|52=20250206-16:42:14.000|56=SERVER|11=64791|41=28896|54=1|55=BAC|10=086|8=FIX.4.2|9=110|35=D|34=30|49=CLIENT|52=20250206-16:42:14.000|56=SERVER|11=24100|38=842|40=2|44=184.476681991834|54=1|55=MSFT|10=042|8=FIX.4.2|9=108|35=D|34=31|49=CLIENT|52=20250206-16:42:14.000|56=SERVER|11=9626|38=424|40=2|44=199.347964400794|54=5|55=BAC|10=155|8=FIX.4.2|9=109|35=D|34=32|49=CLIENT|52=20250206-16:42:14.000|56=SERVER|11=77272|38=740|40=2|44=152.154589089971|54=5|55=BAC|10=206|8=FIX.4.2|9=87|35=F|34=33|49=CLIENT|52=20250206-16:42:14.000|56=SERVER|11=83842|41=14800|54=2|55=AAPL|10=149|8=FIX.4.2|9=87|35=F|34=34|49=CLIENT|52=20250206-16:42:14.000|56=SERVER|11=83842|41=14800|54=2|55=AAPL|10=150|8=FIX.4.2|9=110|35=D|34=35|49=CLIENT|52=20250206-16:42:14.000|56=SERVER|11=20650|38=795|40=2|44=103.835782447255|54=1|55=AAPL|10=017|8=FIX.4.2|9=89|35=D|34=36|49=CLIENT|52=20250206-16:42:14.000|56=SERVER|11=52285|38=468|40=1|54=5|55=BAC|10=190|8=FIX.4.2|9=89|35=D|34=37|49=CLIENT|52=20250206-16:42:15.000|56=SERVER|11=82180|38=13|40=1|54=5|55=MSFT|10=243|8=FIX.4.2|9=90|35=D|34=38|49=CLIENT|52=20250206-16:42:15.000|56=SERVER|11=14482|38=113|40=1|54=2|55=MSFT|10=026|8=FIX.4.2|9=89|35=D|34=39|49=CLIENT|52=20250206-16:42:15.000|56=SERVER|11=53346|38=70|40=1|54=1|55=AAPL|10=218|8=FIX.4.2|9=90|35=D|34=40|49=CLIENT|52=20250206-16:42:15.000|56=SERVER|11=28144|38=358|40=1|54=1|55=AAPL|10=001|8=FIX.4.2|9=110|35=D|34=41|49=CLIENT|52=20250206-16:42:15.000|56=SERVER|11=23493|38=535|40=2|44=185.304723617771|54=2|55=MSFT|10=042|8=FIX.4.2|9=110|35=D|34=42|49=CLIENT|52=20250206-16:42:15.000|56=SERVER|11=55074|38=903|40=2|44=197.431915366548|54=2|55=MSFT|10=052|8=FIX.4.2|9=110|35=D|34=43|49=CLIENT|52=20250206-16:42:15.000|56=SERVER|11=58189|38=733|40=2|44=115.573517341821|54=1|55=MSFT|10=045|8=FIX.4.2|9=87|35=F|34=44|49=CLIENT|52=20250206-16:42:15.000|56=SERVER|11=49004|41=90330|54=1|55=AAPL|10=145|8=FIX.4.2|9=87|35=F|34=45|49=CLIENT|52=20250206-16:42:15.000|56=SERVER|11=49004|41=90330|54=1|55=AAPL|10=146|8=FIX.4.2|9=108|35=D|34=46|49=CLIENT|52=20250206-16:42:15.000|56=SERVER|11=6628|38=297|40=2|44=193.908663462561|54=5|55=BAC|10=162|8=FIX.4.2|9=110|35=D|34=47|49=CLIENT|52=20250206-16:42:15.000|56=SERVER|11=77279|38=158|40=2|44=114.438779818124|54=1|55=AAPL|10=037|8=FIX.4.2|9=90|35=D|34=48|49=CLIENT|52=20250206-16:42:15.000|56=SERVER|11=94614|38=990|40=1|54=5|55=MSFT|10=048|8=FIX.4.2|9=89|35=D|34=49|49=CLIENT|52=20250206-16:42:16.000|56=SERVER|11=9838|38=738|40=1|54=2|55=MSFT|10=011|8=FIX.4.2|9=110|35=D|34=50|49=CLIENT|52=20250206-16:42:16.000|56=SERVER|11=13257|38=183|40=2|44=148.583426720507|54=5|55=AAPL|10=014|8=FIX.4.2|9=90|35=D|34=51|49=CLIENT|52=20250206-16:42:16.000|56=SERVER|11=46353|38=471|40=1|54=1|55=MSFT|10=030|8=FIX.4.2|9=90|35=D|34=52|49=CLIENT|52=20250206-16:42:16.000|56=SERVER|11=28700|38=601|40=1|54=2|55=AAPL|10=251|8=FIX.4.2|9=110|35=D|34=53|49=CLIENT|52=20250206-16:42:16.000|56=SERVER|11=45523|38=875|40=2|44=133.947628950898|54=5|55=AAPL|10=046|8=FIX.4.2|9=109|35=D|34=54|49=CLIENT|52=20250206-16:42:16.000|56=SERVER|11=66667|38=412|40=2|44=140.790887048084|54=5|55=BAC|10=208|8=FIX.4.2|9=110|35=D|34=55|49=CLIENT|52=20250206-16:42:16.000|56=SERVER|11=30759|38=426|40=2|44=101.029787992338|54=2|55=MSFT|10=057|8=FIX.4.2|9=110|35=D|34=56|49=CLIENT|52=20250206-16:42:16.000|56=SERVER|11=97968|38=265|40=2|44=146.642774490038|54=1|55=AAPL|10=041|8=FIX.4.2|9=110|35=D|34=57|49=CLIENT|52=20250206-16:42:16.000|56=SERVER|11=62856|38=902|40=2|44=167.233159896052|54=1|55=MSFT|10=058|8=FIX.4.2|9=109|35=D|34=58|49=CLIENT|52=20250206-16:42:17.000|56=SERVER|11=91444|38=427|40=2|44=129.45335741809|54=1|55=AAPL|10=239|8=FIX.4.2|9=90|35=D|34=59|49=CLIENT|52=20250206-16:42:17.000|56=SERVER|11=64636|38=430|40=1|54=1|55=MSFT|10=038|8=FIX.4.2|9=86|35=F|34=60|49=CLIENT|52=20250206-16:42:17.000|56=SERVER|11=66103|41=29043|54=1|55=BAC|10=058|8=FIX.4.2|9=86|35=F|34=61|49=CLIENT|52=20250206-16:42:17.000|56=SERVER|11=66103|41=29043|54=1|55=BAC|10=059|8=FIX.4.2|9=109|35=D|34=62|49=CLIENT|52=20250206-16:42:17.000|56=SERVER|11=88288|38=464|40=2|44=101.585174500987|54=2|55=BAC|10=208|8=FIX.4.2|9=109|35=D|34=63|49=CLIENT|52=20250206-16:42:17.000|56=SERVER|11=42507|38=741|40=2|44=120.522850051424|54=2|55=BAC|10=171|8=FIX.4.2|9=90|35=D|34=64|49=CLIENT|52=20250206-16:42:17.000|56=SERVER|11=77241|38=184|40=1|54=5|55=MSFT|10=040|8=FIX.4.2|9=90|35=D|34=65|49=CLIENT|52=20250206-16:42:17.000|56=SERVER|11=44583|38=784|40=1|54=1|55=MSFT|10=046|8=FIX.4.2|9=89|35=D|34=66|49=CLIENT|52=20250206-16:42:17.000|56=SERVER|11=99257|38=962|40=1|54=2|55=BAC|10=202|8=FIX.4.2|9=110|35=D|34=67|49=CLIENT|52=20250206-16:42:17.000|56=SERVER|11=13673|38=529|40=2|44=190.888341793574|54=2|55=AAPL|10=041|8=FIX.4.2|9=89|35=D|34=68|49=CLIENT|52=20250206-16:42:17.000|56=SERVER|11=36916|38=460|40=1|54=2|55=BAC|10=190|8=FIX.4.2|9=109|35=D|34=69|49=CLIENT|52=20250206-16:42:18.000|56=SERVER|11=8487|38=737|40=2|44=105.081156257941|54=5|55=MSFT|10=021|8=FIX.4.2|9=110|35=D|34=70|49=CLIENT|52=20250206-16:42:18.000|56=SERVER|11=33109|38=554|40=2|44=122.080571585337|54=2|55=MSFT|10=038|8=FIX.4.2|9=90|35=D|34=71|49=CLIENT|52=20250206-16:42:18.000|56=SERVER|11=35717|38=198|40=1|54=5|55=MSFT|10=046|8=FIX.4.2|9=90|35=D|34=72|49=CLIENT|52=20250206-16:42:18.000|56=SERVER|11=67392|38=207|40=1|54=1|55=AAPL|10=010|8=FIX.4.2|9=89|35=D|34=73|49=CLIENT|52=20250206-16:42:18.000|56=SERVER|11=34762|38=530|40=1|54=2|55=BAC|10=182|8=FIX.4.2|9=109|35=D|34=74|49=CLIENT|52=20250206-16:42:18.000|56=SERVER|11=9685|38=259|40=2|44=113.152282574576|54=2|55=MSFT|10=018|8=FIX.4.2|9=90|35=D|34=75|49=CLIENT|52=20250206-16:42:18.000|56=SERVER|11=94240|38=845|40=1|54=1|55=AAPL|10=013|8=FIX.4.2|9=86|35=F|34=76|49=CLIENT|52=20250206-16:42:18.000|56=SERVER|11=91973|41=34762|54=5|55=BAC|10=087|8=FIX.4.2|9=86|35=F|34=77|49=CLIENT|52=20250206-16:42:18.000|56=SERVER|11=91973|41=34762|54=5|55=BAC|10=088|8=FIX.4.2|9=110|35=D|34=78|49=CLIENT|52=20250206-16:42:18.000|56=SERVER|11=32890|38=880|40=2|44=116.540492211875|54=1|55=MSFT|10=052|8=FIX.4.2|9=110|35=D|34=79|49=CLIENT|52=20250206-16:42:18.000|56=SERVER|11=91610|38=318|40=2|44=151.398444021044|54=2|55=AAPL|10=011|8=FIX.4.2|9=108|35=D|34=80|49=CLIENT|52=20250206-16:42:19.000|56=SERVER|11=88653|38=848|40=2|44=198.11547037133|54=5|55=BAC|10=158|8=FIX.4.2|9=89|35=D|34=81|49=CLIENT|52=20250206-16:42:19.000|56=SERVER|11=6466|38=871|40=1|54=2|55=AAPL|10=230|8=FIX.4.2|9=89|35=D|34=82|49=CLIENT|52=20250206-16:42:19.000|56=SERVER|11=4534|38=779|40=1|54=2|55=MSFT|10=004|8=FIX.4.2|9=90|35=D|34=83|49=CLIENT|52=20250206-16:42:19.000|56=SERVER|11=60514|38=530|40=1|54=1|55=MSFT|10=029|8=FIX.4.2|9=87|35=F|34=84|49=CLIENT|52=20250206-16:42:19.000|56=SERVER|11=76052|41=46353|54=1|55=MSFT|10=190|8=FIX.4.2|9=87|35=F|34=85|49=CLIENT|52=20250206-16:42:19.000|56=SERVER|11=76052|41=46353|54=1|55=MSFT|10=191|8=FIX.4.2|9=89|35=D|34=86|49=CLIENT|52=20250206-16:42:19.000|56=SERVER|11=43116|38=828|40=1|54=5|55=BAC|10=193|8=FIX.4.2|9=86|35=F|34=87|49=CLIENT|52=20250206-16:42:19.000|56=SERVER|11=68849|41=32890|54=5|55=BAC|10=096|8=FIX.4.2|9=86|35=F|34=88|49=CLIENT|52=20250206-16:42:19.000|56=SERVER|11=68849|41=32890|54=5|55=BAC|10=097|8=FIX.4.2|9=89|35=D|34=89|49=CLIENT|52=20250206-16:42:19.000|56=SERVER|11=2633|38=599|40=1|54=1|55=AAPL|10=236|8=FIX.4.2|9=90|35=D|34=90|49=CLIENT|52=20250206-16:42:19.000|56=SERVER|11=64379|38=339|40=1|54=2|55=MSFT|10=048|8=FIX.4.2|9=110|35=D|34=91|49=CLIENT|52=20250206-16:42:19.000|56=SERVER|11=70785|38=493|40=2|44=176.570582156229|54=1|55=AAPL|10=035|8=FIX.4.2|9=90|35=D|34=92|49=CLIENT|52=20250206-16:42:19.000|56=SERVER|11=42366|38=467|40=1|54=5|55=MSFT|10=047|8=FIX.4.2|9=89|35=D|34=93|49=CLIENT|52=20250206-16:42:20.000|56=SERVER|11=44709|38=812|40=1|54=5|55=BAC|10=185|8=FIX.4.2|9=109|35=D|34=94|49=CLIENT|52=20250206-16:42:20.000|56=SERVER|11=18487|38=189|40=2|44=194.508300232878|54=1|55=BAC|10=203|8=FIX.4.2|9=89|35=D|34=95|49=CLIENT|52=20250206-16:42:20.000|56=SERVER|11=46818|38=218|40=1|54=1|55=BAC|10=186|8=FIX.4.2|9=107|35=D|34=96|49=CLIENT|52=20250206-16:42:20.000|56=SERVER|11=98010|38=1|40=2|44=102.751233657946|54=1|55=BAC|10=081|8=FIX.4.2|9=90|35=D|34=97|49=CLIENT|52=20250206-16:42:20.000|56=SERVER|11=65895|38=454|40=1|54=5|55=AAPL|10=024|8=FIX.4.2|9=107|35=D|34=98|49=CLIENT|52=20250206-16:42:20.000|56=SERVER|11=5750|38=15|40=2|44=192.158266073728|54=5|55=BAC|10=097|8=FIX.4.2|9=89|35=D|34=99|49=CLIENT|52=20250206-16:42:20.000|56=SERVER|11=46299|38=210|40=1|54=2|55=BAC|10=186|8=FIX.4.2|9=111|35=D|34=100|49=CLIENT|52=20250206-16:42:20.000|56=SERVER|11=19975|38=677|40=2|44=193.363274210973|54=5|55=MSFT|10=101|8=FIX.4.2|9=111|35=D|34=101|49=CLIENT|52=20250206-16:42:20.000|56=SERVER|11=71601|38=463|40=2|44=174.814919549768|54=5|55=MSFT|10=102|8=FIX.4.2|9=111|35=D|34=102|49=CLIENT|52=20250206-16:42:21.000|56=SERVER|11=46892|38=812|40=2|44=156.254176442805|54=1|55=MSFT|10=089|8=FIX.4.2|9=111|35=D|34=103|49=CLIENT|52=20250206-16:42:21.000|56=SERVER|11=47568|38=304|40=2|44=121.967184353351|54=5|55=MSFT|10=090|8=FIX.4.2|9=111|35=D|34=104|49=CLIENT|52=20250206-16:42:21.000|56=SERVER|11=21231|38=911|40=2|44=196.158191596712|54=2|55=AAPL|10=055|8=FIX.4.2|9=91|35=D|34=105|49=CLIENT|52=20250206-16:42:21.000|56=SERVER|11=34592|38=942|40=1|54=2|55=MSFT|10=081|8=FIX.4.2|9=90|35=D|34=106|49=CLIENT|52=20250206-16:42:21.000|56=SERVER|11=59317|38=231|40=1|54=1|55=BAC|10=213|8=FIX.4.2|9=111|35=D|34=107|49=CLIENT|52=20250206-16:42:21.000|56=SERVER|11=89395|38=674|40=2|44=112.806323096344|54=1|55=MSFT|10=097|8=FIX.4.2|9=110|35=D|34=108|49=CLIENT|52=20250206-16:42:21.000|56=SERVER|11=13645|38=168|40=2|44=166.693535229884|54=1|55=BAC|10=245|8=FIX.4.2|9=90|35=D|34=109|49=CLIENT|52=20250206-16:42:21.000|56=SERVER|11=38819|38=19|40=1|54=2|55=MSFT|10=037|8=FIX.4.2|9=111|35=D|34=110|49=CLIENT|52=20250206-16:42:21.000|56=SERVER|11=70415|38=359|40=2|44=135.476891561396|54=2|55=MSFT|10=097|8=FIX.4.2|9=90|35=D|34=111|49=CLIENT|52=20250206-16:42:21.000|56=SERVER|11=26437|38=456|40=1|54=2|55=BAC|10=216|8=FIX.4.2|9=110|35=D|34=112|49=CLIENT|52=20250206-16:42:22.000|56=SERVER|11=59704|38=14|40=2|44=123.568815154716|54=1|55=MSFT|10=035|8=FIX.4.2|9=109|35=D|34=113|49=CLIENT|52=20250206-16:42:22.000|56=SERVER|11=7672|38=281|40=2|44=140.822026504905|54=1|55=BAC|10=172|8=FIX.4.2|9=90|35=D|34=114|49=CLIENT|52=20250206-16:42:22.000|56=SERVER|11=45110|38=11|40=1|54=2|55=MSFT|10=008|8=FIX.4.2|9=87|35=F|34=115|49=CLIENT|52=20250206-16:42:22.000|56=SERVER|11=46526|41=43589|54=2|55=BAC|10=123|8=FIX.4.2|9=87|35=F|34=116|49=CLIENT|52=20250206-16:42:22.000|56=SERVER|11=46526|41=43589|54=2|55=BAC|10=124|8=FIX.4.2|9=111|35=D|34=117|49=CLIENT|52=20250206-16:42:22.000|56=SERVER|11=75499|38=200|40=2|44=188.727433458925|54=2|55=MSFT|10=109|8=FIX.4.2|9=91|35=D|34=118|49=CLIENT|52=20250206-16:42:22.000|56=SERVER|11=93417|38=164|40=1|54=2|55=AAPL|10=055|8=FIX.4.2|9=110|35=D|34=119|49=CLIENT|52=20250206-16:42:22.000|56=SERVER|11=53985|38=84|40=2|44=168.966916115908|54=5|55=AAPL|10=043|8=FIX.4.2|9=111|35=D|34=120|49=CLIENT|52=20250206-16:42:22.000|56=SERVER|11=27008|38=944|40=2|44=124.873628027056|54=5|55=AAPL|10=061|8=FIX.4.2|9=110|35=D|34=121|49=CLIENT|52=20250206-16:42:22.000|56=SERVER|11=70002|38=935|40=2|44=190.96222193388|54=5|55=AAPL|10=007|8=FIX.4.2|9=91|35=D|34=122|49=CLIENT|52=20250206-16:42:22.000|56=SERVER|11=76411|38=446|40=1|54=2|55=AAPL|10=048|8=FIX.4.2|9=111|35=D|34=123|49=CLIENT|52=20250206-16:42:23.000|56=SERVER|11=60867|38=432|40=2|44=197.278793464855|54=1|55=MSFT|10=115|8=FIX.4.2|9=109|35=D|34=124|49=CLIENT|52=20250206-16:42:23.000|56=SERVER|11=8183|38=705|40=2|44=128.721291210821|54=5|55=BAC|10=177|8=FIX.4.2|9=111|35=D|34=125|49=CLIENT|52=20250206-16:42:23.000|56=SERVER|11=83549|38=876|40=2|44=139.899155983439|54=1|55=AAPL|10=104|8=FIX.4.2|9=89|35=D|34=126|49=CLIENT|52=20250206-16:42:23.000|56=SERVER|11=71570|38=87|40=1|54=2|55=BAC|10=182|8=FIX.4.2|9=111|35=D|34=127|49=CLIENT|52=20250206-16:42:23.000|56=SERVER|11=38478|38=660|40=2|44=147.463742149989|54=2|55=AAPL|10=091|8=FIX.4.2|9=90|35=D|34=128|49=CLIENT|52=20250206-16:42:23.000|56=SERVER|11=51980|38=94|40=1|54=2|55=MSFT|10=037|8=FIX.4.2|9=109|35=D|34=129|49=CLIENT|52=20250206-16:42:23.000|56=SERVER|11=47346|38=302|40=2|44=120.23293548945|54=5|55=BAC|10=189|8=FIX.4.2|9=111|35=D|34=130|49=CLIENT|52=20250206-16:42:23.000|56=SERVER|11=16600|38=743|40=2|44=137.605229321867|54=5|55=AAPL|10=057|8=FIX.4.2|9=110|35=D|34=131|49=CLIENT|52=20250206-16:42:23.000|56=SERVER|11=33943|38=631|40=2|44=144.125480536212|54=1|55=BAC|10=212|8=FIX.4.2|9=111|35=D|34=132|49=CLIENT|52=20250206-16:42:24.000|56=SERVER|11=15721|38=601|40=2|44=175.407979599242|54=2|55=MSFT|10=099|8=FIX.4.2|9=88|35=D|34=133|49=CLIENT|52=20250206-16:42:24.000|56=SERVER|11=551|38=656|40=1|54=2|55=BAC|10=125|8=FIX.4.2|9=111|35=D|34=134|49=CLIENT|52=20250206-16:42:24.000|56=SERVER|11=70117|38=622|40=2|44=191.732144343168|54=5|55=MSFT|10=084|8=FIX.4.2|9=90|35=D|34=135|49=CLIENT|52=20250206-16:42:24.000|56=SERVER|11=66317|38=43|40=1|54=1|55=AAPL|10=001|8=FIX.4.2|9=90|35=D|34=136|49=CLIENT|52=20250206-16:42:24.000|56=SERVER|11=10119|38=747|40=1|54=1|55=BAC|10=218|8=FIX.4.2|9=91|35=D|34=137|49=CLIENT|52=20250206-16:42:24.000|56=SERVER|11=89295|38=464|40=1|54=2|55=AAPL|10=070|8=FIX.4.2|9=90|35=D|34=138|49=CLIENT|52=20250206-16:42:24.000|56=SERVER|11=64632|38=937|40=1|54=5|55=BAC|10=234|8=FIX.4.2|9=110|35=D|34=139|49=CLIENT|52=20250206-16:42:24.000|56=SERVER|11=6276|38=352|40=2|44=156.691228204036|54=2|55=MSFT|10=040|8=FIX.4.2|9=110|35=D|34=140|49=CLIENT|52=20250206-16:42:24.000|56=SERVER|11=69597|38=196|40=2|44=182.869470058988|54=2|55=BAC|10=013|8=FIX.4.2|9=87|35=F|34=141|49=CLIENT|52=20250206-16:42:24.000|56=SERVER|11=8167|41=77241|54=5|55=AAPL|10=158|8=FIX.4.2|9=87|35=F|34=142|49=CLIENT|52=20250206-16:42:24.000|56=SERVER|11=8167|41=77241|54=5|55=AAPL|10=159|8=FIX.4.2|9=110|35=D|34=143|49=CLIENT|52=20250206-16:42:25.000|56=SERVER|11=44699|38=366|40=2|44=177.015291134719|54=1|55=BAC|10=242|8=FIX.4.2|9=91|35=D|34=144|49=CLIENT|52=20250206-16:42:25.000|56=SERVER|11=27773|38=444|40=1|54=5|55=AAPL|10=063|8=FIX.4.2|9=90|35=D|34=145|49=CLIENT|52=20250206-16:42:25.000|56=SERVER|11=4334|38=711|40=1|54=1|55=AAPL|10=252|8=FIX.4.2|9=88|35=F|34=146|49=CLIENT|52=20250206-16:42:25.000|56=SERVER|11=69971|41=13673|54=2|55=MSFT|10=247|8=FIX.4.2|9=88|35=F|34=147|49=CLIENT|52=20250206-16:42:25.000|56=SERVER|11=69971|41=13673|54=2|55=MSFT|10=248|8=FIX.4.2|9=110|35=D|34=148|49=CLIENT|52=20250206-16:42:25.000|56=SERVER|11=58307|38=192|40=2|44=167.106261894269|54=5|55=BAC|10=249|8=FIX.4.2|9=90|35=D|34=149|49=CLIENT|52=20250206-16:42:25.000|56=SERVER|11=75552|38=668|40=1|54=5|55=BAC|10=241|8=FIX.4.2|9=110|35=D|34=150|49=CLIENT|52=20250206-16:42:25.000|56=SERVER|11=31915|38=76|40=2|44=145.146347284282|54=5|55=AAPL|10=016|8=FIX.4.2|9=90|35=D|34=151|49=CLIENT|52=20250206-16:42:25.000|56=SERVER|11=44501|38=122|40=1|54=2|55=BAC|10=206|8=FIX.4.2|9=90|35=D|34=152|49=CLIENT|52=20250206-16:42:25.000|56=SERVER|11=69991|38=26|40=1|54=5|55=MSFT|10=045|8=FIX.4.2|9=109|35=D|34=153|49=CLIENT|52=20250206-16:42:25.000|56=SERVER|11=82204|38=56|40=2|44=188.096986447211|54=5|55=BAC|10=203|8=FIX.4.2|9=110|35=D|34=154|49=CLIENT|52=20250206-16:42:26.000|56=SERVER|11=41224|38=272|40=2|44=167.743867193717|54=5|55=BAC|10=245|8=FIX.4.2|9=90|35=D|34=155|49=CLIENT|52=20250206-16:42:26.000|56=SERVER|11=17558|38=43|40=1|54=5|55=AAPL|10=012|8=FIX.4.2|9=90|35=D|34=156|49=CLIENT|52=20250206-16:42:26.000|56=SERVER|11=15590|38=886|40=1|54=1|55=BAC|10=234|8=FIX.4.2|9=111|35=D|34=157|49=CLIENT|52=20250206-16:42:26.000|56=SERVER|11=71215|38=282|40=2|44=154.752082279419|54=2|55=MSFT|10=099|8=FIX.4.2|9=111|35=D|34=158|49=CLIENT|52=20250206-16:42:26.000|56=SERVER|11=59289|38=821|40=2|44=114.729574854997|54=5|55=AAPL|10=107|8=FIX.4.2|9=110|35=D|34=159|49=CLIENT|52=20250206-16:42:26.000|56=SERVER|11=75469|38=913|40=2|44=128.932822614282|54=5|55=BAC|10=253|8=FIX.4.2|9=91|35=D|34=160|49=CLIENT|52=20250206-16:42:26.000|56=SERVER|11=17276|38=797|40=1|54=5|55=MSFT|10=098|8=FIX.4.2|9=89|35=D|34=161|49=CLIENT|52=20250206-16:42:26.000|56=SERVER|11=961|38=967|40=1|54=5|55=AAPL|10=230|8=FIX.4.2|9=111|35=D|34=162|49=CLIENT|52=20250206-16:42:26.000|56=SERVER|11=86613|38=297|40=2|44=176.505600142893|54=5|55=MSFT|10=103|8=FIX.4.2|9=110|35=D|34=163|49=CLIENT|52=20250206-16:42:27.000|56=SERVER|11=58886|38=909|40=2|44=134.317405681947|54=2|55=BAC|10=002|8=FIX.4.2|9=91|35=D|34=164|49=CLIENT|52=20250206-16:42:27.000|56=SERVER|11=77808|38=648|40=1|54=5|55=AAPL|10=077|8=FIX.4.2|9=88|35=F|34=165|49=CLIENT|52=20250206-16:42:27.000|56=SERVER|11=75345|41=69991|54=1|55=AAPL|10=227|8=FIX.4.2|9=88|35=F|34=166|49=CLIENT|52=20250206-16:42:27.000|56=SERVER|11=75345|41=69991|54=1|55=AAPL|10=228|8=FIX.4.2|9=110|35=D|34=167|49=CLIENT|52=20250206-16:42:27.000|56=SERVER|11=51864|38=62|40=2|44=186.651474264979|54=1|55=AAPL|10=040|8=FIX.4.2|9=91|35=D|34=168|49=CLIENT|52=20250206-16:42:27.000|56=SERVER|11=32756|38=310|40=1|54=2|55=AAPL|10=057|8=FIX.4.2|9=111|35=D|34=169|49=CLIENT|52=20250206-16:42:27.000|56=SERVER|11=43850|38=315|40=2|44=185.334514166468|54=2|55=MSFT|10=103|8=FIX.4.2|9=110|35=D|34=170|49=CLIENT|52=20250206-16:42:27.000|56=SERVER|11=29556|38=924|40=2|44=104.211240301147|54=1|55=BAC|10=212|8=FIX.4.2|9=91|35=D|34=171|49=CLIENT|52=20250206-16:42:27.000|56=SERVER|11=95699|38=100|40=1|54=2|55=MSFT|10=091|8=FIX.4.2|9=91|35=D|34=172|49=CLIENT|52=20250206-16:42:27.000|56=SERVER|11=55914|38=955|40=1|54=2|55=AAPL|10=068|8=FIX.4.2|9=111|35=D|34=173|49=CLIENT|52=20250206-16:42:27.000|56=SERVER|11=98165|38=531|40=2|44=173.299017571147|54=2|55=AAPL|10=078|8=FIX.4.2|9=91|35=D|34=174|49=CLIENT|52=20250206-16:42:27.000|56=SERVER|11=21848|38=802|40=1|54=5|55=MSFT|10=091|8=FIX.4.2|9=111|35=D|34=175|49=CLIENT|52=20250206-16:42:28.000|56=SERVER|11=63089|38=428|40=2|44=123.498072080613|54=2|55=AAPL|10=073|8=FIX.4.2|9=111|35=D|34=176|49=CLIENT|52=20250206-16:42:28.000|56=SERVER|11=30785|38=113|40=2|44=194.039848990632|54=1|55=MSFT|10=110|8=FIX.4.2|9=91|35=D|34=177|49=CLIENT|52=20250206-16:42:28.000|56=SERVER|11=70005|38=439|40=1|54=1|55=AAPL|10=058|8=FIX.4.2|9=110|35=D|34=178|49=CLIENT|52=20250206-16:42:28.000|56=SERVER|11=31418|38=65|40=2|44=127.316494131545|54=2|55=MSFT|10=045|8=FIX.4.2|9=91|35=D|34=179|49=CLIENT|52=20250206-16:42:28.000|56=SERVER|11=46751|38=834|40=1|54=5|55=MSFT|10=102|8=FIX.4.2|9=110|35=D|34=180|49=CLIENT|52=20250206-16:42:28.000|56=SERVER|11=25588|38=866|40=2|44=190.00076167533|54=1|55=AAPL|10=021|8=FIX.4.2|9=91|35=D|34=181|49=CLIENT|52=20250206-16:42:28.000|56=SERVER|11=87227|38=901|40=1|54=2|55=MSFT|10=090|8=FIX.4.2|9=88|35=F|34=182|49=CLIENT|52=20250206-16:42:28.000|56=SERVER|11=27507|41=21848|54=1|55=AAPL|10=213|8=FIX.4.2|9=88|35=F|34=183|49=CLIENT|52=20250206-16:42:28.000|56=SERVER|11=27507|41=21848|54=1|55=AAPL|10=214|8=FIX.4.2|9=90|35=D|34=184|49=CLIENT|52=20250206-16:42:28.000|56=SERVER|11=78065|38=779|40=1|54=1|55=BAC|10=244|8=FIX.4.2|9=111|35=D|34=185|49=CLIENT|52=20250206-16:42:28.000|56=SERVER|11=46249|38=562|40=2|44=186.451862191749|54=2|55=AAPL|10=090|8=FIX.4.2|9=91|35=D|34=186|49=CLIENT|52=20250206-16:42:29.000|56=SERVER|11=23432|38=989|40=1|54=5|55=MSFT|10=103|8=FIX.4.2|9=109|35=D|34=187|49=CLIENT|52=20250206-16:42:29.000|56=SERVER|11=279|38=394|40=2|44=146.752304257848|54=1|55=AAPL|10=249|8=FIX.4.2|9=87|35=F|34=188|49=CLIENT|52=20250206-16:42:29.000|56=SERVER|11=70402|41=98010|54=5|55=BAC|10=122|8=FIX.4.2|9=87|35=F|34=189|49=CLIENT|52=20250206-16:42:29.000|56=SERVER|11=70402|41=98010|54=5|55=BAC|10=123|8=FIX.4.2|9=90|35=D|34=190|49=CLIENT|52=20250206-16:42:29.000|56=SERVER|11=16899|38=755|40=1|54=2|55=BAC|10=244|8=FIX.4.2|9=91|35=D|34=191|49=CLIENT|52=20250206-16:42:29.000|56=SERVER|11=69376|38=316|40=1|54=1|55=AAPL|10=068|8=FIX.4.2|9=91|35=D|34=192|49=CLIENT|52=20250206-16:42:29.000|56=SERVER|11=48810|38=585|40=1|54=2|55=MSFT|10=096|8=FIX.4.2|9=109|35=D|34=193|49=CLIENT|52=20250206-16:42:29.000|56=SERVER|11=88063|38=21|40=2|44=112.083037367279|54=2|55=BAC|10=194|8=FIX.4.2|9=91|35=D|34=194|49=CLIENT|52=20250206-16:42:29.000|56=SERVER|11=70012|38=234|40=1|54=1|55=AAPL|10=049|8=FIX.4.2|9=111|35=D|34=195|49=CLIENT|52=20250206-16:42:29.000|56=SERVER|11=11830|38=487|40=2|44=146.799971279605|54=1|55=AAPL|10=095|8=FIX.4.2|9=111|35=D|34=196|49=CLIENT|52=20250206-16:42:29.000|56=SERVER|11=63153|38=602|40=2|44=172.729842733693|54=1|55=AAPL|10=081|8=FIX.4.2|9=111|35=D|34=197|49=CLIENT|52=20250206-16:42:30.000|56=SERVER|11=73586|38=373|40=2|44=199.770271068629|54=5|55=MSFT|10=123|8=FIX.4.2|9=110|35=D|34=198|49=CLIENT|52=20250206-16:42:30.000|56=SERVER|11=81630|38=669|40=2|44=117.49547108164|54=2|55=MSFT|10=053|8=FIX.4.2|9=90|35=D|34=199|49=CLIENT|52=20250206-16:42:30.000|56=SERVER|11=52011|38=521|40=1|54=5|55=BAC|10=215|8=FIX.4.2|9=111|35=D|34=200|49=CLIENT|52=20250206-16:42:30.000|56=SERVER|11=47885|38=904|40=2|44=157.328992069815|54=2|55=AAPL|10=081|8=FIX.4.2|9=109|35=D|34=201|49=CLIENT|52=20250206-16:42:30.000|56=SERVER|11=3028|38=811|40=2|44=111.267137853985|54=1|55=BAC|10=178|8=FIX.4.2|9=89|35=D|34=202|49=CLIENT|52=20250206-16:42:30.000|56=SERVER|11=1031|38=28|40=1|54=2|55=MSFT|10=223|8=FIX.4.2|9=111|35=D|34=203|49=CLIENT|52=20250206-16:42:30.000|56=SERVER|11=91553|38=101|40=2|44=172.525276095681|54=1|55=AAPL|10=054|8=FIX.4.2|9=88|35=F|34=204|49=CLIENT|52=20250206-16:42:30.000|56=SERVER|11=84912|41=63153|54=1|55=MSFT|10=227|8=FIX.4.2|9=88|35=F|34=205|49=CLIENT|52=20250206-16:42:30.000|56=SERVER|11=84912|41=63153|54=1|55=MSFT|10=228|8=FIX.4.2|9=91|35=D|34=206|49=CLIENT|52=20250206-16:42:30.000|56=SERVER|11=17958|38=902|40=1|54=2|55=AAPL|10=058|8=FIX.4.2|9=110|35=D|34=207|49=CLIENT|52=20250206-16:42:30.000|56=SERVER|11=75953|38=476|40=2|44=156.496529704834|54=1|55=BAC|10=253|8=FIX.4.2|9=91|35=D|34=208|49=CLIENT|52=20250206-16:42:31.000|56=SERVER|11=11224|38=593|40=1|54=1|55=MSFT|10=074|8=FIX.4.2|9=89|35=D|34=209|49=CLIENT|52=20250206-16:42:31.000|56=SERVER|11=48196|38=9|40=1|54=2|55=MSFT|10=253|8=FIX.4.2|9=91|35=D|34=210|49=CLIENT|52=20250206-16:42:31.000|56=SERVER|11=96133|38=479|40=1|54=5|55=MSFT|10=086|8=FIX.4.2|9=90|35=D|34=211|49=CLIENT|52=20250206-16:42:31.000|56=SERVER|11=18421|38=663|40=1|54=1|55=BAC|10=211|8=FIX.4.2|9=91|35=D|34=212|49=CLIENT|52=20250206-16:42:31.000|56=SERVER|11=91347|38=463|40=1|54=2|55=MSFT|10=080|8=FIX.4.2|9=89|35=D|34=213|49=CLIENT|52=20250206-16:42:31.000|56=SERVER|11=8729|38=621|40=1|54=2|55=BAC|10=178|8=FIX.4.2|9=109|35=D|34=214|49=CLIENT|52=20250206-16:42:31.000|56=SERVER|11=17048|38=7|40=2|44=149.700657176068|54=5|55=AAPL|10=231|8=FIX.4.2|9=108|35=D|34=215|49=CLIENT|52=20250206-16:42:31.000|56=SERVER|11=574|38=397|40=2|44=115.261667954875|54=2|55=BAC|10=154|8=FIX.4.2|9=90|35=D|34=216|49=CLIENT|52=20250206-16:42:31.000|56=SERVER|11=58045|38=799|40=1|54=1|55=BAC|10=232|8=FIX.4.2|9=110|35=D|34=217|49=CLIENT|52=20250206-16:42:32.000|56=SERVER|11=4731|38=623|40=2|44=122.242409097025|54=2|55=AAPL|10=253|8=FIX.4.2|9=90|35=D|34=218|49=CLIENT|52=20250206-16:42:32.000|56=SERVER|11=40683|38=339|40=1|54=2|55=BAC|10=225|8=FIX.4.2|9=91|35=D|34=219|49=CLIENT|52=20250206-16:42:32.000|56=SERVER|11=85718|38=651|40=1|54=5|55=MSFT|10=095|8=FIX.4.2|9=111|35=D|34=220|49=CLIENT|52=20250206-16:42:32.000|56=SERVER|11=42709|38=598|40=2|44=117.186534441311|54=1|55=AAPL|10=058|8=FIX.4.2|9=110|35=D|34=221|49=CLIENT|52=20250206-16:42:32.000|56=SERVER|11=42726|38=80|40=2|44=161.233537934821|54=2|55=MSFT|10=032|8=FIX.4.2|9=110|35=D|34=222|49=CLIENT|52=20250206-16:42:32.000|56=SERVER|11=49183|38=505|40=2|44=134.869429600938|54=1|55=BAC|10=240|8=FIX.4.2|9=91|35=D|34=223|49=CLIENT|52=20250206-16:42:32.000|56=SERVER|11=15521|38=943|40=1|54=5|55=AAPL|10=051|8=FIX.4.2|9=90|35=D|34=224|49=CLIENT|52=20250206-16:42:32.000|56=SERVER|11=43766|38=964|40=1|54=1|55=BAC|10=230|8=FIX.4.2|9=111|35=D|34=225|49=CLIENT|52=20250206-16:42:32.000|56=SERVER|11=55553|38=561|40=2|44=101.911723999413|54=1|55=AAPL|10=064|8=FIX.4.2|9=109|35=D|34=226|49=CLIENT|52=20250206-16:42:32.000|56=SERVER|11=26283|38=137|40=2|44=118.98430619065|54=2|55=BAC|10=191|8=FIX.4.2|9=91|35=D|34=227|49=CLIENT|52=20250206-16:42:33.000|56=SERVER|11=47285|38=491|40=1|54=5|55=MSFT|10=094|8=FIX.4.2|9=109|35=D|34=228|49=CLIENT|52=20250206-16:42:33.000|56=SERVER|11=82215|38=787|40=2|44=101.73440391367|54=2|55=BAC|10=190|8=FIX.4.2|9=89|35=D|34=229|49=CLIENT|52=20250206-16:42:33.000|56=SERVER|11=7129|38=255|40=1|54=2|55=BAC|10=183|8=FIX.4.2|9=91|35=D|34=230|49=CLIENT|52=20250206-16:42:33.000|56=SERVER|11=73034|38=285|40=1|54=5|55=MSFT|10=080|8=FIX.4.2|9=91|35=D|34=231|49=CLIENT|52=20250206-16:42:33.000|56=SERVER|11=32214|38=648|40=1|54=1|55=AAPL|10=047|8=FIX.4.2|9=90|35=D|34=232|49=CLIENT|52=20250206-16:42:33.000|56=SERVER|11=88960|38=85|40=1|54=2|55=AAPL|10=014|8=FIX.4.2|9=90|35=D|34=233|49=CLIENT|52=20250206-16:42:33.000|56=SERVER|11=56392|38=246|40=1|54=1|55=BAC|10=223|8=FIX.4.2|9=88|35=F|34=234|49=CLIENT|52=20250206-16:42:33.000|56=SERVER|11=55941|41=26283|54=1|55=AAPL|10=208|8=FIX.4.2|9=88|35=F|34=235|49=CLIENT|52=20250206-16:42:33.000|56=SERVER|11=55941|41=26283|54=1|55=AAPL|10=209|8=FIX.4.2|9=91|35=D|34=236|49=CLIENT|52=20250206-16:42:33.000|56=SERVER|11=20161|38=234|40=1|54=2|55=AAPL|10=042|8=FIX.4.2|9=91|35=D|34=237|49=CLIENT|52=20250206-16:42:33.000|56=SERVER|11=21569|38=411|40=1|54=1|55=AAPL|10=052|8=FIX.4.2|9=109|35=D|34=238|49=CLIENT|52=20250206-16:42:34.000|56=SERVER|11=61733|38=291|40=2|44=132.89279929978|54=2|55=BAC|10=220|8=FIX.4.2|9=91|35=D|34=239|49=CLIENT|52=20250206-16:42:34.000|56=SERVER|11=10750|38=553|40=1|54=5|55=AAPL|10=056|8=FIX.4.2|9=91|35=D|34=240|49=CLIENT|52=20250206-16:42:34.000|56=SERVER|11=31881|38=322|40=1|54=1|55=MSFT|10=074|8=FIX.4.2|9=90|35=D|34=241|49=CLIENT|52=20250206-16:42:34.000|56=SERVER|11=56212|38=121|40=1|54=5|55=BAC|10=210|8=FIX.4.2|9=90|35=D|34=242|49=CLIENT|52=20250206-16:42:34.000|56=SERVER|11=50634|38=123|40=1|54=2|55=BAC|10=212|8=FIX.4.2|9=91|35=D|34=243|49=CLIENT|52=20250206-16:42:34.000|56=SERVER|11=61296|38=353|40=1|54=1|55=MSFT|10=084|8=FIX.4.2|9=88|35=F|34=244|49=CLIENT|52=20250206-16:42:34.000|56=SERVER|11=96253|41=40683|54=1|55=MSFT|10=239|8=FIX.4.2|9=88|35=F|34=245|49=CLIENT|52=20250206-16:42:34.000|56=SERVER|11=96253|41=40683|54=1|55=MSFT|10=240|8=FIX.4.2|9=91|35=D|34=246|49=CLIENT|52=20250206-16:42:34.000|56=SERVER|11=56564|38=484|40=1|54=5|55=AAPL|10=070|8=FIX.4.2|9=88|35=F|34=247|49=CLIENT|52=20250206-16:42:34.000|56=SERVER|11=89029|41=75499|54=2|55=AAPL|10=231|8=FIX.4.2|9=88|35=F|34=248|49=CLIENT|52=20250206-16:42:34.000|56=SERVER|11=89029|41=75499|54=2|55=AAPL|10=232|8=FIX.4.2|9=91|35=D|34=249|49=CLIENT|52=20250206-16:42:34.000|56=SERVER|11=43035|38=569|40=1|54=1|55=AAPL|10=062|8=FIX.4.2|9=91|35=D|34=250|49=CLIENT|52=20250206-16:42:34.000|56=SERVER|11=71318|38=551|40=1|54=1|55=MSFT|10=078|8=FIX.4.2|9=89|35=D|34=251|49=CLIENT|52=20250206-16:42:35.000|56=SERVER|11=65368|38=77|40=1|54=5|55=BAC|10=194|8=FIX.4.2|9=90|35=D|34=252|49=CLIENT|52=20250206-16:42:35.000|56=SERVER|11=14126|38=62|40=1|54=2|55=AAPL|10=252|8=FIX.4.2|9=87|35=F|34=253|49=CLIENT|52=20250206-16:42:35.000|56=SERVER|11=13637|41=25588|54=1|55=BAC|10=125|8=FIX.4.2|9=87|35=F|34=254|49=CLIENT|52=20250206-16:42:35.000|56=SERVER|11=13637|41=25588|54=1|55=BAC|10=126|8=FIX.4.2|9=110|35=D|34=255|49=CLIENT|52=20250206-16:42:35.000|56=SERVER|11=31438|38=75|40=2|44=101.017400203719|54=2|55=AAPL|10=250|8=FIX.4.2|9=90|35=D|34=256|49=CLIENT|52=20250206-16:42:35.000|56=SERVER|11=2478|38=513|40=1|54=2|55=MSFT|10=036|8=FIX.4.2|9=111|35=D|34=257|49=CLIENT|52=20250206-16:42:35.000|56=SERVER|11=31882|38=741|40=2|44=118.249104767361|54=2|55=AAPL|10=072|8=FIX.4.2|9=91|35=D|34=258|49=CLIENT|52=20250206-16:42:35.000|56=SERVER|11=48993|38=694|40=1|54=1|55=AAPL|10=080|8=FIX.4.2|9=110|35=D|34=259|49=CLIENT|52=20250206-16:42:35.000|56=SERVER|11=42446|38=331|40=2|44=181.39001515295|54=5|55=AAPL|10=011|8=FIX.4.2|9=90|35=D|34=260|49=CLIENT|52=20250206-16:42:35.000|56=SERVER|11=63437|38=915|40=1|54=2|55=BAC|10=227|8=FIX.4.2|9=111|35=D|34=261|49=CLIENT|52=20250206-16:42:35.000|56=SERVER|11=92982|38=786|40=2|44=114.481115900521|54=1|55=MSFT|10=094|8=FIX.4.2|9=111|35=D|34=262|49=CLIENT|52=20250206-16:42:36.000|56=SERVER|11=91651|38=501|40=2|44=180.029076719635|54=1|55=MSFT|10=094|8=FIX.4.2|9=110|35=D|34=263|49=CLIENT|52=20250206-16:42:36.000|56=SERVER|11=25332|38=323|40=2|44=114.005704271962|54=5|55=BAC|10=218|8=FIX.4.2|9=90|35=D|34=264|49=CLIENT|52=20250206-16:42:36.000|56=SERVER|11=40181|38=518|40=1|54=5|55=BAC|10=225|8=FIX.4.2|9=91|35=D|34=265|49=CLIENT|52=20250206-16:42:36.000|56=SERVER|11=42603|38=544|40=1|54=5|55=MSFT|10=087|8=FIX.4.2|9=88|35=F|34=266|49=CLIENT|52=20250206-16:42:36.000|56=SERVER|11=18894|41=91651|54=2|55=MSFT|10=252|8=FIX.4.2|9=88|35=F|34=267|49=CLIENT|52=20250206-16:42:36.000|56=SERVER|11=18894|41=91651|54=2|55=MSFT|10=253|8=FIX.4.2|9=90|35=D|34=268|49=CLIENT|52=20250206-16:42:36.000|56=SERVER|11=6447|38=171|40=1|54=2|55=AAPL|10=012|8=FIX.4.2|9=91|35=D|34=269|49=CLIENT|52=20250206-16:42:36.000|56=SERVER|11=79457|38=731|40=1|54=1|55=MSFT|10=102|8=FIX.4.2|9=91|35=D|34=270|49=CLIENT|52=20250206-16:42:36.000|56=SERVER|11=18362|38=598|40=1|54=5|55=AAPL|10=069|8=FIX.4.2|9=110|35=D|34=271|49=CLIENT|52=20250206-16:42:36.000|56=SERVER|11=51980|38=384|40=2|44=115.448603049811|54=2|55=BAC|10=235|8=FIX.4.2|9=90|35=D|34=272|49=CLIENT|52=20250206-16:42:36.000|56=SERVER|11=13458|38=940|40=1|54=2|55=BAC|10=227|8=FIX.4.2|9=111|35=D|34=273|49=CLIENT|52=20250206-16:42:37.000|56=SERVER|11=20210|38=223|40=2|44=112.678218030674|54=1|55=MSFT|10=073|8=FIX.4.2|9=111|35=D|34=274|49=CLIENT|52=20250206-16:42:37.000|56=SERVER|11=74225|38=229|40=2|44=188.118111564607|54=2|55=AAPL|10=070|8=FIX.4.2|9=91|35=D|34=275|49=CLIENT|52=20250206-16:42:37.000|56=SERVER|11=74957|38=664|40=1|54=1|55=AAPL|10=077|8=FIX.4.2|9=91|35=D|34=276|49=CLIENT|52=20250206-16:42:37.000|56=SERVER|11=92661|38=755|40=1|54=1|55=AAPL|10=071|8=FIX.4.2|9=86|35=F|34=277|49=CLIENT|52=20250206-16:42:37.000|56=SERVER|11=4624|41=9685|54=5|55=MSFT|10=152|8=FIX.4.2|9=86|35=F|34=278|49=CLIENT|52=20250206-16:42:37.000|56=SERVER|11=4624|41=9685|54=5|55=MSFT|10=153|8=FIX.4.2|9=90|35=D|34=279|49=CLIENT|52=20250206-16:42:37.000|56=SERVER|11=90132|38=898|40=1|54=2|55=BAC|10=241|8=FIX.4.2|9=91|35=D|34=280|49=CLIENT|52=20250206-16:42:37.000|56=SERVER|11=21190|38=900|40=1|54=2|55=MSFT|10=076|8=FIX.4.2|9=88|35=F|34=281|49=CLIENT|52=20250206-16:42:37.000|56=SERVER|11=55334|41=30759|54=1|55=MSFT|10=241|8=FIX.4.2|9=88|35=F|34=282|49=CLIENT|52=20250206-16:42:37.000|56=SERVER|11=55334|41=30759|54=1|55=MSFT|10=242|8=FIX.4.2|9=91|35=D|34=283|49=CLIENT|52=20250206-16:42:37.000|56=SERVER|11=13763|38=299|40=1|54=1|55=MSFT|10=096|8=FIX.4.2|9=111|35=D|34=284|49=CLIENT|52=20250206-16:42:37.000|56=SERVER|11=33205|38=318|40=2|44=199.402672895767|54=1|55=MSFT|10=114|8=FIX.4.2|9=111|35=D|34=285|49=CLIENT|52=20250206-16:42:37.000|56=SERVER|11=36690|38=104|40=2|44=147.684091309511|54=2|55=MSFT|10=097|8=FIX.4.2|9=111|35=D|34=286|49=CLIENT|52=20250206-16:42:38.000|56=SERVER|11=50138|38=581|40=2|44=187.211638203926|54=1|55=MSFT|10=100|8=FIX.4.2|9=110|35=D|34=287|49=CLIENT|52=20250206-16:42:38.000|56=SERVER|11=43249|38=41|40=2|44=168.383460163259|54=2|55=MSFT|10=055|8=FIX.4.2|9=90|35=D|34=288|49=CLIENT|52=20250206-16:42:38.000|56=SERVER|11=34094|38=285|40=1|54=5|55=BAC|10=240|8=FIX.4.2|9=90|35=D|34=289|49=CLIENT|52=20250206-16:42:38.000|56=SERVER|11=69632|38=976|40=1|54=1|55=BAC|10=250|8=FIX.4.2|9=110|35=D|34=290|49=CLIENT|52=20250206-16:42:38.000|56=SERVER|11=92417|38=267|40=2|44=153.208021953455|54=5|55=BAC|10=239|8=FIX.4.2|9=111|35=D|34=291|49=CLIENT|52=20250206-16:42:38.000|56=SERVER|11=43651|38=725|40=2|44=169.757613557488|54=2|55=AAPL|10=094|8=FIX.4.2|9=90|35=D|34=292|49=CLIENT|52=20250206-16:42:38.000|56=SERVER|11=31238|38=483|40=1|54=1|55=BAC|10=228|8=FIX.4.2|9=91|35=D|34=293|49=CLIENT|52=20250206-16:42:38.000|56=SERVER|11=93827|38=105|40=1|54=1|55=AAPL|10=065|8=FIX.4.2|9=110|35=D|34=294|49=CLIENT|52=20250206-16:42:38.000|56=SERVER|11=9623|38=893|40=2|44=109.026497479498|54=1|55=AAPL|10=051|8=FIX.4.2|9=110|35=D|34=295|49=CLIENT|52=20250206-16:42:38.000|56=SERVER|11=37922|38=986|40=2|44=157.864156478214|54=1|55=BAC|10=008|8=FIX.4.2|9=90|35=D|34=296|49=CLIENT|52=20250206-16:42:39.000|56=SERVER|11=9205|38=603|40=1|54=2|55=AAPL|10=011|8=FIX.4.2|9=91|35=D|34=297|49=CLIENT|52=20250206-16:42:39.000|56=SERVER|11=34190|38=700|40=1|54=2|55=AAPL|10=060|8=FIX.4.2|9=90|35=D|34=298|49=CLIENT|52=20250206-16:42:39.000|56=SERVER|11=19689|38=50|40=1|54=1|55=MSFT|10=053|8=FIX.4.2|9=111|35=D|34=299|49=CLIENT|52=20250206-16:42:39.000|56=SERVER|11=74912|38=200|40=2|44=149.453527425638|54=5|55=AAPL|10=084|8=FIX.4.2|9=90|35=D|34=300|49=CLIENT|52=20250206-16:42:39.000|56=SERVER|11=21180|38=803|40=1|54=1|55=BAC|10=210|8=FIX.4.2|9=91|35=D|34=301|49=CLIENT|52=20250206-16:42:39.000|56=SERVER|11=15100|38=858|40=1|54=5|55=MSFT|10=081|8=FIX.4.2|9=90|35=D|34=302|49=CLIENT|52=20250206-16:42:39.000|56=SERVER|11=8561|38=210|40=1|54=2|55=MSFT|10=025|8=FIX.4.2|9=111|35=D|34=303|49=CLIENT|52=20250206-16:42:39.000|56=SERVER|11=46772|38=874|40=2|44=161.546458802823|54=2|55=MSFT|10=110|8=FIX.4.2|9=111|35=D|34=304|49=CLIENT|52=20250206-16:42:39.000|56=SERVER|11=95288|38=204|40=2|44=132.237180125202|54=1|55=MSFT|10=079|8=FIX.4.2|9=90|35=D|34=305|49=CLIENT|52=20250206-16:42:40.000|56=SERVER|11=7750|38=128|40=1|54=5|55=MSFT|10=030|8=FIX.4.2|9=110|35=D|34=306|49=CLIENT|52=20250206-16:42:40.000|56=SERVER|11=42747|38=928|40=2|44=104.176941856233|54=5|55=BAC|10=242|8=FIX.4.2|9=109|35=D|34=307|49=CLIENT|52=20250206-16:42:40.000|56=SERVER|11=9939|38=545|40=2|44=147.898384049476|54=1|55=BAC|10=222|8=FIX.4.2|9=91|35=D|34=308|49=CLIENT|52=20250206-16:42:40.000|56=SERVER|11=78454|38=401|40=1|54=2|55=AAPL|10=054|8=FIX.4.2|9=110|35=D|34=309|49=CLIENT|52=20250206-16:42:40.000|56=SERVER|11=17710|38=461|40=2|44=128.341979881541|54=1|55=BAC|10=236|8=FIX.4.2|9=91|35=D|34=310|49=CLIENT|52=20250206-16:42:40.000|56=SERVER|11=64437|38=904|40=1|54=5|55=AAPL|10=054|8=FIX.4.2|9=89|35=D|34=311|49=CLIENT|52=20250206-16:42:40.000|56=SERVER|11=86602|38=50|40=1|54=5|55=BAC|10=172|8=FIX.4.2|9=90|35=D|34=312|49=CLIENT|52=20250206-16:42:40.000|56=SERVER|11=25422|38=26|40=1|54=5|55=AAPL|10=249|8=FIX.4.2|9=110|35=D|34=313|49=CLIENT|52=20250206-16:42:40.000|56=SERVER|11=37940|38=363|40=2|44=168.549184166953|54=5|55=BAC|10=248|8=FIX.4.2|9=87|35=F|34=314|49=CLIENT|52=20250206-16:42:40.000|56=SERVER|11=92696|41=82204|54=2|55=BAC|10=120|8=FIX.4.2|9=87|35=F|34=315|49=CLIENT|52=20250206-16:42:40.000|56=SERVER|11=92696|41=82204|54=2|55=BAC|10=121|8=FIX.4.2|9=91|35=D|34=316|49=CLIENT|52=20250206-16:42:41.000|56=SERVER|11=93640|38=320|40=1|54=1|55=AAPL|10=047|8=FIX.4.2|9=109|35=D|34=317|49=CLIENT|52=20250206-16:42:41.000|56=SERVER|11=47883|38=32|40=2|44=189.917214298996|54=2|55=BAC|10=219|8=FIX.4.2|9=87|35=F|34=318|49=CLIENT|52=20250206-16:42:41.000|56=SERVER|11=90590|41=17048|54=1|55=BAC|10=119|8=FIX.4.2|9=87|35=F|34=319|49=CLIENT|52=20250206-16:42:41.000|56=SERVER|11=90590|41=17048|54=1|55=BAC|10=120|8=FIX.4.2|9=110|35=D|34=320|49=CLIENT|52=20250206-16:42:41.000|56=SERVER|11=18876|38=324|40=2|44=185.046986104249|54=2|55=BAC|10=239|8=FIX.4.2|9=109|35=D|34=321|49=CLIENT|52=20250206-16:42:41.000|56=SERVER|11=2122|38=895|40=2|44=193.650186467944|54=1|55=BAC|10=195|8=FIX.4.2|9=91|35=D|34=322|49=CLIENT|52=20250206-16:42:41.000|56=SERVER|11=61349|38=705|40=1|54=1|55=AAPL|10=052|8=FIX.4.2|9=91|35=D|34=323|49=CLIENT|52=20250206-16:42:41.000|56=SERVER|11=20962|38=445|40=1|54=2|55=MSFT|10=079|8=FIX.4.2|9=89|35=D|34=324|49=CLIENT|52=20250206-16:42:41.000|56=SERVER|11=88152|38=87|40=1|54=2|55=BAC|10=186|8=FIX.4.2|9=90|35=D|34=325|49=CLIENT|52=20250206-16:42:41.000|56=SERVER|11=15509|38=187|40=1|54=5|55=BAC|10=227|8=FIX.4.2|9=91|35=D|34=326|49=CLIENT|52=20250206-16:42:41.000|56=SERVER|11=94872|38=611|40=1|54=1|55=AAPL|10=059|8=FIX.4.2|9=91|35=D|34=327|49=CLIENT|52=20250206-16:42:42.000|56=SERVER|11=66181|38=257|40=1|54=5|55=MSFT|10=091|8=FIX.4.2|9=90|35=D|34=328|49=CLIENT|52=20250206-16:42:42.000|56=SERVER|11=88625|38=644|40=1|54=5|55=BAC|10=238|8=FIX.4.2|9=111|35=D|34=329|49=CLIENT|52=20250206-16:42:42.000|56=SERVER|11=18463|38=198|40=2|44=129.910229400411|54=1|55=AAPL|10=060|8=FIX.4.2|9=111|35=D|34=330|49=CLIENT|52=20250206-16:42:42.000|56=SERVER|11=96591|38=440|40=2|44=133.488600340702|54=2|55=AAPL|10=055|8=FIX.4.2|9=111|35=D|34=331|49=CLIENT|52=20250206-16:42:42.000|56=SERVER|11=26928|38=542|40=2|44=148.258772533929|54=1|55=MSFT|10=109|8=FIX.4.2|9=88|35=D|34=332|49=CLIENT|52=20250206-16:42:42.000|56=SERVER|11=24827|38=7|40=1|54=1|55=BAC|10=127|8=FIX.4.2|9=111|35=D|34=333|49=CLIENT|52=20250206-16:42:42.000|56=SERVER|11=80968|38=406|40=2|44=137.861640354009|54=1|55=AAPL|10=068|8=FIX.4.2|9=111|35=D|34=334|49=CLIENT|52=20250206-16:42:42.000|56=SERVER|11=80536|38=737|40=2|44=144.055835699647|54=2|55=AAPL|10=087|8=FIX.4.2|9=91|35=D|34=335|49=CLIENT|52=20250206-16:42:42.000|56=SERVER|11=34163|38=998|40=1|54=1|55=MSFT|10=093|8=FIX.4.2|9=111|35=D|34=336|49=CLIENT|52=20250206-16:42:43.000|56=SERVER|11=93068|38=282|40=2|44=137.751013593392|54=1|55=MSFT|10=099|8=FIX.4.2|9=91|35=D|34=337|49=CLIENT|52=20250206-16:42:43.000|56=SERVER|11=35567|38=370|40=1|54=1|55=AAPL|10=061|8=FIX.4.2|9=88|35=F|34=338|49=CLIENT|52=20250206-16:42:43.000|56=SERVER|11=81253|41=71215|54=2|55=MSFT|10=233|8=FIX.4.2|9=88|35=F|34=339|49=CLIENT|52=20250206-16:42:43.000|56=SERVER|11=81253|41=71215|54=2|55=MSFT|10=234|8=FIX.4.2|9=111|35=D|34=340|49=CLIENT|52=20250206-16:42:43.000|56=SERVER|11=45206|38=433|40=2|44=144.108786270331|54=5|55=AAPL|10=055|8=FIX.4.2|9=91|35=D|34=341|49=CLIENT|52=20250206-16:42:43.000|56=SERVER|11=15195|38=259|40=1|54=2|55=AAPL|10=058|8=FIX.4.2|9=90|35=D|34=342|49=CLIENT|52=20250206-16:42:43.000|56=SERVER|11=16163|38=497|40=1|54=5|55=BAC|10=229|8=FIX.4.2|9=110|35=D|34=343|49=CLIENT|52=20250206-16:42:43.000|56=SERVER|11=77317|38=500|40=2|44=105.366106650043|54=1|55=BAC|10=215|8=FIX.4.2|9=111|35=D|34=344|49=CLIENT|52=20250206-16:42:43.000|56=SERVER|11=38838|38=119|40=2|44=141.493461615387|54=5|55=MSFT|10=109|8=FIX.4.2|9=86|35=F|34=345|49=CLIENT|52=20250206-16:42:43.000|56=SERVER|11=4831|41=37922|54=2|55=BAC|10=069|8=FIX.4.2|9=86|35=F|34=346|49=CLIENT|52=20250206-16:42:43.000|56=SERVER|11=4831|41=37922|54=2|55=BAC|10=070|8=FIX.4.2|9=91|35=D|34=347|49=CLIENT|52=20250206-16:42:43.000|56=SERVER|11=88911|38=807|40=1|54=2|55=AAPL|10=069|8=FIX.4.2|9=86|35=F|34=348|49=CLIENT|52=20250206-16:42:43.000|56=SERVER|11=61985|41=4731|54=2|55=BAC|10=077|8=FIX.4.2|9=86|35=F|34=349|49=CLIENT|52=20250206-16:42:43.000|56=SERVER|11=61985|41=4731|54=2|55=BAC|10=078|8=FIX.4.2|9=110|35=D|34=350|49=CLIENT|52=20250206-16:42:43.000|56=SERVER|11=25189|38=697|40=2|44=195.07321282894|54=5|55=AAPL|10=033|8=FIX.4.2|9=110|35=D|34=351|49=CLIENT|52=20250206-16:42:44.000|56=SERVER|11=40198|38=597|40=2|44=145.832465862113|54=2|55=BAC|10=242|8=FIX.4.2|9=110|35=D|34=352|49=CLIENT|52=20250206-16:42:44.000|56=SERVER|11=11214|38=771|40=2|44=148.09309842312|54=1|55=MSFT|10=030|8=FIX.4.2|9=88|35=F|34=353|49=CLIENT|52=20250206-16:42:44.000|56=SERVER|11=91077|41=86602|54=5|55=MSFT|10=245|8=FIX.4.2|9=88|35=F|34=354|49=CLIENT|52=20250206-16:42:44.000|56=SERVER|11=91077|41=86602|54=5|55=MSFT|10=246|8=FIX.4.2|9=107|35=D|34=355|49=CLIENT|52=20250206-16:42:44.000|56=SERVER|11=77|38=112|40=2|44=167.092667160348|54=5|55=BAC|10=093|8=FIX.4.2|9=111|35=D|34=356|49=CLIENT|52=20250206-16:42:44.000|56=SERVER|11=40877|38=303|40=2|44=186.945852689365|54=1|55=AAPL|10=094|8=FIX.4.2|9=111|35=D|34=357|49=CLIENT|52=20250206-16:42:44.000|56=SERVER|11=10927|38=878|40=2|44=191.733795388145|54=1|55=AAPL|10=094|8=FIX.4.2|9=90|35=D|34=358|49=CLIENT|52=20250206-16:42:44.000|56=SERVER|11=19019|38=921|40=1|54=2|55=BAC|10=229|8=FIX.4.2|9=109|35=D|34=359|49=CLIENT|52=20250206-16:42:44.000|56=SERVER|11=9373|38=466|40=2|44=149.394088393254|54=2|55=BAC|10=218|8=FIX.4.2|9=90|35=D|34=360|49=CLIENT|52=20250206-16:42:44.000|56=SERVER|11=37986|38=400|40=1|54=5|55=BAC|10=230|8=FIX.4.2|9=111|35=D|34=361|49=CLIENT|52=20250206-16:42:44.000|56=SERVER|11=63742|38=837|40=2|44=126.762432674685|54=2|55=MSFT|10=111|8=FIX.4.2|9=91|35=D|34=362|49=CLIENT|52=20250206-16:42:44.000|56=SERVER|11=93144|38=603|40=1|54=2|55=AAPL|10=055|8=FIX.4.2|9=87|35=F|34=363|49=CLIENT|52=20250206-16:42:44.000|56=SERVER|11=59505|41=69597|54=5|55=BAC|10=143|8=FIX.4.2|9=87|35=F|34=364|49=CLIENT|52=20250206-16:42:44.000|56=SERVER|11=59505|41=69597|54=5|55=BAC|10=144|8=FIX.4.2|9=110|35=D|34=365|49=CLIENT|52=20250206-16:42:45.000|56=SERVER|11=75056|38=99|40=2|44=107.915951925169|54=1|55=AAPL|10=040|8=FIX.4.2|9=110|35=D|34=366|49=CLIENT|52=20250206-16:42:45.000|56=SERVER|11=15275|38=36|40=2|44=164.987161898019|54=1|55=AAPL|10=037|8=FIX.4.2|9=91|35=D|34=367|49=CLIENT|52=20250206-16:42:45.000|56=SERVER|11=54050|38=459|40=1|54=1|55=MSFT|10=090|8=FIX.4.2|9=90|35=D|34=368|49=CLIENT|52=20250206-16:42:45.000|56=SERVER|11=31746|38=582|40=1|54=5|55=BAC|10=238|8=FIX.4.2|9=90|35=D|34=369|49=CLIENT|52=20250206-16:42:45.000|56=SERVER|11=79449|38=493|40=1|54=5|55=BAC|10=252|8=FIX.4.2|9=90|35=D|34=370|49=CLIENT|52=20250206-16:42:45.000|56=SERVER|11=5399|38=248|40=1|54=5|55=AAPL|10=019|8=FIX.4.2|9=111|35=D|34=371|49=CLIENT|52=20250206-16:42:45.000|56=SERVER|11=79847|38=632|40=2|44=113.958020302861|54=5|55=MSFT|10=102|8=FIX.4.2|9=90|35=D|34=372|49=CLIENT|52=20250206-16:42:45.000|56=SERVER|11=94594|38=437|40=1|54=2|55=BAC|10=239|8=FIX.4.2|9=90|35=D|34=373|49=CLIENT|52=20250206-16:42:45.000|56=SERVER|11=64921|38=137|40=1|54=1|55=BAC|10=227|8=FIX.4.2|9=91|35=D|34=374|49=CLIENT|52=20250206-16:42:46.000|56=SERVER|11=37856|38=383|40=1|54=2|55=AAPL|10=073|8=FIX.4.2|9=88|35=D|34=375|49=CLIENT|52=20250206-16:42:46.000|56=SERVER|11=4713|38=2|40=1|54=5|55=AAPL|10=169|8=FIX.4.2|9=111|35=D|34=376|49=CLIENT|52=20250206-16:42:46.000|56=SERVER|11=35392|38=250|40=2|44=136.735634379418|54=5|55=AAPL|10=084|8=FIX.4.2|9=110|35=D|34=377|49=CLIENT|52=20250206-16:42:46.000|56=SERVER|11=15302|38=698|40=2|44=140.205907965122|54=2|55=BAC|10=237|8=FIX.4.2|9=88|35=F|34=378|49=CLIENT|52=20250206-16:42:46.000|56=SERVER|11=98575|41=18463|54=5|55=AAPL|10=236|8=FIX.4.2|9=88|35=F|34=379|49=CLIENT|52=20250206-16:42:46.000|56=SERVER|11=98575|41=18463|54=5|55=AAPL|10=237|8=FIX.4.2|9=111|35=D|34=380|49=CLIENT|52=20250206-16:42:46.000|56=SERVER|11=50795|38=978|40=2|44=155.284801426969|54=2|55=AAPL|10=097|8=FIX.4.2|9=91|35=D|34=381|49=CLIENT|52=20250206-16:42:46.000|56=SERVER|11=58927|38=311|40=1|54=5|55=AAPL|10=067|8=FIX.4.2|9=89|35=D|34=382|49=CLIENT|52=20250206-16:42:46.000|56=SERVER|11=3207|38=282|40=1|54=1|55=BAC|10=179|8=FIX.4.2|9=110|35=D|34=383|49=CLIENT|52=20250206-16:42:46.000|56=SERVER|11=87986|38=776|40=2|44=162.291630673471|54=1|55=BAC|10=006|8=FIX.4.2|9=90|35=D|34=384|49=CLIENT|52=20250206-16:42:46.000|56=SERVER|11=82347|38=279|40=1|54=5|55=BAC|10=243|8=FIX.4.2|9=91|35=D|34=385|49=CLIENT|52=20250206-16:42:47.000|56=SERVER|11=99872|38=591|40=1|54=5|55=AAPL|10=086|8=FIX.4.2|9=110|35=D|34=386|49=CLIENT|52=20250206-16:42:47.000|56=SERVER|11=91869|38=677|40=2|44=129.296163917907|54=5|55=BAC|10=023|8=FIX.4.2|9=111|35=D|34=387|49=CLIENT|52=20250206-16:42:47.000|56=SERVER|11=96119|38=281|40=2|44=109.944581117827|54=2|55=MSFT|10=117|8=FIX.4.2|9=111|35=D|34=388|49=CLIENT|52=20250206-16:42:47.000|56=SERVER|11=73622|38=233|40=2|44=110.651057224106|54=1|55=MSFT|10=082|8=FIX.4.2|9=89|35=D|34=389|49=CLIENT|52=20250206-16:42:47.000|56=SERVER|11=32363|38=30|40=1|54=5|55=BAC|10=187|8=FIX.4.2|9=111|35=D|34=390|49=CLIENT|52=20250206-16:42:47.000|56=SERVER|11=27484|38=834|40=2|44=197.170047760841|54=2|55=MSFT|10=109|8=FIX.4.2|9=87|35=F|34=391|49=CLIENT|52=20250206-16:42:47.000|56=SERVER|11=71987|41=9626|54=2|55=AAPL|10=179|8=FIX.4.2|9=87|35=F|34=392|49=CLIENT|52=20250206-16:42:47.000|56=SERVER|11=71987|41=9626|54=2|55=AAPL|10=180|8=FIX.4.2|9=91|35=D|34=393|49=CLIENT|52=20250206-16:42:47.000|56=SERVER|11=61923|38=351|40=1|54=1|55=AAPL|10=061|8=FIX.4.2|9=90|35=D|34=394|49=CLIENT|52=20250206-16:42:47.000|56=SERVER|11=53303|38=154|40=1|54=2|55=BAC|10=224|8=FIX.4.2|9=111|35=D|34=395|49=CLIENT|52=20250206-16:42:47.000|56=SERVER|11=89293|38=262|40=2|44=123.166142068034|54=5|55=MSFT|10=103|8=FIX.4.2|9=88|35=F|34=396|49=CLIENT|52=20250206-16:42:47.000|56=SERVER|11=76652|41=66181|54=1|55=MSFT|10=253|8=FIX.4.2|9=88|35=F|34=397|49=CLIENT|52=20250206-16:42:47.000|56=SERVER|11=76652|41=66181|54=1|55=MSFT|10=254|8=FIX.4.2|9=90|35=D|34=398|49=CLIENT|52=20250206-16:42:48.000|56=SERVER|11=53494|38=975|40=1|54=2|55=BAC|10=251|8=FIX.4.2|9=111|35=D|34=399|49=CLIENT|52=20250206-16:42:48.000|56=SERVER|11=28429|38=154|40=2|44=144.119260661172|54=5|55=MSFT|10=106|8=FIX.4.2|9=91|35=D|34=400|49=CLIENT|52=20250206-16:42:48.000|56=SERVER|11=90789|38=210|40=1|54=2|55=MSFT|10=086|8=FIX.4.2|9=87|35=F|34=401|49=CLIENT|52=20250206-16:42:48.000|56=SERVER|11=39435|41=2633|54=1|55=MSFT|10=182|8=FIX.4.2|9=87|35=F|34=402|49=CLIENT|52=20250206-16:42:48.000|56=SERVER|11=39435|41=2633|54=1|55=MSFT|10=183|8=FIX.4.2|9=110|35=D|34=403|49=CLIENT|52=20250206-16:42:48.000|56=SERVER|11=18943|38=575|40=2|44=120.559404178651|54=2|55=BAC|10=242|8=FIX.4.2|9=90|35=D|34=404|49=CLIENT|52=20250206-16:42:48.000|56=SERVER|11=81294|38=428|40=1|54=1|55=BAC|10=230|8=FIX.4.2|9=111|35=D|34=405|49=CLIENT|52=20250206-16:42:48.000|56=SERVER|11=71800|38=571|40=2|44=193.081315820315|54=5|55=AAPL|10=059|8=FIX.4.2|9=110|35=D|34=406|49=CLIENT|52=20250206-16:42:48.000|56=SERVER|11=89064|38=538|40=2|44=118.424334316871|54=1|55=BAC|10=243|8=FIX.4.2|9=111|35=D|34=407|49=CLIENT|52=20250206-16:42:48.000|56=SERVER|11=44144|38=558|40=2|44=192.449193185883|54=5|55=MSFT|10=120|8=FIX.4.2|9=91|35=D|34=408|49=CLIENT|52=20250206-16:42:48.000|56=SERVER|11=45836|38=978|40=1|54=2|55=MSFT|10=108|8=FIX.4.2|9=91|35=D|34=409|49=CLIENT|52=20250206-16:42:49.000|56=SERVER|11=21574|38=177|40=1|54=5|55=MSFT|10=097|8=FIX.4.2|9=91|35=D|34=410|49=CLIENT|52=20250206-16:42:49.000|56=SERVER|11=25719|38=877|40=1|54=5|55=AAPL|10=073|8=FIX.4.2|9=111|35=D|34=411|49=CLIENT|52=20250206-16:42:49.000|56=SERVER|11=78559|38=300|40=2|44=165.808526522906|54=2|55=AAPL|10=077|8=FIX.4.2|9=91|35=D|34=412|49=CLIENT|52=20250206-16:42:49.000|56=SERVER|11=18319|38=380|40=1|54=2|55=AAPL|10=059|8=FIX.4.2|9=111|35=D|34=413|49=CLIENT|52=20250206-16:42:49.000|56=SERVER|11=78069|38=569|40=2|44=161.072460341812|54=2|55=AAPL|10=073|8=FIX.4.2|9=110|35=D|34=414|49=CLIENT|52=20250206-16:42:49.000|56=SERVER|11=94575|38=626|40=2|44=198.393852084426|54=1|55=BAC|10=004|8=FIX.4.2|9=111|35=D|34=415|49=CLIENT|52=20250206-16:42:49.000|56=SERVER|11=73375|38=844|40=2|44=124.330711257541|54=2|55=AAPL|10=066|8=FIX.4.2|9=91|35=D|34=416|49=CLIENT|52=20250206-16:42:49.000|56=SERVER|11=14864|38=110|40=1|54=2|55=AAPL|10=055|8=FIX.4.2|9=91|35=D|34=417|49=CLIENT|52=20250206-16:42:49.000|56=SERVER|11=94640|38=809|40=1|54=2|55=AAPL|10=071|8=FIX.4.2|9=111|35=D|34=418|49=CLIENT|52=20250206-16:42:50.000|56=SERVER|11=78720|38=284|40=2|44=180.554451779552|54=2|55=AAPL|10=080|8=FIX.4.2|9=90|35=D|34=419|49=CLIENT|52=20250206-16:42:50.000|56=SERVER|11=94740|38=120|40=1|54=1|55=BAC|10=218|8=FIX.4.2|9=90|35=D|34=420|49=CLIENT|52=20250206-16:42:50.000|56=SERVER|11=52991|38=876|40=1|54=5|55=BAC|10=234|8=FIX.4.2|9=91|35=D|34=421|49=CLIENT|52=20250206-16:42:50.000|56=SERVER|11=97129|38=477|40=1|54=1|55=MSFT|10=091|8=FIX.4.2|9=110|35=D|34=422|49=CLIENT|52=20250206-16:42:50.000|56=SERVER|11=27573|38=952|40=2|44=122.102347259585|54=1|55=BAC|10=231|8=FIX.4.2|9=110|35=D|34=423|49=CLIENT|52=20250206-16:42:50.000|56=SERVER|11=37497|38=908|40=2|44=160.041625589524|54=2|55=BAC|10=242|8=FIX.4.2|9=91|35=D|34=424|49=CLIENT|52=20250206-16:42:50.000|56=SERVER|11=85262|38=164|40=1|54=1|55=MSFT|10=082|8=FIX.4.2|9=111|35=D|34=425|49=CLIENT|52=20250206-16:42:50.000|56=SERVER|11=47291|38=356|40=2|44=118.072610202407|54=2|55=AAPL|10=050|8=FIX.4.2|9=91|35=D|34=426|49=CLIENT|52=20250206-16:42:50.000|56=SERVER|11=69031|38=596|40=1|54=1|55=MSFT|10=089|8=FIX.4.2|9=110|35=D|34=427|49=CLIENT|52=20250206-16:42:50.000|56=SERVER|11=92529|38=624|40=2|44=187.940106397955|54=5|55=BAC|10=001|8=FIX.4.2|9=88|35=F|34=428|49=CLIENT|52=20250206-16:42:50.000|56=SERVER|11=90470|41=92529|54=2|55=AAPL|10=215|8=FIX.4.2|9=88|35=F|34=429|49=CLIENT|52=20250206-16:42:50.000|56=SERVER|11=90470|41=92529|54=2|55=AAPL|10=216|8=FIX.4.2|9=90|35=D|34=430|49=CLIENT|52=20250206-16:42:51.000|56=SERVER|11=60261|38=925|40=1|54=5|55=BAC|10=220|8=FIX.4.2|9=87|35=F|34=431|49=CLIENT|52=20250206-16:42:51.000|56=SERVER|11=71055|41=81294|54=5|55=BAC|10=119|8=FIX.4.2|9=87|35=F|34=432|49=CLIENT|52=20250206-16:42:51.000|56=SERVER|11=71055|41=81294|54=5|55=BAC|10=120|8=FIX.4.2|9=91|35=D|34=433|49=CLIENT|52=20250206-16:42:51.000|56=SERVER|11=42576|38=945|40=1|54=2|55=MSFT|10=092|8=FIX.4.2|9=91|35=D|34=434|49=CLIENT|52=20250206-16:42:51.000|56=SERVER|11=88481|38=906|40=1|54=5|55=AAPL|10=070|8=FIX.4.2|9=111|35=D|34=435|49=CLIENT|52=20250206-16:42:51.000|56=SERVER|11=13295|38=256|40=2|44=110.193234702027|54=5|55=MSFT|10=080|8=FIX.4.2|9=110|35=D|34=436|49=CLIENT|52=20250206-16:42:51.000|56=SERVER|11=25053|38=122|40=2|44=156.852069155907|54=2|55=BAC|10=231|8=FIX.4.2|9=90|35=D|34=437|49=CLIENT|52=20250206-16:42:51.000|56=SERVER|11=67787|38=819|40=1|54=5|55=BAC|10=249|8=FIX.4.2|9=91|35=D|34=438|49=CLIENT|52=20250206-16:42:51.000|56=SERVER|11=89619|38=527|40=1|54=1|55=AAPL|10=073|8=FIX.4.2|9=90|35=D|34=439|49=CLIENT|52=20250206-16:42:51.000|56=SERVER|11=56592|38=758|40=1|54=1|55=BAC|10=241|8=FIX.4.2|9=91|35=D|34=440|49=CLIENT|52=20250206-16:42:51.000|56=SERVER|11=17297|38=963|40=1|54=5|55=AAPL|10=067|8=FIX.4.2|9=91|35=D|34=441|49=CLIENT|52=20250206-16:42:52.000|56=SERVER|11=51466|38=231|40=1|54=5|55=AAPL|10=053|8=FIX.4.2|9=111|35=D|34=442|49=CLIENT|52=20250206-16:42:52.000|56=SERVER|11=59508|38=931|40=2|44=181.835997614555|54=1|55=AAPL|10=089|8=FIX.4.2|9=91|35=D|34=443|49=CLIENT|52=20250206-16:42:52.000|56=SERVER|11=71051|38=263|40=1|54=5|55=AAPL|10=052|8=FIX.4.2|9=90|35=D|34=444|49=CLIENT|52=20250206-16:42:52.000|56=SERVER|11=29543|38=37|40=1|54=1|55=AAPL|10=008|8=FIX.4.2|9=111|35=D|34=445|49=CLIENT|52=20250206-16:42:52.000|56=SERVER|11=14511|38=772|40=2|44=121.737408151432|54=5|55=MSFT|10=084|8=FIX.4.2|9=91|35=D|34=446|49=CLIENT|52=20250206-16:42:52.000|56=SERVER|11=50125|38=777|40=1|54=1|55=AAPL|10=060|8=FIX.4.2|9=91|35=D|34=447|49=CLIENT|52=20250206-16:42:52.000|56=SERVER|11=50064|38=621|40=1|54=2|55=AAPL|10=052|8=FIX.4.2|9=90|35=D|34=448|49=CLIENT|52=20250206-16:42:52.000|56=SERVER|11=91159|38=966|40=1|54=2|55=BAC|10=242|8=FIX.4.2|9=90|35=D|34=449|49=CLIENT|52=20250206-16:42:52.000|56=SERVER|11=95590|38=411|40=1|54=1|55=BAC|10=230|8=FIX.4.2|9=87|35=F|34=450|49=CLIENT|52=20250206-16:42:52.000|56=SERVER|11=31490|41=48993|54=2|55=BAC|10=126|8=FIX.4.2|9=87|35=F|34=451|49=CLIENT|52=20250206-16:42:52.000|56=SERVER|11=31490|41=48993|54=2|55=BAC|10=127|8=FIX.4.2|9=110|35=D|34=452|49=CLIENT|52=20250206-16:42:53.000|56=SERVER|11=39794|38=695|40=2|44=179.066442904532|54=2|55=BAC|10=000|8=FIX.4.2|9=88|35=F|34=453|49=CLIENT|52=20250206-16:42:53.000|56=SERVER|11=26492|41=70005|54=1|55=MSFT|10=231|8=FIX.4.2|9=88|35=F|34=454|49=CLIENT|52=20250206-16:42:53.000|56=SERVER|11=26492|41=70005|54=1|55=MSFT|10=232|8=FIX.4.2|9=90|35=D|34=455|49=CLIENT|52=20250206-16:42:53.000|56=SERVER|11=55625|38=658|40=1|54=1|55=BAC|10=236|8=FIX.4.2|9=111|35=D|34=456|49=CLIENT|52=20250206-16:42:53.000|56=SERVER|11=36691|38=275|40=2|44=176.348834894921|54=2|55=MSFT|10=123|8=FIX.4.2|9=91|35=D|34=457|49=CLIENT|52=20250206-16:42:53.000|56=SERVER|11=37021|38=158|40=1|54=5|55=MSFT|10=088|8=FIX.4.2|9=110|35=D|34=458|49=CLIENT|52=20250206-16:42:53.000|56=SERVER|11=32207|38=36|40=2|44=124.967047867083|54=2|55=MSFT|10=055|8=FIX.4.2|9=111|35=D|34=459|49=CLIENT|52=20250206-16:42:53.000|56=SERVER|11=52004|38=593|40=2|44=121.840149924655|54=5|55=MSFT|10=102|8=FIX.4.2|9=109|35=D|34=460|49=CLIENT|52=20250206-16:42:53.000|56=SERVER|11=30654|38=841|40=2|44=126.02979553173|54=1|55=BAC|10=191|8=FIX.4.2|9=110|35=D|34=461|49=CLIENT|52=20250206-16:42:53.000|56=SERVER|11=18394|38=632|40=2|44=143.784666842884|54=2|55=BAC|10=001|8=FIX.4.2|9=90|35=D|34=462|49=CLIENT|52=20250206-16:42:53.000|56=SERVER|11=96220|38=587|40=1|54=5|55=BAC|10=235|8=FIX.4.2|9=88|35=F|34=463|49=CLIENT|52=20250206-16:42:53.000|56=SERVER|11=43183|41=74957|54=2|55=AAPL|10=221|8=FIX.4.2|9=88|35=F|34=464|49=CLIENT|52=20250206-16:42:53.000|56=SERVER|11=43183|41=74957|54=2|55=AAPL|10=222|8=FIX.4.2|9=111|35=D|34=465|49=CLIENT|52=20250206-16:42:54.000|56=SERVER|11=46969|38=204|40=2|44=121.262556431357|54=5|55=MSFT|10=104|8=FIX.4.2|9=111|35=D|34=466|49=CLIENT|52=20250206-16:42:54.000|56=SERVER|11=38531|38=873|40=2|44=119.756979914872|54=5|55=MSFT|10=135|8=FIX.4.2|9=111|35=D|34=467|49=CLIENT|52=20250206-16:42:54.000|56=SERVER|11=85830|38=131|40=2|44=136.878574005566|54=1|55=MSFT|10=109|8=FIX.4.2|9=109|35=D|34=468|49=CLIENT|52=20250206-16:42:54.000|56=SERVER|11=60481|38=70|40=2|44=112.146925475317|54=5|55=BAC|10=197|8=FIX.4.2|9=110|35=D|34=469|49=CLIENT|52=20250206-16:42:54.000|56=SERVER|11=79696|38=853|40=2|44=114.573578885925|54=2|55=BAC|10=026|8=FIX.4.2|9=91|35=D|34=470|49=CLIENT|52=20250206-16:42:54.000|56=SERVER|11=41697|38=235|40=1|54=1|55=AAPL|10=062|8=FIX.4.2|9=111|35=D|34=471|49=CLIENT|52=20250206-16:42:54.000|56=SERVER|11=92455|38=880|40=2|44=159.236352382437|54=1|55=MSFT|10=108|8=FIX.4.2|9=110|35=D|34=472|49=CLIENT|52=20250206-16:42:54.000|56=SERVER|11=53298|38=880|40=2|44=155.344241473292|54=1|55=BAC|10=243|8=FIX.4.2|9=109|35=D|34=473|49=CLIENT|52=20250206-16:42:54.000|56=SERVER|11=33646|38=336|40=2|44=140.9172749368|54=1|55=MSFT|10=012|8=FIX.4.2|9=111|35=D|34=474|49=CLIENT|52=20250206-16:42:55.000|56=SERVER|11=99845|38=699|40=2|44=183.439200907072|54=5|55=MSFT|10=126|8=FIX.4.2|9=90|35=D|34=475|49=CLIENT|52=20250206-16:42:55.000|56=SERVER|11=23237|38=275|40=1|54=5|55=BAC|10=233|8=FIX.4.2|9=91|35=D|34=476|49=CLIENT|52=20250206-16:42:55.000|56=SERVER|11=26804|38=811|40=1|54=5|55=AAPL|10=066|8=FIX.4.2|9=89|35=D|34=477|49=CLIENT|52=20250206-16:42:55.000|56=SERVER|11=93624|38=49|40=1|54=1|55=BAC|10=197|8=FIX.4.2|9=111|35=D|34=478|49=CLIENT|52=20250206-16:42:55.000|56=SERVER|11=43800|38=270|40=2|44=148.667094171235|54=2|55=MSFT|10=101|8=FIX.4.2|9=87|35=F|34=479|49=CLIENT|52=20250206-16:42:55.000|56=SERVER|11=6988|41=86395|54=2|55=AAPL|10=192|8=FIX.4.2|9=87|35=F|34=480|49=CLIENT|52=20250206-16:42:55.000|56=SERVER|11=6988|41=86395|54=2|55=AAPL|10=184|8=FIX.4.2|9=91|35=D|34=481|49=CLIENT|52=20250206-16:42:55.000|56=SERVER|11=20602|38=818|40=1|54=5|55=AAPL|10=059|8=FIX.4.2|9=90|35=D|34=482|49=CLIENT|52=20250206-16:42:55.000|56=SERVER|11=17361|38=254|40=1|54=2|55=BAC|10=226|8=FIX.4.2|9=109|35=D|34=483|49=CLIENT|52=20250206-16:42:55.000|56=SERVER|11=65140|38=50|40=2|44=120.618471270135|54=5|55=BAC|10=180|8=FIX.4.2|9=110|35=D|34=484|49=CLIENT|52=20250206-16:42:55.000|56=SERVER|11=57732|38=288|40=2|44=134.322528888391|54=2|55=BAC|10=002|8=FIX.4.2|9=91|35=D|34=485|49=CLIENT|52=20250206-16:42:56.000|56=SERVER|11=69974|38=542|40=1|54=2|55=MSFT|10=108|8=FIX.4.2|9=90|35=D|34=486|49=CLIENT|52=20250206-16:42:56.000|56=SERVER|11=29931|38=10|40=1|54=1|55=MSFT|10=038|8=FIX.4.2|9=91|35=D|34=487|49=CLIENT|52=20250206-16:42:56.000|56=SERVER|11=89888|38=458|40=1|54=2|55=AAPL|10=094|8=FIX.4.2|9=91|35=D|34=488|49=CLIENT|52=20250206-16:42:56.000|56=SERVER|11=56003|38=305|40=1|54=2|55=AAPL|10=059|8=FIX.4.2|9=91|35=D|34=489|49=CLIENT|52=20250206-16:42:56.000|56=SERVER|11=38702|38=843|40=1|54=1|55=AAPL|10=072|8=FIX.4.2|9=91|35=D|34=490|49=CLIENT|52=20250206-16:42:56.000|56=SERVER|11=10373|38=665|40=1|54=2|55=AAPL|10=061|8=FIX.4.2|9=90|35=D|34=491|49=CLIENT|52=20250206-16:42:56.000|56=SERVER|11=12247|38=730|40=1|54=2|55=BAC|10=224|8=FIX.4.2|9=111|35=D|34=492|49=CLIENT|52=20250206-16:42:56.000|56=SERVER|11=97835|38=432|40=2|44=127.546725492043|54=1|55=AAPL|10=083|8=FIX.4.2|9=111|35=D|34=493|49=CLIENT|52=20250206-16:42:56.000|56=SERVER|11=62161|38=601|40=2|44=152.626525689445|54=2|55=MSFT|10=104|8=FIX.4.2|9=91|35=D|34=494|49=CLIENT|52=20250206-16:42:57.000|56=SERVER|11=26245|38=222|40=1|54=5|55=MSFT|10=091|8=FIX.4.2|9=110|35=D|34=495|49=CLIENT|52=20250206-16:42:57.000|56=SERVER|11=92527|38=125|40=2|44=198.193772789951|54=5|55=BAC|10=019|8=FIX.4.2|9=111|35=D|34=496|49=CLIENT|52=20250206-16:42:57.000|56=SERVER|11=55010|38=370|40=2|44=111.726500131926|54=1|55=MSFT|10=080|8=FIX.4.2|9=111|35=D|34=497|49=CLIENT|52=20250206-16:42:57.000|56=SERVER|11=59544|38=131|40=2|44=149.485534362607|54=5|55=AAPL|10=090|8=FIX.4.2|9=90|35=D|34=498|49=CLIENT|52=20250206-16:42:57.000|56=SERVER|11=63375|38=619|40=1|54=5|55=BAC|10=249|8=FIX.4.2|9=111|35=D|34=499|49=CLIENT|52=20250206-16:42:57.000|56=SERVER|11=84676|38=166|40=2|44=164.058805713154|54=5|55=MSFT|10=123|8=FIX.4.2|9=91|35=D|34=500|49=CLIENT|52=20250206-16:42:57.000|56=SERVER|11=79759|38=263|40=1|54=2|55=MSFT|10=099|8=FIX.4.2|9=111|35=D|34=501|49=CLIENT|52=20250206-16:42:57.000|56=SERVER|11=33768|38=732|40=2|44=147.035031735809|54=2|55=AAPL|10=069|8=FIX.4.2|9=111|35=D|34=502|49=CLIENT|52=20250206-16:42:57.000|56=SERVER|11=96808|38=656|40=2|44=139.467101184355|54=5|55=AAPL|10=084|8=FIX.4.2|9=110|35=D|34=503|49=CLIENT|52=20250206-16:42:57.000|56=SERVER|11=83188|38=729|40=2|44=196.501424888044|54=2|55=BAC|10=253|8=FIX.4.2|9=91|35=D|34=504|49=CLIENT|52=20250206-16:42:58.000|56=SERVER|11=39617|38=799|40=1|54=5|55=MSFT|10=110|8=FIX.4.2|9=88|35=F|34=505|49=CLIENT|52=20250206-16:42:58.000|56=SERVER|11=99945|41=37940|54=1|55=AAPL|10=230|8=FIX.4.2|9=88|35=F|34=506|49=CLIENT|52=20250206-16:42:58.000|56=SERVER|11=99945|41=37940|54=1|55=AAPL|10=231|8=FIX.4.2|9=111|35=D|34=507|49=CLIENT|52=20250206-16:42:58.000|56=SERVER|11=53603|38=381|40=2|44=147.230397345257|54=2|55=AAPL|10=072|8=FIX.4.2|9=91|35=D|34=508|49=CLIENT|52=20250206-16:42:58.000|56=SERVER|11=18578|38=950|40=1|54=5|55=MSFT|10=106|8=FIX.4.2|9=87|35=F|34=509|49=CLIENT|52=20250206-16:42:58.000|56=SERVER|11=61562|41=67047|54=2|55=BAC|10=131|8=FIX.4.2|9=87|35=F|34=510|49=CLIENT|52=20250206-16:42:58.000|56=SERVER|11=61562|41=67047|54=2|55=BAC|10=123|8=FIX.4.2|9=91|35=D|34=511|49=CLIENT|52=20250206-16:42:58.000|56=SERVER|11=22167|38=689|40=1|54=5|55=AAPL|10=070|8=FIX.4.2|9=90|35=D|34=512|49=CLIENT|52=20250206-16:42:58.000|56=SERVER|11=59715|38=365|40=1|54=5|55=BAC|10=238|8=FIX.4.2|9=89|35=D|34=513|49=CLIENT|52=20250206-16:42:58.000|56=SERVER|11=2005|38=946|40=1|54=2|55=BAC|10=181|8=FIX.4.2|9=91|35=D|34=514|49=CLIENT|52=20250206-16:42:58.000|56=SERVER|11=97686|38=835|40=1|54=5|55=MSFT|10=112|8=FIX.4.2|9=110|35=D|34=515|49=CLIENT|52=20250206-16:42:58.000|56=SERVER|11=26747|38=960|40=2|44=164.008101605399|54=5|55=BAC|10=244|8=FIX.4.2|9=88|35=F|34=516|49=CLIENT|52=20250206-16:42:58.000|56=SERVER|11=71725|41=43850|54=5|55=MSFT|10=247|8=FIX.4.2|9=88|35=F|34=517|49=CLIENT|52=20250206-16:42:58.000|56=SERVER|11=71725|41=43850|54=5|55=MSFT|10=248|8=FIX.4.2|9=110|35=D|34=518|49=CLIENT|52=20250206-16:42:58.000|56=SERVER|11=88758|38=657|40=2|44=150.169850044511|54=5|55=BAC|10=001|8=FIX.4.2|9=90|35=D|34=519|49=CLIENT|52=20250206-16:42:59.000|56=SERVER|11=77626|38=443|40=1|54=2|55=BAC|10=241|8=FIX.4.2|9=91|35=D|34=520|49=CLIENT|52=20250206-16:42:59.000|56=SERVER|11=37604|38=976|40=1|54=5|55=MSFT|10=100|8=FIX.4.2|9=91|35=D|34=521|49=CLIENT|52=20250206-16:42:59.000|56=SERVER|11=41314|38=772|40=1|54=1|55=AAPL|10=056|8=FIX.4.2|9=110|35=D|34=522|49=CLIENT|52=20250206-16:42:59.000|56=SERVER|11=6357|38=457|40=2|44=101.593558012951|54=1|55=MSFT|10=049|8=FIX.4.2|9=91|35=D|34=523|49=CLIENT|52=20250206-16:42:59.000|56=SERVER|11=85200|38=444|40=1|54=2|55=MSFT|10=085|8=FIX.4.2|9=110|35=D|34=524|49=CLIENT|52=20250206-16:42:59.000|56=SERVER|11=25310|38=154|40=2|44=145.474615704529|54=1|55=BAC|10=232|8=FIX.4.2|9=90|35=D|34=525|49=CLIENT|52=20250206-16:42:59.000|56=SERVER|11=8257|38=642|40=1|54=1|55=AAPL|10=016|8=FIX.4.2|9=87|35=F|34=526|49=CLIENT|52=20250206-16:42:59.000|56=SERVER|11=98685|41=92298|54=2|55=BAC|10=153|8=FIX.4.2|9=87|35=F|34=527|49=CLIENT|52=20250206-16:42:59.000|56=SERVER|11=98685|41=92298|54=2|55=BAC|10=154|8=FIX.4.2|9=110|35=D|34=528|49=CLIENT|52=20250206-16:42:59.000|56=SERVER|11=11514|38=860|40=2|44=129.06451171447|54=1|55=MSFT|10=041|8=FIX.4.2|9=110|35=D|34=529|49=CLIENT|52=20250206-16:42:59.000|56=SERVER|11=51535|38=31|40=2|44=153.648792736728|54=2|55=AAPL|10=038|8=FIX.4.2|9=111|35=D|34=530|49=CLIENT|52=20250206-16:43:00.000|56=SERVER|11=80171|38=132|40=2|44=153.489574010967|54=2|55=AAPL|10=057|8=FIX.4.2|9=91|35=D|34=531|49=CLIENT|52=20250206-16:43:00.000|56=SERVER|11=97851|38=649|40=1|54=5|55=AAPL|10=068|8=FIX.4.2|9=90|35=D|34=532|49=CLIENT|52=20250206-16:43:00.000|56=SERVER|11=15179|38=734|40=1|54=5|55=BAC|10=224|8=FIX.4.2|9=112|35=D|34=533|49=CLIENT|52=20250206-16:43:00.000|56=SERVER|11=88426|38=1000|40=2|44=114.517638524996|54=1|55=MSFT|10=144|8=FIX.4.2|9=90|35=D|34=534|49=CLIENT|52=20250206-16:43:00.000|56=SERVER|11=57991|38=455|40=1|54=5|55=BAC|10=234|8=FIX.4.2|9=111|35=D|34=535|49=CLIENT|52=20250206-16:43:00.000|56=SERVER|11=50784|38=591|40=2|44=111.020731771474|54=2|55=MSFT|10=083|8=FIX.4.2|9=109|35=D|34=536|49=CLIENT|52=20250206-16:43:00.000|56=SERVER|11=9538|38=732|40=2|44=128.434993977602|54=1|55=BAC|10=208|8=FIX.4.2|9=89|35=D|34=537|49=CLIENT|52=20250206-16:43:00.000|56=SERVER|11=55473|38=9|40=1|54=1|55=MSFT|10=249|8=FIX.4.2|9=110|35=D|34=538|49=CLIENT|52=20250206-16:43:00.000|56=SERVER|11=4109|38=971|40=2|44=141.713214992371|54=5|55=AAPL|10=013|8=FIX.4.2|9=111|35=D|34=539|49=CLIENT|52=20250206-16:43:01.000|56=SERVER|11=33178|38=903|40=2|44=109.126180659299|54=1|55=AAPL|10=076|8=FIX.4.2|9=90|35=D|34=540|49=CLIENT|52=20250206-16:43:01.000|56=SERVER|11=44094|38=15|40=1|54=1|55=AAPL|10=250|8=FIX.4.2|9=111|35=D|34=541|49=CLIENT|52=20250206-16:43:01.000|56=SERVER|11=49270|38=250|40=2|44=124.142730235748|54=5|55=AAPL|10=053|8=FIX.4.2|9=90|35=D|34=542|49=CLIENT|52=20250206-16:43:01.000|56=SERVER|11=8571|38=325|40=1|54=5|55=MSFT|10=032|8=FIX.4.2|9=91|35=D|34=543|49=CLIENT|52=20250206-16:43:01.000|56=SERVER|11=91529|38=823|40=1|54=1|55=AAPL|10=058|8=FIX.4.2|9=91|35=D|34=544|49=CLIENT|52=20250206-16:43:01.000|56=SERVER|11=13481|38=276|40=1|54=2|55=MSFT|10=081|8=FIX.4.2|9=91|35=D|34=545|49=CLIENT|52=20250206-16:43:01.000|56=SERVER|11=17748|38=694|40=1|54=1|55=AAPL|10=067|8=FIX.4.2|9=90|35=D|34=546|49=CLIENT|52=20250206-16:43:01.000|56=SERVER|11=93913|38=616|40=1|54=1|55=BAC|10=227|8=FIX.4.2|9=91|35=D|34=547|49=CLIENT|52=20250206-16:43:01.000|56=SERVER|11=36056|38=844|40=1|54=5|55=MSFT|10=091|8=FIX.4.2|9=109|35=D|34=548|49=CLIENT|52=20250206-16:43:02.000|56=SERVER|11=654|38=748|40=2|44=166.787462642022|54=2|55=MSFT|10=012|8=FIX.4.2|9=111|35=D|34=549|49=CLIENT|52=20250206-16:43:02.000|56=SERVER|11=48925|38=677|40=2|44=165.701368890701|54=1|55=AAPL|10=086|8=FIX.4.2|9=111|35=D|34=550|49=CLIENT|52=20250206-16:43:02.000|56=SERVER|11=43470|38=914|40=2|44=154.033444752482|54=2|55=MSFT|10=085|8=FIX.4.2|9=90|35=D|34=551|49=CLIENT|52=20250206-16:43:02.000|56=SERVER|11=31106|38=10|40=1|54=5|55=AAPL|10=242|8=FIX.4.2|9=90|35=D|34=552|49=CLIENT|52=20250206-16:43:02.000|56=SERVER|11=16427|38=830|40=1|54=2|55=BAC|10=219|8=FIX.4.2|9=111|35=D|34=553|49=CLIENT|52=20250206-16:43:02.000|56=SERVER|11=57501|38=966|40=2|44=109.125550505968|54=2|55=AAPL|10=072|8=FIX.4.2|9=111|35=D|34=554|49=CLIENT|52=20250206-16:43:02.000|56=SERVER|11=49306|38=910|40=2|44=119.196938240998|54=5|55=AAPL|10=087|8=FIX.4.2|9=91|35=D|34=555|49=CLIENT|52=20250206-16:43:02.000|56=SERVER|11=76853|38=997|40=1|54=5|55=MSFT|10=109|8=FIX.4.2|9=90|35=D|34=556|49=CLIENT|52=20250206-16:43:02.000|56=SERVER|11=9771|38=384|40=1|54=5|55=AAPL|10=018|8=FIX.4.2|9=110|35=D|34=557|49=CLIENT|52=20250206-16:43:02.000|56=SERVER|11=5543|38=343|40=2|44=107.303312261183|54=2|55=AAPL|10=251|8=FIX.4.2|9=111|35=D|34=558|49=CLIENT|52=20250206-16:43:03.000|56=SERVER|11=42437|38=516|40=2|44=190.934204260796|54=1|55=MSFT|10=099|8=FIX.4.2|9=111|35=D|34=559|49=CLIENT|52=20250206-16:43:03.000|56=SERVER|11=14311|38=599|40=2|44=137.180364119956|54=5|55=MSFT|10=107|8=FIX.4.2|9=90|35=D|34=560|49=CLIENT|52=20250206-16:43:03.000|56=SERVER|11=3974|38=318|40=1|54=5|55=MSFT|10=038|8=FIX.4.2|9=110|35=D|34=561|49=CLIENT|52=20250206-16:43:03.000|56=SERVER|11=65470|38=541|40=2|44=154.315098494856|54=5|55=BAC|10=246|8=FIX.4.2|9=111|35=D|34=562|49=CLIENT|52=20250206-16:43:03.000|56=SERVER|11=86965|38=844|40=2|44=162.181653137455|54=5|55=AAPL|10=084|8=FIX.4.2|9=111|35=D|34=563|49=CLIENT|52=20250206-16:43:03.000|56=SERVER|11=92759|38=808|40=2|44=140.733245246801|54=1|55=AAPL|10=071|8=FIX.4.2|9=91|35=D|34=564|49=CLIENT|52=20250206-16:43:03.000|56=SERVER|11=88270|38=642|40=1|54=1|55=AAPL|10=061|8=FIX.4.2|9=91|35=D|34=565|49=CLIENT|52=20250206-16:43:03.000|56=SERVER|11=29968|38=225|40=1|54=5|55=AAPL|10=072|8=FIX.4.2|9=90|35=D|34=566|49=CLIENT|52=20250206-16:43:03.000|56=SERVER|11=96928|38=685|40=1|54=5|55=BAC|10=250|8=FIX.4.2|9=110|35=D|34=567|49=CLIENT|52=20250206-16:43:04.000|56=SERVER|11=72571|38=286|40=2|44=174.440428349641|54=1|55=BAC|10=244|8=FIX.4.2|9=91|35=D|34=568|49=CLIENT|52=20250206-16:43:04.000|56=SERVER|11=15203|38=594|40=1|54=1|55=MSFT|10=086|8=FIX.4.2|9=91|35=D|34=569|49=CLIENT|52=20250206-16:43:04.000|56=SERVER|11=55005|38=458|40=1|54=2|55=AAPL|10=063|8=FIX.4.2|9=109|35=D|34=570|49=CLIENT|52=20250206-16:43:04.000|56=SERVER|11=91684|38=880|40=2|44=136.6610964737|54=2|55=AAPL|10=243|8=FIX.4.2|9=111|35=D|34=571|49=CLIENT|52=20250206-16:43:04.000|56=SERVER|11=98719|38=511|40=2|44=150.605262537387|54=5|55=AAPL|10=078|8=FIX.4.2|9=87|35=F|34=572|49=CLIENT|52=20250206-16:43:04.000|56=SERVER|11=41901|41=7672|54=1|55=AAPL|10=155|8=FIX.4.2|9=87|35=F|34=573|49=CLIENT|52=20250206-16:43:04.000|56=SERVER|11=41901|41=7672|54=1|55=AAPL|10=156|8=FIX.4.2|9=89|35=D|34=574|49=CLIENT|52=20250206-16:43:04.000|56=SERVER|11=21302|38=66|40=1|54=2|55=BAC|10=174|8=FIX.4.2|9=111|35=D|34=575|49=CLIENT|52=20250206-16:43:04.000|56=SERVER|11=81132|38=390|40=2|44=116.625533247371|54=2|55=MSFT|10=089|8=FIX.4.2|9=111|35=D|34=576|49=CLIENT|52=20250206-16:43:04.000|56=SERVER|11=13123|38=470|40=2|44=119.857687950828|54=2|55=MSFT|10=112|8=FIX.4.2|9=111|35=D|34=577|49=CLIENT|52=20250206-16:43:04.000|56=SERVER|11=77984|38=145|40=2|44=123.232865595023|54=5|55=AAPL|10=084|8=FIX.4.2|9=88|35=F|34=578|49=CLIENT|52=20250206-16:43:04.000|56=SERVER|11=69582|41=88481|54=1|55=MSFT|10=004|8=FIX.4.2|9=88|35=F|34=579|49=CLIENT|52=20250206-16:43:04.000|56=SERVER|11=69582|41=88481|54=1|55=MSFT|10=005|8=FIX.4.2|9=90|35=D|34=580|49=CLIENT|52=20250206-16:43:05.000|56=SERVER|11=64489|38=316|40=1|54=2|55=BAC|10=233|8=FIX.4.2|9=110|35=D|34=581|49=CLIENT|52=20250206-16:43:05.000|56=SERVER|11=65321|38=933|40=2|44=185.45252302199|54=1|55=AAPL|10=014|8=FIX.4.2|9=89|35=D|34=582|49=CLIENT|52=20250206-16:43:05.000|56=SERVER|11=539|38=850|40=1|54=2|55=AAPL|10=224|8=FIX.4.2|9=110|35=D|34=583|49=CLIENT|52=20250206-16:43:05.000|56=SERVER|11=95798|38=476|40=2|44=162.491746883248|54=5|55=BAC|10=020|8=FIX.4.2|9=110|35=D|34=584|49=CLIENT|52=20250206-16:43:05.000|56=SERVER|11=1401|38=167|40=2|44=114.762536214049|54=2|55=MSFT|10=033|8=FIX.4.2|9=110|35=D|34=585|49=CLIENT|52=20250206-16:43:05.000|56=SERVER|11=17699|38=908|40=2|44=155.580220386923|54=5|55=BAC|10=002|8=FIX.4.2|9=110|35=D|34=586|49=CLIENT|52=20250206-16:43:05.000|56=SERVER|11=63461|38=877|40=2|44=176.35762549225|54=5|55=AAPL|10=041|8=FIX.4.2|9=88|35=D|34=587|49=CLIENT|52=20250206-16:43:05.000|56=SERVER|11=475|38=180|40=1|54=1|55=BAC|10=134|8=FIX.4.2|9=110|35=D|34=588|49=CLIENT|52=20250206-16:43:05.000|56=SERVER|11=81388|38=159|40=2|44=140.951628892618|54=5|55=BAC|10=010|8=FIX.4.2|9=91|35=D|34=589|49=CLIENT|52=20250206-16:43:06.000|56=SERVER|11=70330|38=285|40=1|54=2|55=MSFT|10=091|8=FIX.4.2|9=109|35=D|34=590|49=CLIENT|52=20250206-16:43:06.000|56=SERVER|11=82181|38=69|40=2|44=160.97541177944|54=2|55=AAPL|10=244|8=FIX.4.2|9=88|35=F|34=591|49=CLIENT|52=20250206-16:43:06.000|56=SERVER|11=13809|41=18487|54=1|55=MSFT|10=247|8=FIX.4.2|9=88|35=F|34=592|49=CLIENT|52=20250206-16:43:06.000|56=SERVER|11=13809|41=18487|54=1|55=MSFT|10=248|8=FIX.4.2|9=91|35=D|34=593|49=CLIENT|52=20250206-16:43:06.000|56=SERVER|11=50873|38=655|40=1|54=2|55=AAPL|10=069|8=FIX.4.2|9=89|35=D|34=594|49=CLIENT|52=20250206-16:43:06.000|56=SERVER|11=5983|38=306|40=1|54=1|55=BAC|10=191|8=FIX.4.2|9=111|35=D|34=595|49=CLIENT|52=20250206-16:43:06.000|56=SERVER|11=93579|38=308|40=2|44=153.206904608357|54=2|55=MSFT|10=113|8=FIX.4.2|9=110|35=D|34=596|49=CLIENT|52=20250206-16:43:06.000|56=SERVER|11=84777|38=563|40=2|44=143.70059661395|54=5|55=AAPL|10=043|8=FIX.4.2|9=91|35=D|34=597|49=CLIENT|52=20250206-16:43:06.000|56=SERVER|11=10608|38=727|40=1|54=2|55=AAPL|10=065|8=FIX.4.2|9=111|35=D|34=598|49=CLIENT|52=20250206-16:43:06.000|56=SERVER|11=30542|38=410|40=2|44=169.750193079323|54=2|55=AAPL|10=069|8=FIX.4.2|9=90|35=D|34=599|49=CLIENT|52=20250206-16:43:06.000|56=SERVER|11=52061|38=403|40=1|54=5|55=BAC|10=227|8=FIX.4.2|9=87|35=F|34=600|49=CLIENT|52=20250206-16:43:06.000|56=SERVER|11=54025|41=14511|54=5|55=BAC|10=104|8=FIX.4.2|9=87|35=F|34=601|49=CLIENT|52=20250206-16:43:06.000|56=SERVER|11=54025|41=14511|54=5|55=BAC|10=105|8=FIX.4.2|9=91|35=D|34=602|49=CLIENT|52=20250206-16:43:07.000|56=SERVER|11=17523|38=178|40=1|54=1|55=AAPL|10=055|8=FIX.4.2|9=90|35=D|34=603|49=CLIENT|52=20250206-16:43:07.000|56=SERVER|11=62899|38=202|40=1|54=1|55=BAC|10=227|8=FIX.4.2|9=90|35=D|34=604|49=CLIENT|52=20250206-16:43:07.000|56=SERVER|11=85677|38=976|40=1|54=5|55=BAC|10=249|8=FIX.4.2|9=87|35=F|34=605|49=CLIENT|52=20250206-16:43:07.000|56=SERVER|11=72467|41=2005|54=1|55=AAPL|10=151|8=FIX.4.2|9=87|35=F|34=606|49=CLIENT|52=20250206-16:43:07.000|56=SERVER|11=72467|41=2005|54=1|55=AAPL|10=152|8=FIX.4.2|9=90|35=D|34=607|49=CLIENT|52=20250206-16:43:07.000|56=SERVER|11=84183|38=746|40=1|54=2|55=BAC|10=235|8=FIX.4.2|9=90|35=D|34=608|49=CLIENT|52=20250206-16:43:07.000|56=SERVER|11=13820|38=69|40=1|54=2|55=MSFT|10=036|8=FIX.4.2|9=88|35=F|34=609|49=CLIENT|52=20250206-16:43:07.000|56=SERVER|11=39620|41=97851|54=2|55=AAPL|10=222|8=FIX.4.2|9=88|35=F|34=610|49=CLIENT|52=20250206-16:43:07.000|56=SERVER|11=39620|41=97851|54=2|55=AAPL|10=214|8=FIX.4.2|9=91|35=D|34=611|49=CLIENT|52=20250206-16:43:07.000|56=SERVER|11=59742|38=380|40=1|54=5|55=MSFT|10=091|8=FIX.4.2|9=90|35=D|34=612|49=CLIENT|52=20250206-16:43:07.000|56=SERVER|11=9776|38=942|40=1|54=5|55=AAPL|10=021|8=FIX.4.2|9=90|35=D|34=613|49=CLIENT|52=20250206-16:43:07.000|56=SERVER|11=7250|38=127|40=1|54=2|55=AAPL|10=255|8=FIX.4.2|9=109|35=D|34=614|49=CLIENT|52=20250206-16:43:07.000|56=SERVER|11=31517|38=27|40=2|44=128.85960775977|54=1|55=AAPL|10=248|8=FIX.4.2|9=88|35=F|34=615|49=CLIENT|52=20250206-16:43:07.000|56=SERVER|11=94041|41=17699|54=5|55=AAPL|10=222|8=FIX.4.2|9=88|35=F|34=616|49=CLIENT|52=20250206-16:43:07.000|56=SERVER|11=94041|41=17699|54=5|55=AAPL|10=223|8=FIX.4.2|9=91|35=D|34=617|49=CLIENT|52=20250206-16:43:07.000|56=SERVER|11=12994|38=120|40=1|54=1|55=AAPL|10=055|8=FIX.4.2|9=91|35=D|34=618|49=CLIENT|52=20250206-16:43:08.000|56=SERVER|11=35189|38=545|40=1|54=5|55=AAPL|10=073|8=FIX.4.2|9=111|35=D|34=619|49=CLIENT|52=20250206-16:43:08.000|56=SERVER|11=27796|38=236|40=2|44=124.970605302026|54=2|55=MSFT|10=098|8=FIX.4.2|9=91|35=D|34=620|49=CLIENT|52=20250206-16:43:08.000|56=SERVER|11=13150|38=237|40=1|54=5|55=MSFT|10=076|8=FIX.4.2|9=110|35=D|34=621|49=CLIENT|52=20250206-16:43:08.000|56=SERVER|11=72849|38=519|40=2|44=138.553473561827|54=2|55=BAC|10=254|8=FIX.4.2|9=91|35=D|34=622|49=CLIENT|52=20250206-16:43:08.000|56=SERVER|11=53977|38=308|40=1|54=5|55=AAPL|10=070|8=FIX.4.2|9=111|35=D|34=623|49=CLIENT|52=20250206-16:43:08.000|56=SERVER|11=13143|38=353|40=2|44=139.128653286712|54=2|55=AAPL|10=063|8=FIX.4.2|9=90|35=D|34=624|49=CLIENT|52=20250206-16:43:08.000|56=SERVER|11=89302|38=27|40=1|54=5|55=AAPL|10=012|8=FIX.4.2|9=111|35=D|34=625|49=CLIENT|52=20250206-16:43:08.000|56=SERVER|11=72909|38=317|40=2|44=114.531304807794|54=5|55=AAPL|10=076|8=FIX.4.2|9=87|35=F|34=626|49=CLIENT|52=20250206-16:43:08.000|56=SERVER|11=78731|41=34094|54=2|55=BAC|10=129|8=FIX.4.2|9=87|35=F|34=627|49=CLIENT|52=20250206-16:43:08.000|56=SERVER|11=78731|41=34094|54=2|55=BAC|10=130|8=FIX.4.2|9=111|35=D|34=628|49=CLIENT|52=20250206-16:43:08.000|56=SERVER|11=98346|38=629|40=2|44=151.202232298759|54=1|55=MSFT|10=113|8=FIX.4.2|9=91|35=D|34=629|49=CLIENT|52=20250206-16:43:09.000|56=SERVER|11=36292|38=122|40=1|54=5|55=AAPL|10=063|8=FIX.4.2|9=110|35=D|34=630|49=CLIENT|52=20250206-16:43:09.000|56=SERVER|11=78293|38=396|40=2|44=179.921468625202|54=2|55=BAC|10=253|8=FIX.4.2|9=110|35=D|34=631|49=CLIENT|52=20250206-16:43:09.000|56=SERVER|11=2196|38=209|40=2|44=149.864289476731|54=2|55=MSFT|10=063|8=FIX.4.2|9=109|35=D|34=632|49=CLIENT|52=20250206-16:43:09.000|56=SERVER|11=78289|38=76|40=2|44=184.690870547005|54=2|55=BAC|10=215|8=FIX.4.2|9=111|35=D|34=633|49=CLIENT|52=20250206-16:43:09.000|56=SERVER|11=40028|38=156|40=2|44=198.024909056205|54=2|55=AAPL|10=064|8=FIX.4.2|9=111|35=D|34=634|49=CLIENT|52=20250206-16:43:09.000|56=SERVER|11=99086|38=650|40=2|44=177.284108826807|54=1|55=MSFT|10=118|8=FIX.4.2|9=91|35=D|34=635|49=CLIENT|52=20250206-16:43:09.000|56=SERVER|11=83887|38=298|40=1|54=5|55=AAPL|10=086|8=FIX.4.2|9=87|35=F|34=636|49=CLIENT|52=20250206-16:43:09.000|56=SERVER|11=77960|41=42507|54=5|55=BAC|10=135|8=FIX.4.2|9=87|35=F|34=637|49=CLIENT|52=20250206-16:43:09.000|56=SERVER|11=77960|41=42507|54=5|55=BAC|10=136|8=FIX.4.2|9=90|35=D|34=638|49=CLIENT|52=20250206-16:43:09.000|56=SERVER|11=24125|38=50|40=1|54=2|55=MSFT|10=031|8=FIX.4.2|9=111|35=D|34=639|49=CLIENT|52=20250206-16:43:09.000|56=SERVER|11=63508|38=919|40=2|44=188.916607357203|54=1|55=AAPL|10=090|8=FIX.4.2|9=90|35=D|34=640|49=CLIENT|52=20250206-16:43:10.000|56=SERVER|11=8013|38=213|40=1|54=2|55=AAPL|10=243|8=FIX.4.2|9=110|35=D|34=641|49=CLIENT|52=20250206-16:43:10.000|56=SERVER|11=78599|38=333|40=2|44=198.441684942348|54=5|55=BAC|10=005|8=FIX.4.2|9=110|35=D|34=642|49=CLIENT|52=20250206-16:43:10.000|56=SERVER|11=5136|38=634|40=2|44=135.273244401543|54=5|55=MSFT|10=028|8=FIX.4.2|9=111|35=D|34=643|49=CLIENT|52=20250206-16:43:10.000|56=SERVER|11=24975|38=927|40=2|44=102.313347917225|54=5|55=AAPL|10=069|8=FIX.4.2|9=90|35=D|34=644|49=CLIENT|52=20250206-16:43:10.000|56=SERVER|11=75565|38=434|40=1|54=5|55=BAC|10=231|8=FIX.4.2|9=88|35=F|34=645|49=CLIENT|52=20250206-16:43:10.000|56=SERVER|11=26016|41=96133|54=1|55=AAPL|10=202|8=FIX.4.2|9=88|35=F|34=646|49=CLIENT|52=20250206-16:43:10.000|56=SERVER|11=26016|41=96133|54=1|55=AAPL|10=203|8=FIX.4.2|9=91|35=D|34=647|49=CLIENT|52=20250206-16:43:10.000|56=SERVER|11=23341|38=855|40=1|54=1|55=MSFT|10=083|8=FIX.4.2|9=91|35=D|34=648|49=CLIENT|52=20250206-16:43:10.000|56=SERVER|11=89542|38=978|40=1|54=2|55=MSFT|10=106|8=FIX.4.2|9=90|35=D|34=649|49=CLIENT|52=20250206-16:43:10.000|56=SERVER|11=18724|38=304|40=1|54=2|55=BAC|10=223|8=FIX.4.2|9=91|35=D|34=650|49=CLIENT|52=20250206-16:43:10.000|56=SERVER|11=37843|38=303|40=1|54=1|55=AAPL|10=049|8=FIX.4.2|9=88|35=F|34=651|49=CLIENT|52=20250206-16:43:10.000|56=SERVER|11=37403|41=33109|54=5|55=AAPL|10=199|8=FIX.4.2|9=88|35=F|34=652|49=CLIENT|52=20250206-16:43:10.000|56=SERVER|11=37403|41=33109|54=5|55=AAPL|10=200|8=FIX.4.2|9=89|35=D|34=653|49=CLIENT|52=20250206-16:43:11.000|56=SERVER|11=3824|38=892|40=1|54=1|55=BAC|10=185|8=FIX.4.2|9=110|35=D|34=654|49=CLIENT|52=20250206-16:43:11.000|56=SERVER|11=26719|38=129|40=2|44=126.062215862453|54=2|55=BAC|10=231|8=FIX.4.2|9=91|35=D|34=655|49=CLIENT|52=20250206-16:43:11.000|56=SERVER|11=86474|38=907|40=1|54=2|55=AAPL|10=070|8=FIX.4.2|9=87|35=F|34=656|49=CLIENT|52=20250206-16:43:11.000|56=SERVER|11=45946|41=3974|54=1|55=MSFT|10=198|8=FIX.4.2|9=87|35=F|34=657|49=CLIENT|52=20250206-16:43:11.000|56=SERVER|11=45946|41=3974|54=1|55=MSFT|10=199|8=FIX.4.2|9=90|35=D|34=658|49=CLIENT|52=20250206-16:43:11.000|56=SERVER|11=15395|38=421|40=1|54=2|55=BAC|10=225|8=FIX.4.2|9=110|35=D|34=659|49=CLIENT|52=20250206-16:43:11.000|56=SERVER|11=18867|38=749|40=2|44=155.07255582843|54=2|55=MSFT|10=068|8=FIX.4.2|9=107|35=D|34=660|49=CLIENT|52=20250206-16:43:11.000|56=SERVER|11=36580|38=4|40=2|44=112.0303969993|54=2|55=AAPL|10=121|8=FIX.4.2|9=90|35=D|34=661|49=CLIENT|52=20250206-16:43:11.000|56=SERVER|11=54855|38=19|40=1|54=2|55=AAPL|10=010|8=FIX.4.2|9=110|35=D|34=662|49=CLIENT|52=20250206-16:43:11.000|56=SERVER|11=31809|38=135|40=2|44=101.374680370851|54=2|55=BAC|10=224|8=FIX.4.2|9=90|35=D|34=663|49=CLIENT|52=20250206-16:43:11.000|56=SERVER|11=85367|38=168|40=1|54=5|55=BAC|10=238|8=FIX.4.2|9=87|35=F|34=664|49=CLIENT|52=20250206-16:43:11.000|56=SERVER|11=76822|41=5750|54=1|55=MSFT|10=188|8=FIX.4.2|9=87|35=F|34=665|49=CLIENT|52=20250206-16:43:11.000|56=SERVER|11=76822|41=5750|54=1|55=MSFT|10=189|8=FIX.4.2|9=110|35=D|34=666|49=CLIENT|52=20250206-16:43:12.000|56=SERVER|11=34070|38=476|40=2|44=199.196685949383|54=5|55=BAC|10=013|8=FIX.4.2|9=111|35=D|34=667|49=CLIENT|52=20250206-16:43:12.000|56=SERVER|11=19771|38=308|40=2|44=165.154537663451|54=2|55=MSFT|10=105|8=FIX.4.2|9=110|35=D|34=668|49=CLIENT|52=20250206-16:43:12.000|56=SERVER|11=89688|38=598|40=2|44=191.73489071315|54=2|55=MSFT|10=079|8=FIX.4.2|9=88|35=F|34=669|49=CLIENT|52=20250206-16:43:12.000|56=SERVER|11=46566|41=81132|54=1|55=MSFT|10=243|8=FIX.4.2|9=88|35=F|34=670|49=CLIENT|52=20250206-16:43:12.000|56=SERVER|11=46566|41=81132|54=1|55=MSFT|10=235|8=FIX.4.2|9=110|35=D|34=671|49=CLIENT|52=20250206-16:43:12.000|56=SERVER|11=7444|38=472|40=2|44=160.530103405575|54=1|55=AAPL|10=001|8=FIX.4.2|9=91|35=D|34=672|49=CLIENT|52=20250206-16:43:12.000|56=SERVER|11=17058|38=201|40=1|54=1|55=AAPL|10=048|8=FIX.4.2|9=109|35=D|34=673|49=CLIENT|52=20250206-16:43:12.000|56=SERVER|11=2588|38=824|40=2|44=169.462665008546|54=2|55=BAC|10=208|8=FIX.4.2|9=111|35=D|34=674|49=CLIENT|52=20250206-16:43:12.000|56=SERVER|11=54701|38=587|40=2|44=182.541445408685|54=2|55=MSFT|10=107|8=FIX.4.2|9=88|35=F|34=675|49=CLIENT|52=20250206-16:43:12.000|56=SERVER|11=99059|41=11514|54=2|55=MSFT|10=243|8=FIX.4.2|9=88|35=F|34=676|49=CLIENT|52=20250206-16:43:12.000|56=SERVER|11=99059|41=11514|54=2|55=MSFT|10=244|8=FIX.4.2|9=110|35=D|34=677|49=CLIENT|52=20250206-16:43:12.000|56=SERVER|11=38265|38=390|40=2|44=127.533503545867|54=5|55=BAC|10=250|8=FIX.4.2|9=111|35=D|34=678|49=CLIENT|52=20250206-16:43:12.000|56=SERVER|11=79155|38=653|40=2|44=170.610895310581|54=2|55=AAPL|10=077|8=FIX.4.2|9=110|35=D|34=679|49=CLIENT|52=20250206-16:43:13.000|56=SERVER|11=91509|38=659|40=2|44=147.193212779225|54=2|55=BAC|10=000|8=FIX.4.2|9=90|35=D|34=680|49=CLIENT|52=20250206-16:43:13.000|56=SERVER|11=97676|38=37|40=1|54=5|55=AAPL|10=024|8=FIX.4.2|9=90|35=D|34=681|49=CLIENT|52=20250206-16:43:13.000|56=SERVER|11=9633|38=549|40=1|54=1|55=AAPL|10=015|8=FIX.4.2|9=91|35=D|34=682|49=CLIENT|52=20250206-16:43:13.000|56=SERVER|11=12081|38=768|40=1|54=2|55=AAPL|10=060|8=FIX.4.2|9=110|35=D|34=683|49=CLIENT|52=20250206-16:43:13.000|56=SERVER|11=31790|38=369|40=2|44=125.924887785326|54=5|55=BAC|10=007|8=FIX.4.2|9=90|35=D|34=684|49=CLIENT|52=20250206-16:43:13.000|56=SERVER|11=26982|38=334|40=1|54=1|55=BAC|10=232|8=FIX.4.2|9=89|35=D|34=685|49=CLIENT|52=20250206-16:43:13.000|56=SERVER|11=9765|38=166|40=1|54=2|55=BAC|10=197|8=FIX.4.2|9=110|35=D|34=686|49=CLIENT|52=20250206-16:43:13.000|56=SERVER|11=95611|38=135|40=2|44=169.139492212934|54=5|55=BAC|10=247|8=FIX.4.2|9=109|35=D|34=687|49=CLIENT|52=20250206-16:43:13.000|56=SERVER|11=25464|38=81|40=2|44=110.996335487773|54=1|55=BAC|10=211|8=FIX.4.2|9=88|35=F|34=688|49=CLIENT|52=20250206-16:43:13.000|56=SERVER|11=75871|41=94640|54=5|55=AAPL|10=230|8=FIX.4.2|9=88|35=F|34=689|49=CLIENT|52=20250206-16:43:13.000|56=SERVER|11=75871|41=94640|54=5|55=AAPL|10=231|8=FIX.4.2|9=91|35=D|34=690|49=CLIENT|52=20250206-16:43:14.000|56=SERVER|11=11914|38=334|40=1|54=5|55=MSFT|10=084|8=FIX.4.2|9=87|35=F|34=691|49=CLIENT|52=20250206-16:43:14.000|56=SERVER|11=60137|41=9538|54=2|55=AAPL|10=164|8=FIX.4.2|9=87|35=F|34=692|49=CLIENT|52=20250206-16:43:14.000|56=SERVER|11=60137|41=9538|54=2|55=AAPL|10=165|8=FIX.4.2|9=112|35=D|34=693|49=CLIENT|52=20250206-16:43:14.000|56=SERVER|11=11044|38=1000|40=2|44=156.601349894373|54=5|55=AAPL|10=112|8=FIX.4.2|9=111|35=D|34=694|49=CLIENT|52=20250206-16:43:14.000|56=SERVER|11=79140|38=781|40=2|44=112.582766154694|54=2|55=MSFT|10=113|8=FIX.4.2|9=89|35=D|34=695|49=CLIENT|52=20250206-16:43:14.000|56=SERVER|11=34542|38=45|40=1|54=1|55=BAC|10=185|8=FIX.4.2|9=88|35=F|34=696|49=CLIENT|52=20250206-16:43:14.000|56=SERVER|11=41996|41=81388|54=5|55=AAPL|10=236|8=FIX.4.2|9=88|35=F|34=697|49=CLIENT|52=20250206-16:43:14.000|56=SERVER|11=41996|41=81388|54=5|55=AAPL|10=237|8=FIX.4.2|9=90|35=D|34=698|49=CLIENT|52=20250206-16:43:14.000|56=SERVER|11=37415|38=532|40=1|54=5|55=BAC|10=235|8=FIX.4.2|9=91|35=D|34=699|49=CLIENT|52=20250206-16:43:14.000|56=SERVER|11=75875|38=988|40=1|54=5|55=AAPL|10=096|8=FIX.4.2|9=91|35=D|34=700|49=CLIENT|52=20250206-16:43:14.000|56=SERVER|11=16076|38=751|40=1|54=5|55=MSFT|10=083|8=FIX.4.2|9=91|35=D|34=701|49=CLIENT|52=20250206-16:43:14.000|56=SERVER|11=14213|38=514|40=1|54=5|55=MSFT|10=072|8=FIX.4.2|9=111|35=D|34=702|49=CLIENT|52=20250206-16:43:14.000|56=SERVER|11=18512|38=520|40=2|44=119.418366393081|54=5|55=AAPL|10=061|8=FIX.4.2|9=90|35=D|34=703|49=CLIENT|52=20250206-16:43:14.000|56=SERVER|11=70680|38=157|40=1|54=5|55=BAC|10=226|8=FIX.4.2|9=90|35=D|34=704|49=CLIENT|52=20250206-16:43:15.000|56=SERVER|11=39929|38=492|40=1|54=2|55=BAC|10=238|8=FIX.4.2|9=110|35=D|34=705|49=CLIENT|52=20250206-16:43:15.000|56=SERVER|11=2999|38=586|40=2|44=132.284654811359|54=1|55=AAPL|10=035|8=FIX.4.2|9=91|35=D|34=706|49=CLIENT|52=20250206-16:43:15.000|56=SERVER|11=98290|38=288|40=1|54=2|55=MSFT|10=100|8=FIX.4.2|9=91|35=D|34=707|49=CLIENT|52=20250206-16:43:15.000|56=SERVER|11=13029|38=340|40=1|54=1|55=AAPL|10=048|8=FIX.4.2|9=111|35=D|34=708|49=CLIENT|52=20250206-16:43:15.000|56=SERVER|11=77932|38=634|40=2|44=134.719649813539|54=5|55=MSFT|10=123|8=FIX.4.2|9=111|35=D|34=709|49=CLIENT|52=20250206-16:43:15.000|56=SERVER|11=71845|38=801|40=2|44=126.716507819296|54=1|55=AAPL|10=082|8=FIX.4.2|9=90|35=D|34=710|49=CLIENT|52=20250206-16:43:15.000|56=SERVER|11=23427|38=607|40=1|54=1|55=BAC|10=218|8=FIX.4.2|9=89|35=D|34=711|49=CLIENT|52=20250206-16:43:15.000|56=SERVER|11=15541|38=77|40=1|54=5|55=BAC|10=182|8=FIX.4.2|9=89|35=D|34=712|49=CLIENT|52=20250206-16:43:15.000|56=SERVER|11=41606|38=54|40=1|54=2|55=BAC|10=176|8=FIX.4.2|9=91|35=D|34=713|49=CLIENT|52=20250206-16:43:16.000|56=SERVER|11=22495|38=332|40=1|54=5|55=MSFT|10=086|8=FIX.4.2|9=110|35=D|34=714|49=CLIENT|52=20250206-16:43:16.000|56=SERVER|11=1649|38=822|40=2|44=130.954178234243|54=2|55=AAPL|10=015|8=FIX.4.2|9=87|35=F|34=715|49=CLIENT|52=20250206-16:43:16.000|56=SERVER|11=37175|41=9633|54=2|55=AAPL|10=165|8=FIX.4.2|9=87|35=F|34=716|49=CLIENT|52=20250206-16:43:16.000|56=SERVER|11=37175|41=9633|54=2|55=AAPL|10=166|8=FIX.4.2|9=91|35=D|34=717|49=CLIENT|52=20250206-16:43:16.000|56=SERVER|11=66357|38=717|40=1|54=1|55=MSFT|10=098|8=FIX.4.2|9=91|35=D|34=718|49=CLIENT|52=20250206-16:43:16.000|56=SERVER|11=83652|38=136|40=1|54=2|55=MSFT|10=092|8=FIX.4.2|9=111|35=D|34=719|49=CLIENT|52=20250206-16:43:16.000|56=SERVER|11=44994|38=840|40=2|44=114.864987881815|54=1|55=MSFT|10=129|8=FIX.4.2|9=91|35=D|34=720|49=CLIENT|52=20250206-16:43:16.000|56=SERVER|11=28876|38=119|40=1|54=5|55=MSFT|10=096|8=FIX.4.2|9=91|35=D|34=721|49=CLIENT|52=20250206-16:43:16.000|56=SERVER|11=82089|38=924|40=1|54=1|55=AAPL|10=065|8=FIX.4.2|9=110|35=D|34=722|49=CLIENT|52=20250206-16:43:16.000|56=SERVER|11=23838|38=331|40=2|44=196.550995956149|54=5|55=BAC|10=003|8=FIX.4.2|9=110|35=D|34=723|49=CLIENT|52=20250206-16:43:16.000|56=SERVER|11=42085|38=78|40=2|44=111.521523264648|54=2|55=AAPL|10=012|8=FIX.4.2|9=110|35=D|34=724|49=CLIENT|52=20250206-16:43:17.000|56=SERVER|11=98294|38=165|40=2|44=155.368537050594|54=1|55=BAC|10=254|8=FIX.4.2|9=111|35=D|34=725|49=CLIENT|52=20250206-16:43:17.000|56=SERVER|11=23120|38=145|40=2|44=179.787084965296|54=1|55=MSFT|10=112|8=FIX.4.2|9=90|35=D|34=726|49=CLIENT|52=20250206-16:43:17.000|56=SERVER|11=21889|38=815|40=1|54=1|55=BAC|10=238|8=FIX.4.2|9=90|35=D|34=727|49=CLIENT|52=20250206-16:43:17.000|56=SERVER|11=71367|38=338|40=1|54=5|55=BAC|10=239|8=FIX.4.2|9=88|35=F|34=728|49=CLIENT|52=20250206-16:43:17.000|56=SERVER|11=63170|41=50784|54=5|55=AAPL|10=219|8=FIX.4.2|9=88|35=F|34=729|49=CLIENT|52=20250206-16:43:17.000|56=SERVER|11=63170|41=50784|54=5|55=AAPL|10=220|8=FIX.4.2|9=111|35=D|34=730|49=CLIENT|52=20250206-16:43:17.000|56=SERVER|11=84972|38=401|40=2|44=158.264223222774|54=5|55=MSFT|10=098|8=FIX.4.2|9=91|35=D|34=731|49=CLIENT|52=20250206-16:43:17.000|56=SERVER|11=92764|38=911|40=1|54=1|55=AAPL|10=064|8=FIX.4.2|9=91|35=D|34=732|49=CLIENT|52=20250206-16:43:17.000|56=SERVER|11=55171|38=387|40=1|54=1|55=AAPL|10=063|8=FIX.4.2|9=91|35=D|34=733|49=CLIENT|52=20250206-16:43:17.000|56=SERVER|11=16617|38=286|40=1|54=2|55=MSFT|10=093|8=FIX.4.2|9=89|35=D|34=734|49=CLIENT|52=20250206-16:43:17.000|56=SERVER|11=8001|38=17|40=1|54=1|55=AAPL|10=212|8=FIX.4.2|9=110|35=D|34=735|49=CLIENT|52=20250206-16:43:18.000|56=SERVER|11=31181|38=469|40=2|44=131.398702679683|54=2|55=BAC|10=254|8=FIX.4.2|9=90|35=D|34=736|49=CLIENT|52=20250206-16:43:18.000|56=SERVER|11=12992|38=432|40=1|54=2|55=BAC|10=231|8=FIX.4.2|9=90|35=D|34=737|49=CLIENT|52=20250206-16:43:18.000|56=SERVER|11=80992|38=412|40=1|54=2|55=BAC|10=235|8=FIX.4.2|9=109|35=D|34=738|49=CLIENT|52=20250206-16:43:18.000|56=SERVER|11=77638|38=4|40=2|44=160.850888819937|54=2|55=MSFT|10=039|8=FIX.4.2|9=90|35=D|34=739|49=CLIENT|52=20250206-16:43:18.000|56=SERVER|11=64642|38=817|40=1|54=1|55=BAC|10=239|8=FIX.4.2|9=89|35=D|34=740|49=CLIENT|52=20250206-16:43:18.000|56=SERVER|11=64677|38=46|40=1|54=1|55=BAC|10=193|8=FIX.4.2|9=91|35=D|34=741|49=CLIENT|52=20250206-16:43:18.000|56=SERVER|11=58832|38=314|40=1|54=5|55=AAPL|10=065|8=FIX.4.2|9=91|35=D|34=742|49=CLIENT|52=20250206-16:43:18.000|56=SERVER|11=15470|38=505|40=1|54=2|55=MSFT|10=084|8=FIX.4.2|9=91|35=D|34=743|49=CLIENT|52=20250206-16:43:18.000|56=SERVER|11=27073|38=150|40=1|54=1|55=AAPL|10=054|8=FIX.4.2|9=88|35=F|34=744|49=CLIENT|52=20250206-16:43:18.000|56=SERVER|11=15800|41=37415|54=2|55=AAPL|10=208|8=FIX.4.2|9=88|35=F|34=745|49=CLIENT|52=20250206-16:43:18.000|56=SERVER|11=15800|41=37415|54=2|55=AAPL|10=209|8=FIX.4.2|9=110|35=D|34=746|49=CLIENT|52=20250206-16:43:19.000|56=SERVER|11=97416|38=47|40=2|44=185.682158070569|54=2|55=MSFT|10=072|8=FIX.4.2|9=111|35=D|34=747|49=CLIENT|52=20250206-16:43:19.000|56=SERVER|11=46501|38=882|40=2|44=150.553516155212|54=1|55=AAPL|10=065|8=FIX.4.2|9=91|35=D|34=748|49=CLIENT|52=20250206-16:43:19.000|56=SERVER|11=16791|38=755|40=1|54=2|55=MSFT|10=105|8=FIX.4.2|9=87|35=F|34=749|49=CLIENT|52=20250206-16:43:19.000|56=SERVER|11=67929|41=38478|54=1|55=BAC|10=153|8=FIX.4.2|9=87|35=F|34=750|49=CLIENT|52=20250206-16:43:19.000|56=SERVER|11=67929|41=38478|54=1|55=BAC|10=145|8=FIX.4.2|9=90|35=D|34=751|49=CLIENT|52=20250206-16:43:19.000|56=SERVER|11=15078|38=946|40=1|54=1|55=BAC|10=236|8=FIX.4.2|9=91|35=D|34=752|49=CLIENT|52=20250206-16:43:19.000|56=SERVER|11=87574|38=768|40=1|54=1|55=MSFT|10=110|8=FIX.4.2|9=111|35=D|34=753|49=CLIENT|52=20250206-16:43:19.000|56=SERVER|11=41922|38=167|40=2|44=146.823963723089|54=2|55=MSFT|10=113|8=FIX.4.2|9=90|35=D|34=754|49=CLIENT|52=20250206-16:43:19.000|56=SERVER|11=50523|38=47|40=1|54=1|55=MSFT|10=037|8=FIX.4.2|9=90|35=D|34=755|49=CLIENT|52=20250206-16:43:19.000|56=SERVER|11=86137|38=815|40=1|54=5|55=BAC|10=243|8=FIX.4.2|9=110|35=D|34=756|49=CLIENT|52=20250206-16:43:19.000|56=SERVER|11=75953|38=755|40=2|44=180.613838540815|54=1|55=BAC|10=002|8=FIX.4.2|9=91|35=D|34=757|49=CLIENT|52=20250206-16:43:20.000|56=SERVER|11=16709|38=198|40=1|54=2|55=AAPL|10=069|8=FIX.4.2|9=91|35=D|34=758|49=CLIENT|52=20250206-16:43:20.000|56=SERVER|11=73074|38=263|40=1|54=1|55=AAPL|10=060|8=FIX.4.2|9=109|35=D|34=759|49=CLIENT|52=20250206-16:43:20.000|56=SERVER|11=5949|38=984|40=2|44=169.457156500662|54=5|55=BAC|10=221|8=FIX.4.2|9=109|35=D|34=760|49=CLIENT|52=20250206-16:43:20.000|56=SERVER|11=4885|38=472|40=2|44=159.157740727634|54=2|55=BAC|10=205|8=FIX.4.2|9=91|35=D|34=761|49=CLIENT|52=20250206-16:43:20.000|56=SERVER|11=60593|38=867|40=1|54=2|55=MSFT|10=095|8=FIX.4.2|9=111|35=D|34=762|49=CLIENT|52=20250206-16:43:20.000|56=SERVER|11=71235|38=232|40=2|44=171.992053160141|54=1|55=AAPL|10=048|8=FIX.4.2|9=110|35=D|34=763|49=CLIENT|52=20250206-16:43:20.000|56=SERVER|11=7143|38=856|40=2|44=160.433660959611|54=2|55=MSFT|10=048|8=FIX.4.2|9=91|35=D|34=764|49=CLIENT|52=20250206-16:43:20.000|56=SERVER|11=83784|38=707|40=1|54=5|55=MSFT|10=101|8=FIX.4.2|9=91|35=D|34=765|49=CLIENT|52=20250206-16:43:20.000|56=SERVER|11=60999|38=190|40=1|54=1|55=AAPL|10=069|8=FIX.4.2|9=111|35=D|34=766|49=CLIENT|52=20250206-16:43:20.000|56=SERVER|11=87421|38=319|40=2|44=190.527169590645|54=5|55=AAPL|10=085|8=FIX.4.2|9=90|35=D|34=767|49=CLIENT|52=20250206-16:43:21.000|56=SERVER|11=90167|38=544|40=1|54=5|55=BAC|10=236|8=FIX.4.2|9=88|35=F|34=768|49=CLIENT|52=20250206-16:43:21.000|56=SERVER|11=81647|41=21569|54=5|55=AAPL|10=226|8=FIX.4.2|9=88|35=F|34=769|49=CLIENT|52=20250206-16:43:21.000|56=SERVER|11=81647|41=21569|54=5|55=AAPL|10=227|8=FIX.4.2|9=90|35=D|34=770|49=CLIENT|52=20250206-16:43:21.000|56=SERVER|11=99482|38=536|40=1|54=5|55=BAC|10=240|8=FIX.4.2|9=111|35=D|34=771|49=CLIENT|52=20250206-16:43:21.000|56=SERVER|11=39116|38=559|40=2|44=117.803423557886|54=2|55=MSFT|10=110|8=FIX.4.2|9=87|35=F|34=772|49=CLIENT|52=20250206-16:43:21.000|56=SERVER|11=7199|41=16791|54=1|55=MSFT|10=197|8=FIX.4.2|9=87|35=F|34=773|49=CLIENT|52=20250206-16:43:21.000|56=SERVER|11=7199|41=16791|54=1|55=MSFT|10=198|8=FIX.4.2|9=111|35=D|34=774|49=CLIENT|52=20250206-16:43:21.000|56=SERVER|11=77052|38=659|40=2|44=128.518069266653|54=2|55=AAPL|10=087|8=FIX.4.2|9=111|35=D|34=775|49=CLIENT|52=20250206-16:43:21.000|56=SERVER|11=75537|38=240|40=2|44=139.020239656614|54=2|55=AAPL|10=069|8=FIX.4.2|9=110|35=D|34=776|49=CLIENT|52=20250206-16:43:21.000|56=SERVER|11=85614|38=992|40=2|44=150.62321599929|54=1|55=MSFT|10=065|8=FIX.4.2|9=91|35=D|34=777|49=CLIENT|52=20250206-16:43:21.000|56=SERVER|11=35658|38=286|40=1|54=1|55=MSFT|10=101|8=FIX.4.2|9=110|35=D|34=778|49=CLIENT|52=20250206-16:43:21.000|56=SERVER|11=45961|38=748|40=2|44=184.594906834164|54=2|55=BAC|10=009|8=FIX.4.2|9=110|35=D|34=779|49=CLIENT|52=20250206-16:43:21.000|56=SERVER|11=67374|38=607|40=2|44=146.791508898442|54=2|55=BAC|10=010|8=FIX.4.2|9=91|35=D|34=780|49=CLIENT|52=20250206-16:43:22.000|56=SERVER|11=20707|38=779|40=1|54=2|55=AAPL|10=065|8=FIX.4.2|9=91|35=D|34=781|49=CLIENT|52=20250206-16:43:22.000|56=SERVER|11=12246|38=729|40=1|54=1|55=AAPL|10=059|8=FIX.4.2|9=111|35=D|34=782|49=CLIENT|52=20250206-16:43:22.000|56=SERVER|11=84983|38=596|40=2|44=194.093850692514|54=1|55=MSFT|10=123|8=FIX.4.2|9=91|35=D|34=783|49=CLIENT|52=20250206-16:43:22.000|56=SERVER|11=34968|38=456|40=1|54=1|55=AAPL|10=073|8=FIX.4.2|9=87|35=F|34=784|49=CLIENT|52=20250206-16:43:22.000|56=SERVER|11=49504|41=92455|54=2|55=BAC|10=131|8=FIX.4.2|9=87|35=F|34=785|49=CLIENT|52=20250206-16:43:22.000|56=SERVER|11=49504|41=92455|54=2|55=BAC|10=132|8=FIX.4.2|9=91|35=D|34=786|49=CLIENT|52=20250206-16:43:22.000|56=SERVER|11=12633|38=537|40=1|54=5|55=AAPL|10=065|8=FIX.4.2|9=91|35=D|34=787|49=CLIENT|52=20250206-16:43:22.000|56=SERVER|11=19457|38=539|40=1|54=2|55=MSFT|10=104|8=FIX.4.2|9=91|35=D|34=788|49=CLIENT|52=20250206-16:43:22.000|56=SERVER|11=64599|38=196|40=1|54=1|55=AAPL|10=082|8=FIX.4.2|9=90|35=D|34=789|49=CLIENT|52=20250206-16:43:22.000|56=SERVER|11=93560|38=353|40=1|54=5|55=BAC|10=239|8=FIX.4.2|9=90|35=D|34=790|49=CLIENT|52=20250206-16:43:22.000|56=SERVER|11=95515|38=76|40=1|54=1|55=MSFT|10=043|8=FIX.4.2|9=91|35=D|34=791|49=CLIENT|52=20250206-16:43:23.000|56=SERVER|11=69024|38=705|40=1|54=2|55=MSFT|10=090|8=FIX.4.2|9=89|35=D|34=792|49=CLIENT|52=20250206-16:43:23.000|56=SERVER|11=93023|38=2|40=1|54=5|55=AAPL|10=219|8=FIX.4.2|9=91|35=D|34=793|49=CLIENT|52=20250206-16:43:23.000|56=SERVER|11=96995|38=980|40=1|54=1|55=AAPL|10=085|8=FIX.4.2|9=91|35=D|34=794|49=CLIENT|52=20250206-16:43:23.000|56=SERVER|11=34590|38=734|40=1|54=2|55=MSFT|10=095|8=FIX.4.2|9=90|35=D|34=795|49=CLIENT|52=20250206-16:43:23.000|56=SERVER|11=34613|38=235|40=1|54=1|55=BAC|10=226|8=FIX.4.2|9=90|35=D|34=796|49=CLIENT|52=20250206-16:43:23.000|56=SERVER|11=18242|38=606|40=1|54=2|55=BAC|10=230|8=FIX.4.2|9=111|35=D|34=797|49=CLIENT|52=20250206-16:43:23.000|56=SERVER|11=42906|38=796|40=2|44=120.470505280113|54=1|55=MSFT|10=094|8=FIX.4.2|9=90|35=D|34=798|49=CLIENT|52=20250206-16:43:23.000|56=SERVER|11=88305|38=132|40=1|54=5|55=BAC|10=236|8=FIX.4.2|9=88|35=F|34=799|49=CLIENT|52=20250206-16:43:23.000|56=SERVER|11=82026|41=64921|54=1|55=AAPL|10=219|8=FIX.4.2|9=88|35=F|34=800|49=CLIENT|52=20250206-16:43:23.000|56=SERVER|11=82026|41=64921|54=1|55=AAPL|10=202|8=FIX.4.2|9=111|35=D|34=801|49=CLIENT|52=20250206-16:43:23.000|56=SERVER|11=24935|38=555|40=2|44=142.820369948345|54=1|55=MSFT|10=104|8=FIX.4.2|9=110|35=D|34=802|49=CLIENT|52=20250206-16:43:24.000|56=SERVER|11=15906|38=909|40=2|44=132.394375515806|54=5|55=BAC|10=244|8=FIX.4.2|9=90|35=D|34=803|49=CLIENT|52=20250206-16:43:24.000|56=SERVER|11=2536|38=620|40=1|54=2|55=AAPL|10=255|8=FIX.4.2|9=111|35=D|34=804|49=CLIENT|52=20250206-16:43:24.000|56=SERVER|11=87092|38=411|40=2|44=173.202440583385|54=5|55=MSFT|10=093|8=FIX.4.2|9=91|35=D|34=805|49=CLIENT|52=20250206-16:43:24.000|56=SERVER|11=25419|38=402|40=1|54=1|55=AAPL|10=052|8=FIX.4.2|9=110|35=D|34=806|49=CLIENT|52=20250206-16:43:24.000|56=SERVER|11=76471|38=390|40=2|44=177.230477114403|54=5|55=BAC|10=235|8=FIX.4.2|9=110|35=D|34=807|49=CLIENT|52=20250206-16:43:24.000|56=SERVER|11=65339|38=873|40=2|44=139.53860102247|54=5|55=MSFT|10=055|8=FIX.4.2|9=110|35=D|34=808|49=CLIENT|52=20250206-16:43:24.000|56=SERVER|11=52855|38=484|40=2|44=111.814998239434|54=5|55=BAC|10=001|8=FIX.4.2|9=111|35=D|34=809|49=CLIENT|52=20250206-16:43:24.000|56=SERVER|11=85961|38=660|40=2|44=182.869507878402|54=5|55=AAPL|10=099|8=FIX.4.2|9=90|35=D|34=810|49=CLIENT|52=20250206-16:43:24.000|56=SERVER|11=81161|38=871|40=1|54=2|55=BAC|10=222|8=FIX.4.2|9=110|35=D|34=811|49=CLIENT|52=20250206-16:43:25.000|56=SERVER|11=62046|38=609|40=2|44=175.393421954937|54=1|55=BAC|10=245|8=FIX.4.2|9=87|35=F|34=812|49=CLIENT|52=20250206-16:43:25.000|56=SERVER|11=3630|41=18943|54=2|55=MSFT|10=184|8=FIX.4.2|9=87|35=F|34=813|49=CLIENT|52=20250206-16:43:25.000|56=SERVER|11=3630|41=18943|54=2|55=MSFT|10=185|8=FIX.4.2|9=111|35=D|34=814|49=CLIENT|52=20250206-16:43:25.000|56=SERVER|11=33031|38=421|40=2|44=194.690090932777|54=2|55=AAPL|10=067|8=FIX.4.2|9=110|35=D|34=815|49=CLIENT|52=20250206-16:43:25.000|56=SERVER|11=49832|38=24|40=2|44=189.242509010553|54=5|55=MSFT|10=046|8=FIX.4.2|9=109|35=D|34=816|49=CLIENT|52=20250206-16:43:25.000|56=SERVER|11=71394|38=614|40=2|44=192.06128135856|54=5|55=BAC|10=201|8=FIX.4.2|9=91|35=D|34=817|49=CLIENT|52=20250206-16:43:25.000|56=SERVER|11=50002|38=779|40=1|54=5|55=MSFT|10=091|8=FIX.4.2|9=91|35=D|34=818|49=CLIENT|52=20250206-16:43:25.000|56=SERVER|11=52788|38=861|40=1|54=5|55=MSFT|10=107|8=FIX.4.2|9=110|35=D|34=819|49=CLIENT|52=20250206-16:43:25.000|56=SERVER|11=55588|38=324|40=2|44=154.804567493899|54=5|55=BAC|10=018|8=FIX.4.2|9=111|35=D|34=820|49=CLIENT|52=20250206-16:43:25.000|56=SERVER|11=83519|38=490|40=2|44=164.781130473507|54=5|55=AAPL|10=073|8=FIX.4.2|9=90|35=D|34=821|49=CLIENT|52=20250206-16:43:25.000|56=SERVER|11=6421|38=893|40=1|54=1|55=MSFT|10=036|8=FIX.4.2|9=111|35=D|34=822|49=CLIENT|52=20250206-16:43:26.000|56=SERVER|11=60488|38=488|40=2|44=169.391447138525|54=2|55=AAPL|10=091|8=FIX.4.2|9=110|35=D|34=823|49=CLIENT|52=20250206-16:43:26.000|56=SERVER|11=48751|38=86|40=2|44=199.252514304938|54=5|55=AAPL|10=036|8=FIX.4.2|9=110|35=D|34=824|49=CLIENT|52=20250206-16:43:26.000|56=SERVER|11=86343|38=165|40=2|44=130.856174916507|54=5|55=BAC|10=248|8=FIX.4.2|9=87|35=F|34=825|49=CLIENT|52=20250206-16:43:26.000|56=SERVER|11=69008|41=17958|54=1|55=BAC|10=136|8=FIX.4.2|9=87|35=F|34=826|49=CLIENT|52=20250206-16:43:26.000|56=SERVER|11=69008|41=17958|54=1|55=BAC|10=137|8=FIX.4.2|9=111|35=D|34=827|49=CLIENT|52=20250206-16:43:26.000|56=SERVER|11=23027|38=434|40=2|44=189.426556177189|54=5|55=MSFT|10=117|8=FIX.4.2|9=91|35=D|34=828|49=CLIENT|52=20250206-16:43:26.000|56=SERVER|11=24083|38=998|40=1|54=1|55=AAPL|10=075|8=FIX.4.2|9=91|35=D|34=829|49=CLIENT|52=20250206-16:43:26.000|56=SERVER|11=38946|38=554|40=1|54=5|55=MSFT|10=109|8=FIX.4.2|9=91|35=D|34=830|49=CLIENT|52=20250206-16:43:26.000|56=SERVER|11=91961|38=755|40=1|54=1|55=MSFT|10=096|8=FIX.4.2|9=91|35=D|34=831|49=CLIENT|52=20250206-16:43:26.000|56=SERVER|11=25689|38=106|40=1|54=5|55=AAPL|10=067|8=FIX.4.2|9=110|35=D|34=832|49=CLIENT|52=20250206-16:43:26.000|56=SERVER|11=97243|38=590|40=2|44=102.371037985459|54=5|55=BAC|10=251|8=FIX.4.2|9=111|35=D|34=833|49=CLIENT|52=20250206-16:43:26.000|56=SERVER|11=66433|38=263|40=2|44=191.0323