8=FIX.4.2|9=84|35=A|34=1|49=OPS_CANDIDATE_7_7595|52=20250209-15:59:10.000|56=DTL|98=0|108=30|141=Y|10=167|8=FIX.4.2|9=182|35=D|34=2|49=OPS_CANDIDATE_7_7595|52=20250209-15:59:11.000|56=DTL|11=20250209235911971|21=1|38=77|40=2|44=154.60548450555|54=5|55=BAC|58=NewOrderSingle|59=0|60=20250209-23:59:11.971|10=063|8=FIX.4.2|9=184|35=D|34=3|49=OPS_CANDIDATE_7_7595|52=20250209-15:59:12.000|56=DTL|11=20250209235912082|21=1|38=50|40=2|44=167.736351864633|54=1|55=AAPL|58=NewOrderSingle|59=0|60=20250209-23:59:12.082|10=190|8=FIX.4.2|9=164|35=D|34=4|49=OPS_CANDIDATE_7_7595|52=20250209-15:59:12.000|56=DTL|11=20250209235912191|21=1|38=58|40=1|54=1|55=MSFT|58=NewOrderSingle|59=0|60=20250209-23:59:12.191|10=249|8=FIX.4.2|9=164|35=D|34=5|49=OPS_CANDIDATE_7_7595|52=20250209-15:59:12.000|56=DTL|11=20250209235912300|21=1|38=86|40=1|54=5|55=AAPL|58=NewOrderSingle|59=0|60=20250209-23:59:12.300|10=211|8=FIX.4.2|9=163|35=D|34=6|49=OPS_CANDIDATE_7_7595|52=20250209-15:59:12.000|56=DTL|11=20250209235912409|21=1|38=4|40=1|54=1|55=MSFT|58=NewOrderSingle|59=0|60=20250209-23:59:12.409|10=197|8=FIX.4.2|9=184|35=D|34=7|49=OPS_CANDIDATE_7_7595|52=20250209-15:59:12.000|56=DTL|11=20250209235912517|21=1|38=96|40=2|44=165.710766697016|54=5|55=MSFT|58=NewOrderSingle|59=0|60=20250209-23:59:12.517|10=241|8=FIX.4.2|9=164|35=D|34=8|49=OPS_CANDIDATE_7_7595|52=20250209-15:59:12.000|56=DTL|11=20250209235912626|21=1|38=28|40=1|54=1|55=AAPL|58=NewOrderSingle|59=0|60=20250209-23:59:12.626|10=228|8=FIX.4.2|9=164|35=D|34=9|49=OPS_CANDIDATE_7_7595|52=20250209-15:59:12.000|56=DTL|11=20250209235912737|21=1|38=60|40=1|54=5|55=AAPL|58=NewOrderSingle|59=0|60=20250209-23:59:12.737|10=235|8=FIX.4.2|9=185|35=D|34=10|49=OPS_CANDIDATE_7_7595|52=20250209-15:59:12.000|56=DTL|11=20250209235912847|21=1|38=17|40=2|44=123.903988545262|54=1|55=MSFT|58=NewOrderSingle|59=0|60=20250209-23:59:12.847|10=028|8=FIX.4.2|9=165|35=D|34=11|49=OPS_CANDIDATE_7_7595|52=20250209-15:59:12.000|56=DTL|11=20250209235912957|21=1|38=51|40=1|54=1|55=AAPL|58=NewOrderSingle|59=0|60=20250209-23:59:12.957|10=025|8=FIX.4.2|9=185|35=D|34=12|49=OPS_CANDIDATE_7_7595|52=20250209-15:59:13.000|56=DTL|11=20250209235913066|21=1|38=87|40=2|44=196.597810200403|54=1|55=MSFT|58=NewOrderSingle|59=0|60=20250209-23:59:13.066|10=014|8=FIX.4.2|9=184|35=D|34=13|49=OPS_CANDIDATE_7_7595|52=20250209-15:59:13.000|56=DTL|11=20250209235913174|21=1|38=92|40=2|44=195.525568451538|54=1|55=BAC|58=NewOrderSingle|59=0|60=20250209-23:59:13.174|10=167|8=FIX.4.2|9=185|35=D|34=14|49=OPS_CANDIDATE_7_7595|52=20250209-15:59:13.000|56=DTL|11=20250209235913283|21=1|38=53|40=2|44=180.941024093264|54=5|55=AAPL|58=NewOrderSingle|59=0|60=20250209-23:59:13.283|10=241|8=FIX.4.2|9=164|35=D|34=15|49=OPS_CANDIDATE_7_7595|52=20250209-15:59:13.000|56=DTL|11=20250209235913390|21=1|38=4|40=1|54=2|55=MSFT|58=NewOrderSingle|59=0|60=20250209-23:59:13.390|10=248|8=FIX.4.2|9=184|35=D|34=16|49=OPS_CANDIDATE_7_7595|52=20250209-15:59:13.000|56=DTL|11=20250209235913498|21=1|38=49|40=2|44=177.989071606249|54=1|55=BAC|58=NewOrderSingle|59=0|60=20250209-23:59:13.498|10=194|8=FIX.4.2|9=164|35=D|34=17|49=OPS_CANDIDATE_7_7595|52=20250209-15:59:13.000|56=DTL|11=20250209235913609|21=1|38=96|40=1|54=5|55=BAC|58=NewOrderSingle|59=0|60=20250209-23:59:13.609|10=202|8=FIX.4.2|9=185|35=D|34=18|49=OPS_CANDIDATE_7_7595|52=20250209-15:59:13.000|56=DTL|11=20250209235913717|21=1|38=92|40=2|44=149.150249455641|54=1|55=MSFT|58=NewOrderSingle|59=0|60=20250209-23:59:13.717|10=027|8=FIX.4.2|9=164|35=D|34=19|49=OPS_CANDIDATE_7_7595|52=20250209-15:59:13.000|56=DTL|11=20250209235913826|21=1|38=3|40=1|54=2|55=MSFT|58=NewOrderSingle|59=0|60=20250209-23:59:13.826|10=003|8=FIX.4.2|9=185|35=D|34=20|49=OPS_CANDIDATE_7_7595|52=20250209-15:59:13.000|56=DTL|11=20250209235913934|21=1|38=41|40=2|44=168.896987371714|54=1|55=AAPL|58=NewOrderSingle|59=0|60=20250209-23:59:13.934|10=013|8=FIX.4.2|9=164|35=D|34=21|49=OPS_CANDIDATE_7_7595|52=20250209-15:59:14.000|56=DTL|11=20250209235914043|21=1|38=85|40=1|54=1|55=BAC|58=NewOrderSingle|59=0|60=20250209-23:59:14.043|10=178|8=FIX.4.2|9=164|35=D|34=22|49=OPS_CANDIDATE_7_7595|52=20250209-15:59:14.000|56=DTL|11=20250209235914150|21=1|38=62|40=1|54=5|55=BAC|58=NewOrderSingle|59=0|60=20250209-23:59:14.150|10=176|8=FIX.4.2|9=165|35=D|34=23|49=OPS_CANDIDATE_7_7595|52=20250209-15:59:14.000|56=DTL|11=20250209235914258|21=1|38=32|40=1|54=5|55=AAPL|58=NewOrderSingle|59=0|60=20250209-23:59:14.258|10=025|8=FIX.4.2|9=175|35=F|34=24|49=OPS_CANDIDATE_7_7595|52=20250209-15:59:14.000|56=DTL|11=20250209235914260|41=20250209235913066|54=1|55=MSFT|58=OrderCancelRequest|60=20250209-23:59:14.260|434=1|10=079|8=FIX.4.2|9=185|35=D|34=25|49=OPS_CANDIDATE_7_7595|52=20250209-15:59:14.000|56=DTL|11=20250209235914369|21=1|38=67|40=2|44=154.226758250819|54=5|55=AAPL|58=NewOrderSingle|59=0|60=20250209-23:59:14.369|10=017|8=FIX.4.2|9=184|35=D|34=26|49=OPS_CANDIDATE_7_7595|52=20250209-15:59:14.000|56=DTL|11=20250209235914478|21=1|38=73|40=2|44=118.017022655499|54=1|55=BAC|58=NewOrderSingle|59=0|60=20250209-23:59:14.478|10=175|8=FIX.4.2|9=185|35=D|34=27|49=OPS_CANDIDATE_7_7595|52=20250209-15:59:14.000|56=DTL|11=20250209235914589|21=1|38=84|40=2|44=147.015463633499|54=1|55=MSFT|58=NewOrderSingle|59=0|60=20250209-23:59:14.589|10=050|8=FIX.4.2|9=184|35=D|34=28|49=OPS_CANDIDATE_7_7595|52=20250209-15:59:14.000|56=DTL|11=20250209235914698|21=1|38=26|40=2|44=140.40842678056|54=5|55=MSFT|58=NewOrderSingle|59=0|60=20250209-23:59:14.698|10=250|8=FIX.4.2|9=175|35=F|34=29|49=OPS_CANDIDATE_7_7595|52=20250209-15:59:14.000|56=DTL|11=20250209235914699|41=20250209235914258|54=5|55=AAPL|58=OrderCancelRequest|60=20250209-23:59:14.699|434=1|10=096|8=FIX.4.2|9=164|35=D|34=30|49=OPS_CANDIDATE_7_7595|52=20250209-15:59:14.000|56=DTL|11=20250209235914806|21=1|38=25|40=1|54=1|55=BAC|58=NewOrderSingle|59=0|60=20250209-23:59:14.806|10=186|8=FIX.4.2|9=165|35=D|34=31|49=OPS_CANDIDATE_7_7595|52=20250209-15:59:14.000|56=DTL|11=20250209235914914|21=1|38=86|40=1|54=1|55=AAPL|58=NewOrderSingle|59=0|60=20250209-23:59:14.914|10=027|8=FIX.4.2|9=184|35=D|34=32|49=OPS_CANDIDATE_7_7595|52=20250209-15:59:15.000|56=DTL|11=20250209235915022|21=1|38=56|40=2|44=166.766347782086|54=1|55=BAC|58=NewOrderSingle|59=0|60=20250209-23:59:15.022|10=163|8=FIX.4.2|9=165|35=D|34=33|49=OPS_CANDIDATE_7_7595|52=20250209-15:59:15.000|56=DTL|11=20250209235915130|21=1|38=27|40=1|54=2|55=AAPL|58=NewOrderSingle|59=0|60=20250209-23:59:15.130|10=008|8=FIX.4.2|9=185|35=D|34=34|49=OPS_CANDIDATE_7_7595|52=20250209-15:59:15.000|56=DTL|11=20250209235915240|21=1|38=56|40=2|44=141.880375122098|54=1|55=AAPL|58=NewOrderSingle|59=0|60=20250209-23:59:15.240|10=240|8=FIX.4.2|9=164|35=D|34=35|49=OPS_CANDIDATE_7_7595|52=20250209-15:59:15.000|56=DTL|11=20250209235915350|21=1|38=22|40=1|54=1|55=BAC|58=NewOrderSingle|59=0|60=20250209-23:59:15.350|10=179|8=FIX.4.2|9=175|35=F|34=36|49=OPS_CANDIDATE_7_7595|52=20250209-15:59:15.000|56=DTL|11=20250209235915351|41=20250209235914258|54=5|55=AAPL|58=OrderCancelRequest|60=20250209-23:59:15.351|434=1|10=067|8=FIX.4.2|9=185|35=D|34=37|49=OPS_CANDIDATE_7_7595|52=20250209-15:59:15.000|56=DTL|11=20250209235915458|21=1|38=79|40=2|44=166.830247490994|54=1|55=AAPL|58=NewOrderSingle|59=0|60=20250209-23:59:15.458|10=027|8=FIX.4.2|9=185|35=D|34=38|49=OPS_CANDIDATE_7_7595|52=20250209-15:59:15.000|56=DTL|11=20250209235915568|21=1|38=84|40=2|44=166.294917554615|54=1|55=MSFT|58=NewOrderSingle|59=0|60=20250209-23:59:15.568|10=055|8=FIX.4.2|9=164|35=D|34=39|49=OPS_CANDIDATE_7_7595|52=20250209-15:59:15.000|56=DTL|11=20250209235915677|21=1|38=67|40=1|54=2|55=BAC|58=NewOrderSingle|59=0|60=20250209-23:59:15.677|10=217|8=FIX.4.2|9=185|35=D|34=40|49=OPS_CANDIDATE_7_7595|52=20250209-15:59:15.000|56=DTL|11=20250209235915785|21=1|38=24|40=2|44=117.014685745939|54=2|55=AAPL|58=NewOrderSingle|59=0|60=20250209-23:59:15.785|10=016|8=FIX.4.2|9=184|35=D|34=41|49=OPS_CANDIDATE_7_7595|52=20250209-15:59:15.000|56=DTL|11=20250209235915894|21=1|38=81|40=2|44=154.550350690722|54=2|55=BAC|58=NewOrderSingle|59=0|60=20250209-23:59:15.894|10=173|8=FIX.4.2|9=184|35=D|34=42|49=OPS_CANDIDATE_7_7595|52=20250209-15:59:16.000|56=DTL|11=20250209235916004|21=1|38=96|40=2|44=141.733043608552|54=1|55=BAC|58=NewOrderSingle|59=0|60=20250209-23:59:16.004|10=146|8=FIX.4.2|9=185|35=D|34=43|49=OPS_CANDIDATE_7_7595|52=20250209-15:59:16.000|56=DTL|11=20250209235916113|21=1|38=40|40=2|44=191.231796698685|54=2|55=AAPL|58=NewOrderSingle|59=0|60=20250209-23:59:16.113|10=001|8=FIX.4.2|9=165|35=D|34=44|49=OPS_CANDIDATE_7_7595|52=20250209-15:59:16.000|56=DTL|11=20250209235916221|21=1|38=20|40=1|54=1|55=AAPL|58=NewOrderSingle|59=0|60=20250209-23:59:16.221|10=007|8=FIX.4.2|9=184|35=D|34=45|49=OPS_CANDIDATE_7_7595|52=20250209-15:59:16.000|56=DTL|11=20250209235916329|21=1|38=3|40=2|44=103.569564974853|54=2|55=AAPL|58=NewOrderSingle|59=0|60=20250209-23:59:16.329|10=221|8=FIX.4.2|9=165|35=D|34=46|49=OPS_CANDIDATE_7_7595|52=20250209-15:59:16.000|56=DTL|11=20250209235916439|21=1|38=99|40=1|54=1|55=AAPL|58=NewOrderSingle|59=0|60=20250209-23:59:16.439|10=047|8=FIX.4.2|9=185|35=D|34=47|49=OPS_CANDIDATE_7_7595|52=20250209-15:59:16.000|56=DTL|11=20250209235916548|21=1|38=24|40=2|44=145.738057340251|54=1|55=AAPL|58=NewOrderSingle|59=0|60=20250209-23:59:16.548|10=004|8=FIX.4.2|9=175|35=F|34=48|49=OPS_CANDIDATE_7_7595|52=20250209-15:59:16.000|56=DTL|11=20250209235916549|41=20250209235913283|54=5|55=AAPL|58=OrderCancelRequest|60=20250209-23:59:16.549|434=1|10=088|8=FIX.4.2|9=184|35=D|34=49|49=OPS_CANDIDATE_7_7595|52=20250209-15:59:16.000|56=DTL|11=20250209235916659|21=1|38=80|40=2|44=176.708092034272|54=2|55=BAC|58=NewOrderSingle|59=0|60=20250209-23:59:16.659|10=185|8=FIX.4.2|9=165|35=D|34=50|49=OPS_CANDIDATE_7_7595|52=20250209-15:59:16.000|56=DTL|11=20250209235916768|21=1|38=19|40=1|54=2|55=AAPL|58=NewOrderSingle|59=0|60=20250209-23:59:16.768|10=045|8=FIX.4.2|9=165|35=D|34=51|49=OPS_CANDIDATE_7_7595|52=20250209-15:59:16.000|56=DTL|11=20250209235916877|21=1|38=141|40=1|54=2|55=BAC|58=NewOrderSingle|59=0|60=20250209-23:59:16.877|10=004|8=FIX.4.2|9=184|35=D|34=52|49=OPS_CANDIDATE_7_7595|52=20250209-15:59:16.000|56=DTL|11=20250209235916985|21=1|38=87|40=2|44=103.954190507263|54=1|55=BAC|58=NewOrderSingle|59=0|60=20250209-23:59:16.985|10=186|8=FIX.4.2|9=185|35=D|34=53|49=OPS_CANDIDATE_7_7595|52=20250209-15:59:17.000|56=DTL|11=20250209235917093|21=1|38=56|40=2|44=110.094703873812|54=2|55=MSFT|58=NewOrderSingle|59=0|60=20250209-23:59:17.093|10=027|8=FIX.4.2|9=185|35=D|34=54|49=OPS_CANDIDATE_7_7595|52=20250209-15:59:17.000|56=DTL|11=20250209235917202|21=1|38=84|40=2|44=166.777982670061|54=1|55=AAPL|58=NewOrderSingle|59=0|60=20250209-23:59:17.202|10=003|8=FIX.4.2|9=186|35=D|34=55|49=OPS_CANDIDATE_7_7595|52=20250209-15:59:17.000|56=DTL|11=20250209235917310|21=1|38=113|40=2|44=186.364180928699|54=2|55=AAPL|58=NewOrderSingle|59=0|60=20250209-23:59:17.310|10=054|8=FIX.4.2|9=185|35=D|34=56|49=OPS_CANDIDATE_7_7595|52=20250209-15:59:17.000|56=DTL|11=20250209235917421|21=1|38=50|40=2|44=124.363336961948|54=1|55=AAPL|58=NewOrderSingle|59=0|60=20250209-23:59:17.421|10=255|8=FIX.4.2|9=175|35=F|34=57|49=OPS_CANDIDATE_7_7595|52=20250209-15:59:17.000|56=DTL|11=20250209235917422|41=20250209235915130|54=2|55=AAPL|58=OrderCancelRequest|60=20250209-23:59:17.422|434=1|10=061|8=FIX.4.2|9=165|35=D|34=58|49=OPS_CANDIDATE_7_7595|52=20250209-15:59:17.000|56=DTL|11=20250209235917530|21=1|38=95|40=1|54=1|55=MSFT|58=NewOrderSingle|59=0|60=20250209-23:59:17.530|10=061|8=FIX.4.2|9=185|35=D|34=59|49=OPS_CANDIDATE_7_7595|52=20250209-15:59:17.000|56=DTL|11=20250209235917638|21=1|38=97|40=2|44=185.029481526476|54=1|55=MSFT|58=NewOrderSingle|59=0|60=20250209-23:59:17.638|10=061|8=FIX.4.2|9=164|35=D|34=60|49=OPS_CANDIDATE_7_7595|52=20250209-15:59:17.000|56=DTL|11=20250209235917746|21=1|38=73|40=1|54=1|55=BAC|58=NewOrderSingle|59=0|60=20250209-23:59:17.746|10=207|8=FIX.4.2|9=186|35=D|34=61|49=OPS_CANDIDATE_7_7595|52=20250209-15:59:17.000|56=DTL|11=20250209235917856|21=1|38=232|40=2|44=178.603583090894|54=2|55=AAPL|58=NewOrderSingle|59=0|60=20250209-23:59:17.856|10=074|8=FIX.4.2|9=175|35=F|34=62|49=OPS_CANDIDATE_7_7595|52=20250209-15:59:17.000|56=DTL|11=20250209235917857|41=20250209235915785|54=2|55=AAPL|58=OrderCancelRequest|60=20250209-23:59:17.857|434=1|10=097|8=FIX.4.2|9=164|35=D|34=63|49=OPS_CANDIDATE_7_7595|52=20250209-15:59:17.000|56=DTL|11=20250209235917964|21=1|38=9|40=1|54=1|55=AAPL|58=NewOrderSingle|59=0|60=20250209-23:59:17.964|10=253|8=FIX.4.2|9=165|35=D|34=64|49=OPS_CANDIDATE_7_7595|52=20250209-15:59:18.000|56=DTL|11=20250209235918074|21=1|38=77|40=1|54=2|55=MSFT|58=NewOrderSingle|59=0|60=20250209-23:59:18.074|10=068|8=FIX.4.2|9=184|35=D|34=65|49=OPS_CANDIDATE_7_7595|52=20250209-15:59:18.000|56=DTL|11=20250209235918182|21=1|38=68|40=2|44=137.098995817193|54=1|55=BAC|58=NewOrderSingle|59=0|60=20250209-23:59:18.182|10=198|8=FIX.4.2|9=164|35=D|34=66|49=OPS_CANDIDATE_7_7595|52=20250209-15:59:18.000|56=DTL|11=20250209235918291|21=1|38=72|40=1|54=2|55=BAC|58=NewOrderSingle|59=0|60=20250209-23:59:18.291|10=206|8=FIX.4.2|9=166|35=D|34=67|49=OPS_CANDIDATE_7_7595|52=20250209-15:59:18.000|56=DTL|11=20250209235918399|21=1|38=174|40=1|54=2|55=AAPL|58=NewOrderSingle|59=0|60=20250209-23:59:18.399|10=110|8=FIX.4.2|9=165|35=D|34=68|49=OPS_CANDIDATE_7_7595|52=20250209-15:59:18.000|56=DTL|11=20250209235918507|21=1|38=26|40=1|54=1|55=AAPL|58=NewOrderSingle|59=0|60=20250209-23:59:18.507|10=039|8=FIX.4.2|9=185|35=D|34=69|49=OPS_CANDIDATE_7_7595|52=20250209-15:59:18.000|56=DTL|11=20250209235918614|21=1|38=93|40=2|44=108.547909779008|54=1|55=MSFT|58=NewOrderSingle|59=0|60=20250209-23:59:18.614|10=055|8=FIX.4.2|9=165|35=D|34=70|49=OPS_CANDIDATE_7_7595|52=20250209-15:59:18.000|56=DTL|11=20250209235918723|21=1|38=45|40=1|54=1|55=AAPL|58=NewOrderSingle|59=0|60=20250209-23:59:18.723|10=033|8=FIX.4.2|9=166|35=D|34=71|49=OPS_CANDIDATE_7_7595|52=20250209-15:59:18.000|56=DTL|11=20250209235918832|21=1|38=109|40=1|54=2|55=AAPL|58=NewOrderSingle|59=0|60=20250209-23:59:18.832|10=087|8=FIX.4.2|9=185|35=D|34=72|49=OPS_CANDIDATE_7_7595|52=20250209-15:59:18.000|56=DTL|11=20250209235918942|21=1|38=54|40=2|44=110.990126914814|54=1|55=AAPL|58=NewOrderSingle|59=0|60=20250209-23:59:18.942|10=008|8=FIX.4.2|9=164|35=D|34=73|49=OPS_CANDIDATE_7_7595|52=20250209-15:59:19.000|56=DTL|11=20250209235919051|21=1|38=24|40=1|54=1|55=BAC|58=NewOrderSingle|59=0|60=20250209-23:59:19.051|10=191|8=FIX.4.2|9=185|35=D|34=74|49=OPS_CANDIDATE_7_7595|52=20250209-15:59:19.000|56=DTL|11=20250209235919159|21=1|38=129|40=2|44=125.88911927197|54=2|55=AAPL|58=NewOrderSingle|59=0|60=20250209-23:59:19.159|10=031|8=FIX.4.2|9=185|35=D|34=75|49=OPS_CANDIDATE_7_7595|52=20250209-15:59:19.000|56=DTL|11=20250209235919270|21=1|38=68|40=2|44=155.256374319202|54=1|55=AAPL|58=NewOrderSingle|59=0|60=20250209-23:59:19.270|10=006|8=FIX.4.2|9=174|35=F|34=76|49=OPS_CANDIDATE_7_7595|52=20250209-15:59:19.000|56=DTL|11=20250209235919271|41=20250209235919051|54=1|55=BAC|58=OrderCancelRequest|60=20250209-23:59:19.271|434=1|10=244|8=FIX.4.2|9=185|35=D|34=77|49=OPS_CANDIDATE_7_7595|52=20250209-15:59:19.000|56=DTL|11=20250209235919379|21=1|38=48|40=2|44=157.306771545747|54=1|55=AAPL|58=NewOrderSingle|59=0|60=20250209-23:59:19.379|10=040|8=FIX.4.2|9=183|35=D|34=78|49=OPS_CANDIDATE_7_7595|52=20250209-15:59:19.000|56=DTL|11=20250209235919489|21=1|38=4|40=2|44=145.052857975716|54=2|55=BAC|58=NewOrderSingle|59=0|60=20250209-23:59:19.489|10=159|8=FIX.4.2|9=164|35=D|34=79|49=OPS_CANDIDATE_7_7595|52=20250209-15:59:19.000|56=DTL|11=20250209235919597|21=1|38=26|40=1|54=2|55=BAC|58=NewOrderSingle|59=0|60=20250209-23:59:19.597|10=230|8=FIX.4.2|9=185|35=D|34=80|49=OPS_CANDIDATE_7_7595|52=20250209-15:59:19.000|56=DTL|11=20250209235919705|21=1|38=68|40=2|44=192.618108309428|54=1|55=AAPL|58=NewOrderSingle|59=0|60=20250209-23:59:19.705|10=015|8=FIX.4.2|9=185|35=D|34=81|49=OPS_CANDIDATE_7_7595|52=20250209-15:59:19.000|56=DTL|11=20250209235919812|21=1|38=77|40=2|44=186.150236686404|54=2|55=MSFT|58=NewOrderSingle|59=0|60=20250209-23:59:19.812|10=041|8=FIX.4.2|9=165|35=D|34=82|49=OPS_CANDIDATE_7_7595|52=20250209-15:59:19.000|56=DTL|11=20250209235919922|21=1|38=15|40=1|54=2|55=AAPL|58=NewOrderSingle|59=0|60=20250209-23:59:19.922|10=039|8=FIX.4.2|9=166|35=D|34=83|49=OPS_CANDIDATE_7_7595|52=20250209-15:59:20.000|56=DTL|11=20250209235920031|21=1|38=104|40=1|54=2|55=AAPL|58=NewOrderSingle|59=0|60=20250209-23:59:20.031|10=046|8=FIX.4.2|9=164|35=D|34=84|49=OPS_CANDIDATE_7_7595|52=20250209-15:59:20.000|56=DTL|11=20250209235920141|21=1|38=2|40=1|54=1|55=AAPL|58=NewOrderSingle|59=0|60=20250209-23:59:20.141|10=205|8=FIX.4.2|9=165|35=D|34=85|49=OPS_CANDIDATE_7_7595|52=20250209-15:59:20.000|56=DTL|11=20250209235920249|21=1|38=57|40=1|54=1|55=AAPL|58=NewOrderSingle|59=0|60=20250209-23:59:20.249|10=027|8=FIX.4.2|9=185|35=D|34=86|49=OPS_CANDIDATE_7_7595|52=20250209-15:59:20.000|56=DTL|11=20250209235920359|21=1|38=30|40=2|44=135.007116517054|54=1|55=AAPL|58=NewOrderSingle|59=0|60=20250209-23:59:20.359|10=236|8=FIX.4.2|9=165|35=D|34=87|49=OPS_CANDIDATE_7_7595|52=20250209-15:59:20.000|56=DTL|11=20250209235920467|21=1|38=26|40=1|54=1|55=MSFT|58=NewOrderSingle|59=0|60=20250209-23:59:20.467|10=057|8=FIX.4.2|9=185|35=D|34=88|49=OPS_CANDIDATE_7_7595|52=20250209-15:59:20.000|56=DTL|11=20250209235920576|21=1|38=32|40=2|44=182.742279349461|54=1|55=AAPL|58=NewOrderSingle|59=0|60=20250209-23:59:20.576|10=009|8=FIX.4.2|9=165|35=D|34=89|49=OPS_CANDIDATE_7_7595|52=20250209-15:59:20.000|56=DTL|11=20250209235920683|21=1|38=65|40=1|54=1|55=AAPL|58=NewOrderSingle|59=0|60=20250209-23:59:20.683|10=034|8=FIX.4.2|9=165|35=D|34=90|49=OPS_CANDIDATE_7_7595|52=20250209-15:59:20.000|56=DTL|11=20250209235920792|21=1|38=26|40=1|54=1|55=AAPL|58=NewOrderSingle|59=0|60=20250209-23:59:20.792|10=025|8=FIX.4.2|9=184|35=D|34=91|49=OPS_CANDIDATE_7_7595|52=20250209-15:59:20.000|56=DTL|11=20250209235920902|21=1|38=24|40=2|44=151.990429307675|54=1|55=BAC|58=NewOrderSingle|59=0|60=20250209-23:59:20.902|10=156|8=FIX.4.2|9=184|35=D|34=92|49=OPS_CANDIDATE_7_7595|52=20250209-15:59:21.000|56=DTL|11=20250209235921011|21=1|38=25|40=2|44=102.946453782531|54=2|55=BAC|58=NewOrderSingle|59=0|60=20250209-23:59:21.011|10=136|8=FIX.4.2|9=164|35=D|34=93|49=OPS_CANDIDATE_7_7595|52=20250209-15:59:21.000|56=DTL|11=20250209235921119|21=1|38=85|40=1|54=1|55=BAC|58=NewOrderSingle|59=0|60=20250209-23:59:21.119|10=189|8=FIX.4.2|9=165|35=D|34=94|49=OPS_CANDIDATE_7_7595|52=20250209-15:59:21.000|56=DTL|11=20250209235921229|21=1|38=55|40=1|54=2|55=MSFT|58=NewOrderSingle|59=0|60=20250209-23:59:21.229|10=053|8=FIX.4.2|9=184|35=D|34=95|49=OPS_CANDIDATE_7_7595|52=20250209-15:59:21.000|56=DTL|11=20250209235921338|21=1|38=79|40=2|44=194.386222211241|54=1|55=BAC|58=NewOrderSingle|59=0|60=20250209-23:59:21.338|10=159|8=FIX.4.2|9=185|35=D|34=96|49=OPS_CANDIDATE_7_7595|52=20250209-15:59:21.000|56=DTL|11=20250209235921447|21=1|38=16|40=2|44=116.722285929445|54=1|55=MSFT|58=NewOrderSingle|59=0|60=20250209-23:59:21.447|10=033|8=FIX.4.2|9=166|35=D|34=97|49=OPS_CANDIDATE_7_7595|52=20250209-15:59:21.000|56=DTL|11=20250209235921554|21=1|38=221|40=1|54=2|55=AAPL|58=NewOrderSingle|59=0|60=20250209-23:59:21.554|10=074|8=FIX.4.2|9=186|35=D|34=98|49=OPS_CANDIDATE_7_7595|52=20250209-15:59:21.000|56=DTL|11=20250209235921663|21=1|38=147|40=2|44=145.407129953836|54=2|55=MSFT|58=NewOrderSingle|59=0|60=20250209-23:59:21.663|10=090|8=FIX.4.2|9=185|35=D|34=99|49=OPS_CANDIDATE_7_7595|52=20250209-15:59:21.000|56=DTL|11=20250209235921773|21=1|38=39|40=2|44=106.894321092586|54=1|55=MSFT|58=NewOrderSingle|59=0|60=20250209-23:59:21.773|10=042|8=FIX.4.2|9=186|35=D|34=100|49=OPS_CANDIDATE_7_7595|52=20250209-15:59:21.000|56=DTL|11=20250209235921881|21=1|38=77|40=2|44=161.405354041786|54=1|55=MSFT|58=NewOrderSingle|59=0|60=20250209-23:59:21.881|10=067|8=FIX.4.2|9=165|35=D|34=101|49=OPS_CANDIDATE_7_7595|52=20250209-15:59:21.000|56=DTL|11=20250209235921990|21=1|38=86|40=1|54=1|55=BAC|58=NewOrderSingle|59=0|60=20250209-23:59:21.990|10=243|8=FIX.4.2|9=185|35=D|34=102|49=OPS_CANDIDATE_7_7595|52=20250209-15:59:22.000|56=DTL|11=20250209235922099|21=1|38=19|40=2|44=193.280460019011|54=2|55=BAC|58=NewOrderSingle|59=0|60=20250209-23:59:22.099|10=200|8=FIX.4.2|9=167|35=D|34=103|49=OPS_CANDIDATE_7_7595|52=20250209-15:59:22.000|56=DTL|11=20250209235922207|21=1|38=240|40=1|54=2|55=AAPL|58=NewOrderSingle|59=0|60=20250209-23:59:22.207|10=105|8=FIX.4.2|9=166|35=D|34=104|49=OPS_CANDIDATE_7_7595|52=20250209-15:59:22.000|56=DTL|11=20250209235922315|21=1|38=36|40=1|54=1|55=MSFT|58=NewOrderSingle|59=0|60=20250209-23:59:22.316|10=088|8=FIX.4.2|9=185|35=D|34=105|49=OPS_CANDIDATE_7_7595|52=20250209-15:59:22.000|56=DTL|11=20250209235922423|21=1|38=90|40=2|44=109.284748330339|54=1|55=BAC|58=NewOrderSingle|59=0|60=20250209-23:59:22.423|10=202|8=FIX.4.2|9=165|35=D|34=106|49=OPS_CANDIDATE_7_7595|52=20250209-15:59:22.000|56=DTL|11=20250209235922533|21=1|38=56|40=1|54=2|55=BAC|58=NewOrderSingle|59=0|60=20250209-23:59:22.533|10=235|8=FIX.4.2|9=186|35=D|34=107|49=OPS_CANDIDATE_7_7595|52=20250209-15:59:22.000|56=DTL|11=20250209235922643|21=1|38=56|40=2|44=156.482920879668|54=2|55=AAPL|58=NewOrderSingle|59=0|60=20250209-23:59:22.643|10=065|8=FIX.4.2|9=166|35=D|34=108|49=OPS_CANDIDATE_7_7595|52=20250209-15:59:22.000|56=DTL|11=20250209235922751|21=1|38=36|40=1|54=2|55=AAPL|58=NewOrderSingle|59=0|60=20250209-23:59:22.751|10=072|8=FIX.4.2|9=166|35=D|34=109|49=OPS_CANDIDATE_7_7595|52=20250209-15:59:22.000|56=DTL|11=20250209235922860|21=1|38=80|40=1|54=2|55=AAPL|58=NewOrderSingle|59=0|60=20250209-23:59:22.860|10=074|8=FIX.4.2|9=185|35=D|34=110|49=OPS_CANDIDATE_7_7595|52=20250209-15:59:22.000|56=DTL|11=20250209235922967|21=1|38=60|40=2|44=197.92176676062|54=2|55=MSFT|58=NewOrderSingle|59=0|60=20250209-23:59:22.967|10=039|8=FIX.4.2|9=166|35=D|34=111|49=OPS_CANDIDATE_7_7595|52=20250209-15:59:23.000|56=DTL|11=20250209235923075|21=1|38=44|40=1|54=2|55=MSFT|58=NewOrderSingle|59=0|60=20250209-23:59:23.075|10=094|8=FIX.4.2|9=186|35=D|34=112|49=OPS_CANDIDATE_7_7595|52=20250209-15:59:23.000|56=DTL|11=20250209235923183|21=1|38=67|40=2|44=185.509394038017|54=5|55=AAPL|58=NewOrderSingle|59=0|60=20250209-23:59:23.183|10=049|8=FIX.4.2|9=165|35=D|34=113|49=OPS_CANDIDATE_7_7595|52=20250209-15:59:23.000|56=DTL|11=20250209235923294|21=1|38=8|40=1|54=2|55=MSFT|58=NewOrderSingle|59=0|60=20250209-23:59:23.294|10=053|8=FIX.4.2|9=166|35=D|34=114|49=OPS_CANDIDATE_7_7595|52=20250209-15:59:23.000|56=DTL|11=20250209235923404|21=1|38=10|40=1|54=1|55=MSFT|58=NewOrderSingle|59=0|60=20250209-23:59:23.404|10=081|8=FIX.4.2|9=166|35=D|34=115|49=OPS_CANDIDATE_7_7595|52=20250209-15:59:23.000|56=DTL|11=20250209235923511|21=1|38=46|40=1|54=1|55=AAPL|58=NewOrderSingle|59=0|60=20250209-23:59:23.511|10=061|8=FIX.4.2|9=166|35=D|34=116|49=OPS_CANDIDATE_7_7595|52=20250209-15:59:23.000|56=DTL|11=20250209235923620|21=1|38=42|40=1|54=2|55=MSFT|58=NewOrderSingle|59=0|60=20250209-23:59:23.620|10=089|8=FIX.4.2|9=185|35=D|34=117|49=OPS_CANDIDATE_7_7595|52=20250209-15:59:23.000|56=DTL|11=20250209235923730|21=1|38=16|40=2|44=126.439763114389|54=1|55=BAC|58=NewOrderSingle|59=0|60=20250209-23:59:23.730|10=211|8=FIX.4.2|9=165|35=D|34=118|49=OPS_CANDIDATE_7_7595|52=20250209-15:59:23.000|56=DTL|11=20250209235923839|21=1|38=53|40=1|54=2|55=BAC|58=NewOrderSingle|59=0|60=20250209-23:59:23.839|10=000|8=FIX.4.2|9=166|35=D|34=119|49=OPS_CANDIDATE_7_7595|52=20250209-15:59:23.000|56=DTL|11=20250209235923946|21=1|38=33|40=1|54=5|55=AAPL|58=NewOrderSingle|59=0|60=20250209-23:59:23.946|10=089|8=FIX.4.2|9=186|35=D|34=120|49=OPS_CANDIDATE_7_7595|52=20250209-15:59:24.000|56=DTL|11=20250209235924056|21=1|38=47|40=2|44=130.598420000169|54=5|55=AAPL|58=NewOrderSingle|59=0|60=20250209-23:59:24.056|10=032|8=FIX.4.2|9=166|35=D|34=121|49=OPS_CANDIDATE_7_7595|52=20250209-15:59:24.000|56=DTL|11=20250209235924166|21=1|38=27|40=1|54=1|55=MSFT|58=NewOrderSingle|59=0|60=20250209-23:59:24.166|10=100|8=FIX.4.2|9=165|35=D|34=122|49=OPS_CANDIDATE_7_7595|52=20250209-15:59:24.000|56=DTL|11=20250209235924275|21=1|38=49|40=1|54=1|55=BAC|58=NewOrderSingle|59=0|60=20250209-23:59:24.275|10=246|8=FIX.4.2|9=167|35=D|34=123|49=OPS_CANDIDATE_7_7595|52=20250209-15:59:24.000|56=DTL|11=20250209235924383|21=1|38=100|40=1|54=5|55=AAPL|58=NewOrderSingle|59=0|60=20250209-23:59:24.383|10=121|8=FIX.4.2|9=176|35=F|34=124|49=OPS_CANDIDATE_7_7595|52=20250209-15:59:24.000|56=DTL|11=20250209235924384|41=20250209235913717|54=1|55=MSFT|58=OrderCancelRequest|60=20250209-23:59:24.384|434=1|10=149|8=FIX.4.2|9=186|35=D|34=125|49=OPS_CANDIDATE_7_7595|52=20250209-15:59:24.000|56=DTL|11=20250209235924490|21=1|38=81|40=2|44=121.863339350708|54=1|55=AAPL|58=NewOrderSingle|59=0|60=20250209-23:59:24.490|10=046|8=FIX.4.2|9=186|35=D|34=126|49=OPS_CANDIDATE_7_7595|52=20250209-15:59:24.000|56=DTL|11=20250209235924597|21=1|38=28|40=2|44=100.936383774328|54=5|55=AAPL|58=NewOrderSingle|59=0|60=20250209-23:59:24.597|10=073|8=FIX.4.2|9=165|35=D|34=127|49=OPS_CANDIDATE_7_7595|52=20250209-15:59:24.000|56=DTL|11=20250209235924706|21=1|38=90|40=1|54=1|55=BAC|58=NewOrderSingle|59=0|60=20250209-23:59:24.706|10=245|8=FIX.4.2|9=185|35=D|34=128|49=OPS_CANDIDATE_7_7595|52=20250209-15:59:24.000|56=DTL|11=20250209235924817|21=1|38=76|40=2|44=142.046518965673|54=2|55=BAC|58=NewOrderSingle|59=0|60=20250209-23:59:24.817|10=235|8=FIX.4.2|9=175|35=F|34=129|49=OPS_CANDIDATE_7_7595|52=20250209-15:59:24.000|56=DTL|11=20250209235924818|41=20250209235922423|54=1|55=BAC|58=OrderCancelRequest|60=20250209-23:59:24.818|434=1|10=035|8=FIX.4.2|9=166|35=D|34=130|49=OPS_CANDIDATE_7_7595|52=20250209-15:59:24.000|56=DTL|11=20250209235924925|21=1|38=85|40=1|54=5|55=AAPL|58=NewOrderSingle|59=0|60=20250209-23:59:24.925|10=086|8=FIX.4.2|9=186|35=D|34=131|49=OPS_CANDIDATE_7_7595|52=20250209-15:59:25.000|56=DTL|11=20250209235925034|21=1|38=81|40=2|44=184.163634082947|54=1|55=MSFT|58=NewOrderSingle|59=0|60=20250209-23:59:25.034|10=069|8=FIX.4.2|9=186|35=D|34=132|49=OPS_CANDIDATE_7_7595|52=20250209-15:59:25.000|56=DTL|11=20250209235925143|21=1|38=34|40=2|44=137.070506967261|54=2|55=MSFT|58=NewOrderSingle|59=0|60=20250209-23:59:25.143|10=065|8=FIX.4.2|9=166|35=D|34=133|49=OPS_CANDIDATE_7_7595|52=20250209-15:59:25.000|56=DTL|11=20250209235925251|21=1|38=73|40=1|54=1|55=MSFT|58=NewOrderSingle|59=0|60=20250209-23:59:25.251|10=097|8=FIX.4.2|9=185|35=D|34=134|49=OPS_CANDIDATE_7_7595|52=20250209-15:59:25.000|56=DTL|11=20250209235925358|21=1|38=6|40=2|44=143.547238462369|54=2|55=MSFT|58=NewOrderSingle|59=0|60=20250209-23:59:25.358|10=040|8=FIX.4.2|9=185|35=D|34=135|49=OPS_CANDIDATE_7_7595|52=20250209-15:59:25.000|56=DTL|11=20250209235925466|21=1|38=31|40=2|44=109.668283171619|54=2|55=BAC|58=NewOrderSingle|59=0|60=20250209-23:59:25.466|10=228|8=FIX.4.2|9=186|35=D|34=136|49=OPS_CANDIDATE_7_7595|52=20250209-15:59:25.000|56=DTL|11=20250209235925577|21=1|38=90|40=2|44=116.049840414042|54=1|55=MSFT|58=NewOrderSingle|59=0|60=20250209-23:59:25.577|10=080|8=FIX.4.2|9=185|35=D|34=137|49=OPS_CANDIDATE_7_7595|52=20250209-15:59:25.000|56=DTL|11=20250209235925686|21=1|38=94|40=2|44=117.69910162772|54=1|55=MSFT|58=NewOrderSingle|59=0|60=20250209-23:59:25.686|10=049|8=FIX.4.2|9=166|35=D|34=138|49=OPS_CANDIDATE_7_7595|52=20250209-15:59:25.000|56=DTL|11=20250209235925792|21=1|38=40|40=1|54=2|55=MSFT|58=NewOrderSingle|59=0|60=20250209-23:59:25.792|10=117|8=FIX.4.2|9=186|35=D|34=139|49=OPS_CANDIDATE_7_7595|52=20250209-15:59:25.000|56=DTL|11=20250209235925902|21=1|38=31|40=2|44=123.682632796511|54=2|55=MSFT|58=NewOrderSingle|59=0|60=20250209-23:59:25.902|10=077|8=FIX.4.2|9=186|35=D|34=140|49=OPS_CANDIDATE_7_7595|52=20250209-15:59:26.000|56=DTL|11=20250209235926013|21=1|38=38|40=2|44=197.529895244356|54=1|55=MSFT|58=NewOrderSingle|59=0|60=20250209-23:59:26.013|10=081|8=FIX.4.2|9=166|35=D|34=141|49=OPS_CANDIDATE_7_7595|52=20250209-15:59:26.000|56=DTL|11=20250209235926122|21=1|38=23|40=1|54=1|55=MSFT|58=NewOrderSingle|59=0|60=20250209-23:59:26.122|10=088|8=FIX.4.2|9=166|35=D|34=142|49=OPS_CANDIDATE_7_7595|52=20250209-15:59:26.000|56=DTL|11=20250209235926229|21=1|38=48|40=1|54=5|55=AAPL|58=NewOrderSingle|59=0|60=20250209-23:59:26.229|10=088|8=FIX.4.2|9=166|35=D|34=143|49=OPS_CANDIDATE_7_7595|52=20250209-15:59:26.000|56=DTL|11=20250209235926337|21=1|38=12|40=1|54=5|55=AAPL|58=NewOrderSingle|59=0|60=20250209-23:59:26.337|10=080|8=FIX.4.2|9=176|35=F|34=144|49=OPS_CANDIDATE_7_7595|52=20250209-15:59:26.000|56=DTL|11=20250209235926338|41=20250209235925792|54=2|55=MSFT|58=OrderCancelRequest|60=20250209-23:59:26.338|434=1|10=162|8=FIX.4.2|9=166|35=D|34=145|49=OPS_CANDIDATE_7_7595|52=20250209-15:59:26.000|56=DTL|11=20250209235926444|21=1|38=35|40=1|54=5|55=AAPL|58=NewOrderSingle|59=0|60=20250209-23:59:26.444|10=085|8=FIX.4.2|9=185|35=D|34=146|49=OPS_CANDIDATE_7_7595|52=20250209-15:59:26.000|56=DTL|11=20250209235926553|21=1|38=60|40=2|44=162.722253093232|54=2|55=BAC|58=NewOrderSingle|59=0|60=20250209-23:59:26.553|10=210|8=FIX.4.2|9=186|35=D|34=147|49=OPS_CANDIDATE_7_7595|52=20250209-15:59:26.000|56=DTL|11=20250209235926663|21=1|38=105|40=2|44=106.436309202911|54=2|55=BAC|58=NewOrderSingle|59=0|60=20250209-23:59:26.663|10=006|8=FIX.4.2|9=186|35=D|34=148|49=OPS_CANDIDATE_7_7595|52=20250209-15:59:26.000|56=DTL|11=20250209235926771|21=1|38=98|40=2|44=148.040239799789|54=1|55=MSFT|58=NewOrderSingle|59=0|60=20250209-23:59:26.771|10=118|8=FIX.4.2|9=166|35=D|34=149|49=OPS_CANDIDATE_7_7595|52=20250209-15:59:26.000|56=DTL|11=20250209235926880|21=1|38=48|40=1|54=1|55=AAPL|58=NewOrderSingle|59=0|60=20250209-23:59:26.880|10=097|8=FIX.4.2|9=166|35=D|34=150|49=OPS_CANDIDATE_7_7595|52=20250209-15:59:26.000|56=DTL|11=20250209235926986|21=1|38=25|40=1|54=5|55=AAPL|58=NewOrderSingle|59=0|60=20250209-23:59:26.986|10=102|8=FIX.4.2|9=185|35=D|34=151|49=OPS_CANDIDATE_7_7595|52=20250209-15:59:27.000|56=DTL|11=20250209235927093|21=1|38=82|40=2|44=171.967264921591|54=1|55=BAC|58=NewOrderSingle|59=0|60=20250209-23:59:27.093|10=231|8=FIX.4.2|9=164|35=D|34=152|49=OPS_CANDIDATE_7_7595|52=20250209-15:59:27.000|56=DTL|11=20250209235927200|21=1|38=3|40=1|54=1|55=BAC|58=NewOrderSingle|59=0|60=20250209-23:59:27.200|10=175|8=FIX.4.2|9=68|35=5|34=153|49=OPS_CANDIDATE_7_7595|52=20250209-15:59:27.000|56=DTL|10=199|