8=FIX.4.2|9=84|35=A|34=1|49=OPS_CANDIDATE_7_7595|52=20250209-10:46:39.000|56=DTL|98=0|108=30|141=Y|10=169|8=FIX.4.2|9=164|35=D|34=2|49=OPS_CANDIDATE_7_7595|52=20250209-10:46:40.000|56=DTL|11=20250209184640850|21=1|38=27|40=1|54=2|55=AAPL|58=NewOrderSingle|59=0|60=20250209-18:46:40.850|10=214|8=FIX.4.2|9=66|35=5|34=3|49=OPS_CANDIDATE_7_7595|52=20250209-10:46:40.000|56=DTL|10=081|